:100000000C9433010C94062A0C94DF290C94B82923
:100010000C9491290C945B010C945B010C946A295B
:100020000C945B010C945B010C947F260C94EE26DF
:100030000C945B010C945B010C945B010C945B01D0
:100040000C945B010C945B010C945B010C945B01C0
:100050000C945B010C945B010C945B010C942029C3
:100060000C945B010C945B010C945B010C945B01A0
:100070000C945B010C945B010C945B010C945B0190
:100080000C945B010C945B010C945B010C945B0180
:100090000C945B010C945B010C945B010C945B0170
:1000A0000C945B010C945B010C945B01000000005C
:1000B000000000002A2B28000000000000000000C3
:1000C0000000000000000000000000002C9EB4A012
:1000D000A1A2A434A6A7A5AE362D3738271E1F200F
:1000E000212223242526B333B62EB7B89F848586D4
:1000F0008788898A8B8C8D8E8F9091929394959618
:100100009798999A9B9C9D2F3130A3AD3504050695
:100110000708090A0B0C0D0E0F10111213141516F7
:100120001718191A1B1C1DAFB1B0B5007C3C3E5E00
:100130002B3D3F2F5B5D3B2C2A225C000000000022
:10014000250028002B002E003100000000020009CD
:100150000F0000030401000C00000000000000007C
:10016000000000000000000000080B000202020076
:10017000000904000001020200000524001001052E
:10018000240101010424020605240600010705815B
:100190000310004009040100020A000000070502E4
:1001A0000240000007058302400000040309041216
:1001B000010002EF020140412337800001010203E8
:1001C0000141726475696E6F204C4C43004172644A
:1001D00075696E6F204D6963726F00000000002426
:1001E0000027002A002D00300005010906A1018525
:1001F00002050719E029E715002501750195088119
:10020000029501750881039506750815002573058B
:1002100007190029738100C00408020110408040C2
:10022000102040804080080204018040201002011C
:1002300010801020404020000000002300260029EC
:10024000002C002F0004040404040304050202022D
:10025000020403020202020606060606060404025F
:1002600002020404892B11241FBECFEFDAE0DEBFA7
:10027000CDBF26E0ACE2B2E001C01D92A13CB207C6
:10028000E1F712E0A0E0B1E0E0E2FDE602C0059097
:100290000D92AC32B107D9F711E0C3E3D1E004C04D
:1002A0002197FE010E941F35C233D107C9F70E9472
:1002B000012E0C948E360C940000CF93DF93FC013A
:1002C00081819091F604482F490F5527551F4830DA
:1002D00051059CF5A281B381109709F522EF34E016
:1002E0003383228320812093F4048093F50480914A
:1002F000F704820F80832091F804A22FB091F904B3
:100300008A2F821B8917E8F481813D91C82FD0E0A4
:10031000CB5EDE4F38838F5F8183F2CFD901189691
:100320002D913C91199721153105C1F722EF34E049
:1003300019963C932E931897D5CF80E0DF91CF91FB
:10034000089581E0FBCF4F925F926F927F928F92E0
:100350009F92AF92BF92DF92EF92FF920F931F9303
:10036000CF93DF93EC018B0188818B32C1F18D3209
:10037000B9F52196EE24E394888190ED980F9A3098
:1003800010F08E32E1F560E070E0CB01FE012191CA
:10039000A0ED8A2E820E39E0381520F16A3929E95C
:1003A0007207820729E19207D0F5AAE0B0E09B012D
:1003B000AC010E942E34912CB12CA12C24013501CA
:1003C00040945094609470944616570668067906D7
:1003D00030F1680D791D8A1D9B1DEF01D7CF219645
:1003E000E12CCACF21111BC0F80160837183828385
:1003F00093838AE0E11001C088E0F8018483DF91F3
:10040000CF911F910F91FF90EF90DF90BF90AF9031
:100410009F908F907F906F905F904F900895F12CF8
:10042000EAE08E2E912CA12CB12C61157105F0E81B
:100430008F07910540F0A50194010E94FD34CA0187
:10044000B901F394F2CFFE01299130ED320F3A3029
:1004500010F4F394F8CF2E32F1F4EF012196FE015F
:100460002196208150EDD52ED20E29E02D1598F041
:100470006C3C3CEC73073CE08307910580F7AAE0F5
:10048000B0E09B01AC010E942E346D0D711D811DE9
:10049000911DFA94E4CF20812F7DD0E0C0E0253477
:1004A00009F04FC021812D32A9F53296BB24B394B7
:1004B000DF01D0E0C0E02F2D0F2C000C330B4AE001
:1004C000A42EFD01DD9040ED4D0D4A30A8F5AC9E07
:1004D000A001AD9E500D1124CD2DDD0CDD0BE0975C
:1004E000C40FD51FAE01420F531F473251054CF3C5
:1004F000BB20B9F080E090E0A0E0B0E8E11003C0DC
:1005000080E090E0DC01F80180839183A283B383D3
:100510008CE074CF2B3219F03196B12CC9CF3296C2
:10052000FCCF80E090E0A0E8BFEFE110ECCF80E0EE
:1005300090E0A0E8BFE7E7CFBB2019F0D195C195C7
:10054000D109208121115BCFCF0DD11DF7FCDA95A8
:100550000E940F331C161D06E4F4F12CC0FF0CC0E2
:1005600024E0F29EF0011124E457FE4F20813181F6
:10057000428153810E947033D595C795F39420979B
:1005800069F7E1109058F801608371838283938347
:10059000BFCFD195C195D109F12C209791F3C0FF20
:1005A0000CC024E0F29EF0011124EC58FE4F208193
:1005B0003181428153810E947033D595C795F39460
:1005C000ECCFFC0180915402882311F13FB7F894DD
:1005D00082E08093E9002091F200822F90E01816CB
:1005E000190614F481E090E0882339F0289A44E653
:1005F000409353024091F1004083222339F020912F
:10060000F200211103C02BE62093E8003FBF0895BC
:100610008FEF9FEF089540914A0250914B02209135
:1006200048023091490242175307B4F49091E80010
:100630009570E1F39091E80092FD19C08093F1006C
:1006400080914A0290914B0201968F739927892BD2
:1006500019F48EEF8093E80080914A0290914B024A
:10066000019690934B0280934A0281E0089580E0C6
:100670000895DF92EF92FF920F931F93CF93DF9332
:10068000D82E8A01EB017B01E40EF51ECE15DF05A5
:1006900059F0D7FE12C0FE0184910E940B032196EF
:1006A0008111F4CF0FEF1FEFC801DF91CF911F91A0
:1006B0000F91FF90EF90DF9008958881EECF2FB7D4
:1006C000F89487708093E9009091E800892F8072F8
:1006D00095FF04C09091F20080E4891B2FBF08951C
:1006E000615030F02091F100FC0120830196F8CF99
:1006F000289A84E6809353020895AF92BF92CF92D6
:10070000DF92EF92FF920F931F93CF93DF936C01D1
:100710007B018B01040F151FEB015E01AE18BF08B2
:10072000C017D10759F06991D601ED91FC91019064
:10073000F081E02DC6010995892B79F7C501DF917C
:10074000CF911F910F91FF90EF90DF90CF90BF90CE
:10075000AF9008958091400281110DC082E0809396
:100760003C0284E080933D0210923F0210923E02D0
:1007700081E0809340028CE392E008950F931F93F1
:10078000CF93DF931F92CDB7DEB782E0898342E437
:1007900050E069E671E080E80E9439030E94AA03F4
:1007A000DC0112960D911C910115110589F0D801FB
:1007B000ED91FC910280F381E02DBE016F5F7F4FD0
:1007C000C801099597FD04C0F80100851185ECCF9B
:1007D00089810F90DF91CF911F910F910895CF9351
:1007E000DF931F92CDB7DEB76983DC01ED91FC91F9
:1007F0000280F381E02D41E050E0BE016F5F7F4F4A
:1008000009950F90DF91CF91089583E08093E900DF
:100810008091F200882319F08AE38093E80008951C
:1008200083E00E945F0390E00895CF93DF931F92CF
:10083000CDB7DEB7FC018485958597FD08C02FEF05
:100840003FEF358724870F90DF91CF910895CE0138
:1008500001960E94E102019719F4898190E0F3CF9B
:100860008FEF9FEFF0CF0F931F93CF93DF931F92E4
:10087000CDB7DEB78C01FC018485958597FF0BC051
:10088000CE0101960E94E102019771F4898190E006
:10089000F80195878487F801848595850F90DF910D
:1008A000CF911F910F9108958FEF9FEFF1CFFC0132
:1008B0008485958597FD0BC09FB7F89482E080935F
:1008C000E9008091F2009FBF90E0019608959FB7E4
:1008D000F89482E08093E9008091F2009FBF90E05D
:1008E000089581508F3008F047C0E82FF0E0E558B8
:1008F000FB4F0C941F3598049C048A0490049404C4
:10090000BC04BC04BC049F04A504A904AD04B30446
:10091000BC04B704809180008F7780938000089595
:10092000809180008F7DF9CF80918000877FF5CF07
:1009300084B58F7784BD089584B58F7DFBCF80917A
:1009400090008F77809390000895809190008F7D24
:10095000F9CF80919000877FF5CF8091C0008F778D
:100960008093C00008958091C0008F7DF9CF809161
:10097000C200877F8093C2000895CF93DF93282F12
:1009800030E0F901E65BFE4F8491F901E85EFD4F2E
:10099000D491F901EB5BFD4FC491CC23A1F08111FF
:1009A0000E947104EC2FF0E0EE0FFF1FE95CFD4F99
:1009B000A591B491EC91ED2381E090E009F480E001
:1009C000DF91CF91089580E090E0FACF1F93CF930D
:1009D000DF93282F30E0F901E65BFE4F8491F901A7
:1009E000E85EFD4FD491F901EB5BFD4FC491CC2340
:1009F000A9F0162F81110E947104EC2FF0E0EE0F88
:100A0000FF1FE45CFE4FA591B4918FB7F894EC9171
:100A1000111108C0D095DE23DC938FBFDF91CF91F9
:100A20001F910895DE2BF8CFCF93DF9390E0FC0168
:100A3000E85EFD4F24918B5B9D4FFC0184918823E0
:100A4000C9F090E0880F991FFC01E552FE4FA59177
:100A5000B491FC01E45CFE4FC591D49161110DC0CD
:100A60009FB7F8948C91209582238C9388812823BA
:100A700028839FBFDF91CF910895623051F49FB7D3
:100A8000F8943C91822F809583238C93E8812E2BC0
:100A9000EFCF8FB7F894EC912E2B2C938FBFEACF2A
:100AA0001F93CF93DF93182FEB0161E00E94140591
:100AB000209739F460E0812FDF91CF911F910C9442
:100AC000E604CF3FD10511F461E0F5CFE12FF0E06E
:100AD000E65BFE4FE491E150EF3008F07FC0F0E0BC
:100AE000EC58FA4F0C941F3583058B0590059A0539
:100AF000A405EE05EE05EE05AE05B805C205CC056C
:100B0000D905EE05E10584B5806884BDC7BDDF91D8
:100B1000CF911F91089584B5806284BDC8BDF7CF81
:100B200080918000806880938000D0938900C0937A
:100B30008800EDCF80918000806280938000D09308
:100B40008B00C0938A00E3CF8091800088608093FF
:100B50008000D0938D00C0938C00D9CF80919000FD
:100B6000806880939000D0939900C0939800CFCF75
:100B700080919000806280939000D0939B00C093FE
:100B80009A00C5CF80919000886080939000D093A8
:100B90009D00C0939C00BBCF8091C0008068809373
:100BA000C0008091C0008F7B8093C000C093CF00B5
:100BB000AECF8091C00080628093C000C093D0000F
:100BC000A6CF8091C20088608093C2008091C2004D
:100BD0008B7F8093C200C093D20099CFC038D105DB
:100BE0000CF072CF67CF0F931F93CF93DF93C6E2C2
:100BF000D1E0082F10E088812296B8010E945005AC
:100C000081E0C033D807B9F7DF91CF911F910F91E1
:100C100008953FB7F8948091380290913902A091DD
:100C20003A02B0913B0226B5A89B05C02F3F19F0B0
:100C30000196A11DB11D3FBFBA2FA92F982F88275C
:100C4000BC01CD01620F711D811D911D42E0660F37
:100C5000771F881F991F4A95D1F708958F929F9209
:100C6000AF92BF92CF92DF92EF92FF924B015C0165
:100C70000E9409066B017C010E9409066C197D091E
:100C80008E099F09683E734081059105A8F321E014
:100C9000821A9108A108B10888EEC80E83E0D81E18
:100CA000E11CF11C81149104A104B10429F7FF9007
:100CB000EF90DF90CF90BF90AF909F908F9008956E
:100CC0007F928F929F92AF92BF92CF92DF92EF92DC
:100CD000FF920F931F93CF93DF93C82E8B017A015E
:100CE00080915402811110C08FEF9FEFDF91CF915F
:100CF0001F910F91FF90EF90DF90CF90BF90AF903A
:100D00009F908F907F90089580914E0280FF05C044
:100D10008091E00082608093E000CE2DDF2DD12C09
:100D20008AEFB82E8C2D8770982E8C2D8072882E8D
:100D30008C2D8074782E9AE3A92E209719F4DD204B
:100D400009F452C08C2D0E945F0381110AC0BA942D
:100D5000BB2051F261E070E080E090E00E942E063E
:100D6000ECCF8C171D0611F00CF08C2F9FB7F89468
:100D70009092E9002091E80025FD02C09FBFDDCFE1
:100D8000282F30E0C21BD30B882029F08150A0F01F
:100D90001092F100FBCFF801C7FC0AC0815050F05F
:100DA00041914093F100FACF44914093F100319684
:100DB0008150D0F7020F131FDD2021F0A092E80030
:100DC000D12CDCCF8091E80085FD07C0A092E8001F
:100DD000DD24D394209791F2F3CF209779F67720F2
:100DE00069F2A092E800CACF5D9A84E680934D0232
:100DF000C7017CCFEF92FF921F93CF93DF931F9297
:100E0000CDB7DEB77C018091030581112AC011E0C6
:100E10001093F6041093F7048CEF94E09093F90488
:100E20008093F8041092FB041092FA0486EC91E08F
:100E30009093F3048093F2041092FE041092FD0448
:100E4000109200051092FF04109301051093020503
:100E500081EC8093FC040E94AA030E945D01109320
:100E6000030582E0898341E050E0BE016F5F7F4F60
:100E70008091F5040E94600697FD08C08091F504FA
:100E800048E050E0B70180640E9460060F90DF9157
:100E9000CF911F91FF90EF900895CF93DF93EC01D6
:100EA00080910F01882331F083E00E9460061816BC
:100EB000190634F081E090E09B838A8380E090E023
:100EC000DF91CF9108952FB7F8946091340270911B
:100ED000350280913602909137022FBF0895089510
:100EE0008FB7F89480912D028FBF089561E0FC01C7
:100EF00084810E94E60480912C02811110922C02C0
:100F000008958EBD00000DB407FEFDCF8EB5089587
:100F10008FEF0C9481070F931F93CF93DF93EC0116
:100F20000E9463078B010E9488078F3F69F00E942F
:100F30006307601B710B6C177D07A8F380E0DF91DE
:100F4000CF911F910F91089581E0F9CF8CBD9DBD88
:100F50000895CF93DF93EC0180912C02811109C099
:100F600081E080932C028091A7049091A8040E94B4
:100F7000A60760E08C81DF91CF910C94E6048F92FC
:100F80009F92AF92BF92FF920F931F93CF93DF93E5
:100F9000EC01F62E49015A018E81882389F08F8158
:100FA00098859C012F5F3F4F38872F838230924076
:100FB00018F40E948807F3CFCE010E9476071E82A4
:100FC000CE010E94A9078CE291E00E948B078F2D31
:100FD00080640E94810708E110E0D501C401002E61
:100FE00004C0B695A795979587950A94D2F70E9465
:100FF000810708501109083F8FEF180771F785E93D
:10100000FF2021F028E087E8F2128FEF0E9481078D
:1010100010E00E9488078A8787FF04C01F3F11F0F5
:101020001F5FF7CFDF91CF911F910F91FF90BF907E
:10103000AF909F908F900895AF92BF92CF92DF9222
:10104000EF92FF920F931F93CF93DF93EC0169010F
:10105000C801820F931F8130924050F58E81882302
:1010600079F088819981AA81BB8184179507A607A9
:10107000B70731F48F819885C816D90608F042C0A9
:10108000488359836A837B838B85833039F089E079
:10109000440F551F661F771F8A95D1F79A01AB0140
:1010A00061E1CE010E94BF07882389F083E08D8330
:1010B000CE010E94760780E0DF91CF911F910F91C2
:1010C000FF90EF90DF90CF90BF90AF9008950E9477
:1010D00063075B010E9488078A878F3F69F40E943B
:1010E00063076A197B096D327140A0F38FE08D832D
:1010F000CE010E947607DCCF8E3F89F418861F82CE
:1011000081E08E838F8198858C159D0550F40E9417
:1011100088078F819885019698878F83F3CF8DE01C
:10112000E6CF6701E00EF11E0E948807F601819369
:101130006F01EE15FF05C1F78F819885080F191F04
:1011400018870F838985882319F001151240A0F0B4
:101150008E81882389F08F8198859C012F5F3F4F76
:1011600038872F838230924018F40E948807F3CF8B
:10117000CE010E9476071E8281E09ECFCF92DF9241
:10118000EF92FF920F93CF93DF93EC01690182E11D
:10119000411551056105710599F08B85833039F052
:1011A00089E0440F551F661F771F8A95D1F79A0172
:1011B000AB0168E1CE010E94BF07882319F084E0EB
:1011C0008D832DC08EEF0E94810776018EEFD81A95
:1011D000F70181917F010E948107EC14FD04C1F7A2
:1011E0008FEF0E9481078FEF0E9481070E9488077E
:1011F0008A878F71853071F4011116C0CE010E946B
:10120000760781E0DF91CF910F91FF90EF90DF9013
:10121000CF90089581E18D83CE010E947607CE01A3
:101220000E94760780E0EECF88E592E00E948B076F
:10123000811102C085E1C4CF20E030E0A9016DE05A
:10124000CE010E94BF07882311F084E1B9CF0E942C
:1012500088078111FACFD2CF0F9340912F0250917E
:1012600030026091310270913202411551056105E1
:10127000710599F0082F27E532E080915502909191
:1012800056020E94BE08882349F010922F02109245
:101290003002109231021092320281E00F910895D3
:1012A0000F93CF93C82F80912E02811105C0C1E00A
:1012B0008C2FCF910F910895409100015091010121
:1012C00060910201709103010C2F27E532E08091BB
:1012D0005502909156020E94BE08811102C0C0E0E2
:1012E000E7CFCC2321F381E00E942C098823B9F3B6
:1012F00010922E02DDCF8F929F92AF92BF92EF920B
:10130000FF920F931F93CF934B015C01C42F8091E9
:10131000000190910101A0910201B0910301881593
:101320009905AA05BB0551F181E00E945009811180
:101330000BC080E0CF911F910F91FF90EF90BF9075
:10134000AF909F908F90089587E5E82E82E0F82E69
:1013500000E012E030E020E0B501A40180915502E8
:10136000909156020E941C08882319F38092000174
:1013700090920101A0920201B092030140912E02CD
:101380004C2B40932E0281E0D5CFCF93DF93EC011D
:101390006E857F858889998941E00E947B09882331
:1013A00051F08A8920E2829FC0011124895A9D4F01
:1013B000DF91CF91089590E080E0FACF4F925F9255
:1013C0006F927F928F929F92AF92BF92CF92DF9255
:1013D000EF92FF920F931F93CF93DF93EC01423074
:1013E00051056105710590F480E0DF91CF911F9167
:1013F0000F91FF90EF90DF90CF90BF90AF909F90B4
:101400008F907F906F905F904F90089589859A8517
:10141000AB85BC850196A11DB11D84179507A60754
:10142000B70710F3CB88DC88ED88FE888F89803180
:1014300009F042C0BB27A72F962F852F48015901DD
:101440002A013B01C80ED91EEA1EFB1E8091000135
:1014500090910101A0910201B0910301C816D90633
:10146000EA06FB0699F58F898031C1F5B301A20127
:10147000552766277727440F551F495A5D4FFA01B4
:101480009182808280912E02816080932E028A89CF
:10149000823080F08D819E81AF81B8858C0D9D1D3D
:1014A000AE1DBF1D80932F0290933002A093310296
:1014B000B093320281E099CFDB01CA01E7E0B69533
:1014C000A79597958795EA95D1F7B8CF40E0C701E2
:1014D000B6010E947B098111C6CF86CFB301A2015C
:1014E0004F77552766277727440F551F440F551F01
:1014F000495A5D4FFA0180829182A282B382C2CFA3
:101500008F929F92AF92BF92CF92DF92EF92FF9213
:101510000F931F93CF93DF93FC0181859285A38561
:10152000B4850196A11DB11D84179507A607B707BD
:1015300070F480E0DF91CF911F910F91FF90EF90B9
:10154000DF90CF90BF90AF909F908F900895838849
:101550009488A588B6888789803189F5BB27A72F0D
:10156000962F852FE9016A017B018F01BC01CD0116
:10157000680D791D8A1D9B1D8090000190900101CE
:10158000A0900201B090030186169706A806B9063E
:1015900001F5F8018789803111F5DD24EE24FF245F
:1015A000F601EE0FFF1FE95AFD4F80819181B0E0F7
:1015B000A0E088839983AA83BB8381E0BBCFDB0152
:1015C000CA01C7E0B695A79597958795CA95D1F7B3
:1015D000C9CF40E00E947B098111DBCFAACFE894FC
:1015E000C7F8DD24EE24FF24F601EE0FFF1FEE0FF7
:1015F000FF1FE95AFD4F80819181A281B381BF70A5
:10160000D8CF4F925F926F927F92AF92BF92CF925C
:10161000DF92EF92FF920F931F93CF93DF9300D04F
:1016200000D0CDB7DEB78C0149835A836B837C83AE
:101630005901C12CD12C7601412C82E0582E612C0D
:10164000712C49815A816B817C819E012F5F3F4FB4
:10165000C8010E94800A882339F1F8018585A30119
:10166000920104C0220F331F441F551F8A95D2F7E1
:10167000DA01C901C80ED91EEA1EFB1E49815A8132
:101680006B817C818789803111F188EF9FEFAFEF0B
:10169000BFE0481759076A077B0798F2F501C08237
:1016A000D182E282F38281E00F900F900F900F9031
:1016B000DF91CF911F910F91FF90EF90DF90CF902E
:1016C000BF90AF907F906F905F904F90089588EF9C
:1016D0009FEFA0E0B0E0DDCFCF93DF93FC01258149
:1016E000222321F080E0DF91CF910895EC018091D9
:1016F000CC04803159F582E08583178A108E118ED3
:10170000128E8091CD049091CE04B0E0A0E025E04F
:10171000880F991FAA1FBB1F2A95D1F7838B948B23
:10172000A58BB68B85EB94E09C8F8B8F81E08C83AF
:101730001E821F82188619861A861B861C861D86A5
:101740001E861F86188A198A1A8ACDCF803251F6D2
:1017500083E085834091CF045091D0046091D104FF
:101760007091D204478B508F618F728F9F012D5ED5
:101770003F4F85EB94E00E94010B8111D3CFB2CF94
:101780008F929F92AF92BF92CF92DF92EF92FF9291
:101790000F931F93CF93DF93EC018D8181110EC0C6
:1017A00080E0DF91CF911F910F91FF90EF90DF903C
:1017B000CF90BF90AF909F908F9008950B891C8918
:1017C0002D893E89041715072607370748F34A0174
:1017D0005B01823031F48A869B86AC86BD8681E0CF
:1017E000E0CF81149104A104B10449F41E821F8248
:1017F000188619861A861B861C861D86F0CF0A85D8
:101800001B852C853D85EB8DFC8D858590E00996AB
:10181000B901A8014150510961097109082E04C09C
:1018200076956795579547950A94D2F775016401A7
:10183000E1E0CE1AD108E108F10804C0F694E7947B
:10184000D794C7948A95D2F7C416D506E606F7064C
:1018500020F0012B022B032B11F58F89988DA98D78
:10186000BA8D8E839F83A887B9878E010A5F1F4F29
:10187000C114D104E104F10409F4ADCF4E815F81BC
:101880006885798598018B8D9C8D0E94800A91E0F6
:10189000C91AD108E108F1088111EACF81CFC41A31
:1018A000D50AE60AF70AE1CF3F924F925F926F9214
:1018B0007F928F929F92AF92BF92CF92DF92EF92E0
:1018C000FF920F931F93CF93DF93CDB7DEB72C9783
:1018D0000FB6F894DEBF0FBECDBF5C01DC015B9696
:1018E0008D909C905C9716964D905D906D907C903D
:1018F0001997411451046104710409F468C0BFEFE1
:101900004B1A5B0A6B0A7B0A312CF40181859285A4
:10191000A385B4859C01AD012F5F3F4F4F4F5F4FB3
:1019200029873A874B875C87730162011D821E827B
:101930001F821886F40181859285A385B4852D8147
:101940003E814F815885281739074A075B0708F001
:1019500056C089859A85AB85BC858C159D05AE05DD
:10196000BF0550F482E0C82ED12CE12CF12C92E07E
:10197000492E512C612C712C9E012F5F3F4FB701D6
:10198000A601C4010E94800A8823C9F189819A8135
:10199000AB81BC81892B8A2B8B2B09F12601370166
:1019A0009FEF491A590A690A790A2D813E814F81B0
:1019B00058852F5F3F4F4F4F5F4F2D833E834F839F
:1019C00058873FEFC31AD30AE30AF30AB3CFF401EF
:1019D00040805180628073803324339496CFC41446
:1019E000D504E604F70409F70FEF1FEF2FEF3FE0F0
:1019F000B701A601C4010E94DE09811119C080E06F
:101A00002C960FB6F894DEBF0FBECDBFDF91CF91FD
:101A10001F910F91FF90EF90DF90CF90BF90AF900C
:101A20009F908F907F906F905F904F903F90089520
:101A3000D50116964D915D916D917C911997411547
:101A400051056105710539F097018601C4010E94B5
:101A5000DE098823A1F2D5011696CD92DD92ED9292
:101A6000FC921997332051F0D701C6010196A11DB0
:101A7000B11DF40180839183A283B383F50187892B
:101A8000908DA18DB28D892B8A2B8B2B39F484817B
:101A9000C78AD08EE18EF28E80688483F5018481BE
:101AA0008062848381E0ACCF1F93CF93DF93FC01EE
:101AB0002581222371F1162FEC01848187FF1EC03E
:101AC000CF010E94C509FC01892B19F18D8182305B
:101AD00040F48B899C89AD89BE89848F958FA68FB0
:101AE000B78F8F89988D938F828F8F89988DA98DCD
:101AF000BA8DB58BA48B8C818F778C83111103C029
:101B00008C818F7E8C83812FDF91CF911F910C94DC
:101B1000500980E0DF91CF911F910895FF920F93BC
:101B20001F93CF93DF93EC018D81813041F090E0E2
:101B300080E0DF91CF911F910F91FF9008958C81EC
:101B400081FFF5CF82FD1BC0009155021091560216
:101B5000C8010E94A9070E948807F82EC8010E94A8
:101B600076078FEFF812E3CF8C8185FF1BC060E012
:101B7000CE010E94540D8C818F7D8C83D8CF4B89F0
:101B80005C896D897E898A859B85AC85BD85841736
:101B90009507A607B707C1F2CE010E94C00B8111BD
:101BA000D3CFC5CF40912F025091300260913102C6
:101BB00070913202452B462B472B21F080E00E948A
:101BC0002C09B5CF80618C832A853B85317080E0FC
:101BD00092E0821B930BADCFCF93DF93EC0161E0DA
:101BE0000E94540D882311F01D8281E0DF91CF9176
:101BF00008952F923F924F925F926F927F928F92B1
:101C00009F92AF92BF92CF92DF92EF92FF920F938B
:101C10001F93CF93DF9300D000D01F92CDB7DEB7D4
:101C20007C015B01342E5D83DC0115968C91159748
:101C3000813009F0CEC014962C9021FECAC022FC3F
:101C4000B4C0C32CDD8022947FE027222094B22DE3
:101C5000B1702B2ED7011A964D915D916D917C91AB
:101C60001D97C114D10409F428C15B968D919C91F4
:101C70005C97FC0174807A948A019B0169E0369537
:101C80002795179507956A95D1F770228A011170EB
:101C9000711020C001151105E9F416964D915D9162
:101CA0006D917C911997411551056105710509F0F8
:101CB00099C057968D919D910D90BC91A02D009744
:101CC000A105B10509F0B0C0C7010E94540C8823DA
:101CD00009F47FC080E092E0801B910B46018C15D7
:101CE0009D0508F44C01D7015B964D915C915C9782
:101CF00016968D919D910D90BC91A02D0297A109F2
:101D0000B109FA01258504C0880F991FAA1FBB1FBE
:101D10002A95D2F74685578560897189840F951F6A
:101D2000A61FB71F9C01AD01270D311D411D511D7F
:101D300029013A01811432E0930609F07BC08091B9
:101D4000000190910101A0910201B091030184155D
:101D50009505A605B70559F48FEF9FEFDC01809339
:101D6000000190930101A0930201B0930301022DA1
:101D70009501B301A20180915502909156020E94F3
:101D8000BE08882331F19EEFB91AC818D908F701A7
:101D900082859385A485B585880D991DA11DB11DEA
:101DA00082879387A487B58755CFF70143895489E4
:101DB0006589768982859385A485B58548175907F5
:101DC0006A077B0709F43DCFC7010E94C00B811150
:101DD00038CF81E090E0D70113969C938E931297B1
:101DE00080E007C09E012F5F3F4F0E94800A811153
:101DF00002C090E079C089819A81AB81BC81F701F2
:101E0000238D348DF901278948EF5FEF60E070E0A2
:101E1000203121F048EF5FEF6FEF7FE084179507E7
:101E2000A607B70708F050CFF70186839783A087EE
:101E3000B18750CF0115110599F5D7011A964D912B
:101E40005D916D917C911D9753968D919D910D9013
:101E5000BC91A02D481759076A077B0708F181E05C
:101E60000E945009882309F4B4CF40920001509297
:101E70000101609202017092030180912E02816043
:101E800080932E02C801895A9D4FD5019C01280DCF
:101E9000391DFC012E173F0759F04D914193FACFA0
:101EA00041E0C301B2010E947B098111EBCF91CFC8
:101EB000281B390BA20EB31E68CFF70183899489C2
:101EC000A589B68984179507A607B70738F48481D2
:101ED000438B548B658B768B80688483F701848178
:101EE00083FD1AC0832D9D810F900F900F900F904E
:101EF0000F90DF91CF911F910F91FF90EF90DF90A6
:101F0000CF90BF90AF909F908F907F906F905F9099
:101F10004F903F902F90089561E0C7010E94540DAB
:101F2000882309F456CFDECFCF93DF931F92CDB72E
:101F3000DEB7698341E050E0BE016F5F7F4F0E94D2
:101F4000F90D0F90DF91CF910895FC01DB011296FE
:101F50008D919C911397938382838AEB91E0918377
:101F6000808314968C911497848315968C91159781
:101F7000858316964D915D916D917C91199746835D
:101F80005783608771871A964D915D916D917C9111
:101F90001D9742875387648775871E964D915D9183
:101FA0006D917C91519746875787608B718B5296C4
:101FB0008C915297828B53964D915D916D917C914E
:101FC0005697438B548B658B768B57964D915D91CD
:101FD0006D917C915A97478B508F618F728F5B9672
:101FE0008D919C91948F838F0895FC01818D928DAA
:101FF000009719F061E00C94540D0895DC01599696
:10200000ED91FC913097B9F083899489A589B689BF
:102010004285538564857585841B950BA60BB70B8C
:10202000811520E89207A105B10538F08FEF9FE7F1
:10203000A0E0B0E0089590E080E00895DC015996BA
:102040008D919C91009739F0DC01ED91FC91048019
:10205000F581E02D099490E080E00895CF93DF931F
:10206000EC01E98DFA8D309749F481E090E09B8393
:102070008A8390E080E0DF91CF91089513821282ED
:10208000898D9A8D0E94F90DE98DFA8D2281338117
:10209000232B59F7F0CFCF93DF931F92CDB7DEB745
:1020A0006983DC01ED91FC910280F381E02D41E038
:1020B00050E0BE016F5F7F4F09950F90DF91CF9188
:1020C00008952F923F924F925F926F927F928F92DC
:1020D0009F92AF92BF92CF92DF92EF92FF920F93B7
:1020E0001F93CF93DF9300D01F92CDB7DEB7FC01D3
:1020F0008581811118C08FEF9FEF0F900F900F9087
:10210000DF91CF911F910F91FF90EF90DF90CF90D3
:10211000BF90AF909F908F907F906F905F904F9007
:102120003F902F900895848180FFE5CF43895489A3
:102130006589768982859385A485B585312C212C86
:10214000481759076A077B0719F022242394312C7A
:102150006F012101CE0101963C01DF011696BB8380
:10216000AA834114510409F4C5C0F6014285538580
:10217000648575854A01F1E09F22D6015B968D91B9
:102180009C915C978A019B01E9E03695279517950C
:102190000795EA95D1F71596EC91E230E9F5FC0147
:1021A000628D738D848D958D600F711F821F931FBB
:1021B000A12C22E0B22EA818B9084A145B0408F436
:1021C0005201F601248126FD04C0A114F2E0BF06ED
:1021D00071F40091000110910101209102013091F0
:1021E0000301061717072807390709F05EC040E00A
:1021F0000E947B09882309F47ECFC401895A9D4F30
:10220000D3019C012A0D3B1DFC012E173F0709F449
:102210006CC041914D93F9CFDC011496BC90BA94F7
:10222000B0228114910479F4B1100DC0452B462BD6
:10223000472B69F5F6018789908DA18DB28D868334
:102240009783A087B187D6015B96ED91FC915C974F
:1022500016966D917D918D919C911997625071099F
:1022600081099109258504C0660F771F881F991F72
:102270002A95D2F70685178520893189600F711F4D
:10228000821F931F6B0D711D811D911D91CFD60172
:1022900016964D915D916D917C9119972A813B81A4
:1022A0000E94800A8111CFCF26CF7301850194014E
:1022B000AB01BC0180915502909156020E941C080E
:1022C000882309F418CF6A0C7B1CF601828593855C
:1022D000A485B5858A0D9B1DA11DB11D828793879D
:1022E000A487B5874A185B083CCF281B390B620EC0
:1022F000731EEBCF2A94232809F0FDCE898190E04C
:10230000FCCEFC01818D928D009711F00C94611030
:102310008FEF9FEF08950F931F93CF93DF93EC01FF
:10232000898D9A8D10E000E0009799F00E9461106D
:102330008C010F3F100769F0898D9A8DFC01428551
:1023400053856485758541505109610971090E9461
:10235000C00BC801DF91CF911F910F910895DC014F
:10236000FB0112962C9112978481958128171906EA
:1023700041F491818081813A31F49D7F81E09130F7
:1023800009F080E008958132E1F79B3029F48281E1
:102390001F968C9381E008959A3099F78281509628
:1023A0008C93F8CFDC01FB0188E4808389E481838E
:1023B00084E482831D969C911D979F709F5B9383FD
:1023C0001D968D919C9124E0969587952A95E1F72D
:1023D0008F708F5B848385E00895EF92FF920F9357
:1023E0001F93CF93DF93FB012081213871F5238167
:1023F000223259F5DC0112964C9124813581421725
:10240000130619F5EC010B851C85F12CE12C011547
:10241000110589F0F801448155816281738180E85A
:102420000E9439038F3F980749F0E80EF91ED80142
:102430000D911C91ECCF81E08F87C701DF91CF9187
:102440001F910F91FF90EF90089590E080E0F6CFFC
:10245000CF93DF93CDB7DEB769970FB6F894DEBFA1
:102460000FBECDBFFC01DB018C918F5F8C939E0171
:102470002D5F3F4F8DE0D9011D928A95E9F729E044
:10248000298384E08A8391E09D8383E08E832A8779
:1024900021E22B879C879D879F8722E2288B27E05C
:1024A0002B8B25E02C8B8E8B20E430E0388F2F8B0C
:1024B000998F82818B8395858685998B8A8B838181
:1024C00080688D8B49E150E0BE016F5F7F4F80E0F7
:1024D0000E94390369960FB6F894DEBF0FBECDBFD8
:1024E000DF91CF910895CF92DF92EF92FF920F93F9
:1024F0001F93CF93DF936C01EB017B01E40EF51E7C
:1025000010E000E0CE15DF0581F069916D30D1F368
:10251000D601ED91FC910190F081E02DC601099565
:10252000892B19F00F5F1F4FEDCFC801DF91CF91BD
:102530001F910F91FF90EF90DF90CF900895DC01F5
:102540006838A0F06858FD0186E0662321F0968186
:10255000961301C01682815031968111F6CFCD01BC
:1025600004960E94FA0681E090E00895E62FF0E0DC
:1025700067FF12C0E058F10981E090E001C0880FC8
:10258000EA95EAF7809514969C91149789231496FE
:102590008C93149760E0D7CFE455FF4F6491662386
:1025A00059F067FFD0CF14968C9114978D7F1496B5
:1025B0008C9314976F77C7CF90E080E00895DC018B
:1025C000683888F1685816968C911697861721F10D
:1025D00017968C9117978617F9F018968C91189783
:1025E0008617D1F019968C9119978617A9F01A962B
:1025F0008C911A97861781F01B968C911B978617E2
:1026000059F0FD01369690E080E02191211139C00A
:102610008A0F9B1FFC016683CD0104960E94FA0677
:1026200081E090E00895E62FF0E067FF11C0E058E8
:10263000F10921E030E001C0220FEA95EAF7149693
:102640008C911497822B14968C93149760E0BBCFD7
:10265000E455FF4F6491611109C081E090E0139649
:102660009C938E93129790E080E0089567FFABCF24
:1026700014968C911497826014968C9314976F77AC
:10268000A2CF01968630910509F0BFCFE6CFEF9239
:10269000FF921F93CF93DF93EC01162F0E94DF125E
:1026A0007C01612FCE010E949F12C7019927DF9103
:1026B000CF911F91FF90EF900895089590E080E0F2
:1026C0000895CF93DF93EC0188819981DC01ED912E
:1026D000FC910190F081E02D09952A813B81820FC8
:1026E000931F9B838A83DF91CF910895DC018D91A5
:1026F0009C91DC01ED91FC910280F381E02D099425
:10270000EF92FF920F931F93CF93DF93CDB7DEB776
:1027100066970FB6F894DEBF0FBECDBF8C01CB011C
:10272000FE0177969F014AE0E42EF12CB7010E944A
:10273000E934805D8293CB010097C1F7A9014E1B5C
:102740005F0BBF01C8010E947613F801228133811B
:10275000820F931F9383828366960FB6F894DEBF31
:102760000FBECDBFDF91CF911F910F91FF90EF90E2
:1027700008958F929F92AF92BF92CF92DF92EF9285
:10278000FF920F931F93CF93DF93CDB7DEB766977A
:102790000FB6F894DEBF0FBECDBF7C018E01095E7F
:1027A0001F4F68018AE0882E912CA12CB12CCB01FF
:1027B000BA01A50194010E94FD34942F852F605D1C
:1027C000F80162938F01A901692F782F41155105F6
:1027D0006105710561F7A6014E1B5F0BBF01C701C3
:1027E0000E947613F70122813381820F931F938316
:1027F000828366960FB6F894DEBF0FBECDBFDF9121
:10280000CF911F910F91FF90EF90DF90CF90BF90ED
:10281000AF909F908F900895EF92FF920F931F9328
:10282000CF93DF93EC017B0162E20E946113870189
:10283000F80161918F01662391F0EAEDF1E0F280F9
:10284000FF2049F0329681816813F9CF6CE5CE0103
:102850000E9461136F2DCE010E946113E9CF62E2E5
:10286000CE01DF91CF911F910F91FF90EF900C94CB
:10287000611380339CF08A3324F08F3524F08B373A
:1028800024F481E0089581344CF08B35D4F393ED3A
:10289000980F81E09230B0F380E008958B32B9F761
:1028A000F0CFFC01878181110AC0A481B581CD01DF
:1028B0000196958384838C91868381E087838681CA
:1028C00008951F93CF93DF93EC01162F0E945114AC
:1028D000811306C01F8281E0DF91CF911F9108957F
:1028E00080E0FACFCF93DF93EC01CE010E94511428
:1028F0008B3034F4893044F4882341F081E00DC0FA
:102900008D3011F08032D1F71F82EFCFC65BDF4FE1
:1029100081E090E09983888380E0DF91CF910895F2
:10292000CF92DF92EF92FF920F931F93CF93DF939B
:10293000EC018985811130C00E811F810E946307DF
:10294000D80118966D937D938D939C931B97D80116
:10295000ED91FC910284F385E02DC801099597FF64
:1029600025C00E946307F801C084D184E284F38407
:102970006C197D098E099F09C480D580E680F78097
:102980006C157D058E059F0510F38FEF9FEF97FD6A
:1029900080E0888781E089878885DF91CF911F91CA
:1029A0000F91FF90EF90DF90CF9008959927EFCF90
:1029B0001F93CF93DF93EC01162F0E949014811385
:1029C00006C0198681E0DF91CF911F91089580E0C4
:1029D000FACFCF93DF93EC01CE010E9490148B309D
:1029E00034F4893044F4882341F081E00DC08D3007
:1029F00011F08032D1F71986EFCFC45BDF4F81E051
:102A000090E09983888380E0DF91CF910895CF9201
:102A1000DF92EF92FF92CF93DF9300D000D01F920E
:102A2000CDB7DEB7FC01892B39F094819F779630C2
:102A300071F020F4943008F580E013C0983039F03C
:102A40009C30D1F7C080D180E280F38027C08081A4
:102A50009181A281B3818F3F9105A105B10509F054
:102A600058F70F900F900F900F900F90DF91CF912C
:102A7000FF90EF90DF90CF900895808191811D822B
:102A8000BE016F5F7F4F0E94A3018D81883001F1ED
:102A90008C3091F6C980DA80EB80FC8020E030E059
:102AA000A901C701B6010E94E43487FDC5CF20E02B
:102AB00030E04FE753E4C701B6010E940A3318160D
:102AC0000CF4BACFC701B6010E94B534862FC9CF26
:102AD00089819A81AB81BC81BECFCF93DF93DC012A
:102AE000ED91FC91119712962D913C91E217F3070D
:102AF000B8F4C62FD72FDF018991AD014F5F5F4F2B
:102B00009C91891307C0DA018111F6CFCF01DF91C3
:102B1000CF910895FD018191DF018111FBCFE6CFB7
:102B2000F0E0E0E0F3CF8F929F92AF92BF92CF920E
:102B3000DF92EF92FF920F931F93CF93DF93EC01FD
:102B400089810E94BD047C018881882369F101E0AC
:102B5000E114F10409F000E08A85081729F10E94C8
:102B600063078E809F80A884B984681979098A09CF
:102B70009B098A809B80AC80BD8086169706A8063C
:102B8000B90690F410913A0187E10E94BD046C01EE
:102B9000E114F104D9F4892BC9F48981823189F4D3
:102BA0001123A1F010923A01DF91CF911F910F9163
:102BB000FF90EF90DF90CF90BF90AF909F908F905D
:102BC0000895833131F581E0113081F50E9463076A
:102BD0006E837F8388879987CD2831F3688189E167
:102BE00095E0E114F104D9F50E94DF120A87EF287D
:102BF000D9F61130C9F68981843109F442C090F5C3
:102C00008231D1F1833181F6109233011092320179
:102C1000CBCF843131F41230C9F282E080933A0193
:102C2000C3CF8531A1F483E0133081F280933A0160
:102C30008FEFDF91CF911F910F91FF90EF90DF9079
:102C4000CF90BF90AF909F908F900C94F3058631FA
:102C500009F0BCCF143009F4B9CF84E0E7CF0E946B
:102C60009F12C4CF853191F0863109F09DCF10922B
:102C700039011092380198CF109231011092300131
:102C800093CF10923501109234018ECF10923701FC
:102C90001092360189CFFC01CB01985D81159440DB
:102CA00028F473707183608380E00895CB019C5D8C
:102CB0008115944088F4808140E0582F550F550FBE
:102CC0007370642B752B90E080E0019662837383B0
:102CD0008483958381E00895AB0170E060E04283D6
:102CE000538364837583F6CFCF92DF92EF92FF9286
:102CF0000F931F93CF93DF93CDB7DEB72B970FB60C
:102D0000F894DEBF0FBECDBF8C011A8219820E94DB
:102D10005114F82ED80117961C92C8010E94511424
:102D2000F8011782F81609F4B8C0811117C0F8012C
:102D3000E65BFF4F81E090E09183808380E02B96FB
:102D40000FB6F894DEBF0FBECDBFDF91CF911F91BC
:102D50000F91FF90EF90DF90CF9008958C3509F0A0
:102D600091C0C8010E945114882309F3EAEDF1E0F3
:102D7000853709F07BC0D80117961C9244E0E42EF9
:102D8000D12CC12CC8010E945114882381F28134B6
:102D90004CF48053803148F0F801E65BFF4F82E04D
:102DA00090E0CACF8F7D8753F5CF34E0CC0CDD1C8B
:102DB0003A95E1F7C82AF8011782EA94E110E2CFC8
:102DC000B601CE0101960E944B16882309F4A5CFC7
:102DD0008B819C81AD81BE811F8280389105A105C8
:102DE000B10598F48887FE0139968291882309F409
:102DF00094CFD8014D915C9111979A012F5F3F4F6D
:102E00002D933C93DA018C93F0CF282F2F732068F9
:102E1000288726E0B695A795979587952A95D1F7A7
:102E20008032910528F4806C8987FE013A96DDCFC7
:102E3000282F2F73206829879C0186E036952795D7
:102E40008A95E1F72031310528F4206E2A87FE01AA
:102E50003B96CBCF2F7320682A87892F82958F705E
:102E6000806F8B87FE013C96C0CF3296908199236C
:102E700009F492CF8913F9CF8181882309F48CCF8B
:102E8000F8011782D801ED91FC9111979F012F5FF6
:102E90003F4F2D933C93808340CFD8010190F08128
:102EA000E02DCF0101968D939C93108281E047CF56
:102EB000FC0180819181009799F0228133814481C6
:102EC00055812417350718F0118210820895A90141
:102ED0004F5F5F4F53834283820F931FFC016083D8
:102EE0000895CF92DF92EF92FF920F931F93CF93AB
:102EF000DF93CDB7DEB72B970FB6F894DEBF0FBECA
:102F0000CDBF8C011A8219820E949014F82EF8010C
:102F10001186C8010E949014F8011186F81609F470
:102F2000B3C0811117C0F801E45BFF4F81E090E06E
:102F30009183808380E02B960FB6F894DEBF0FBE9E
:102F4000CDBFDF91CF911F910F91FF90EF90DF9058
:102F5000CF9008958C3509F092C0C8010E9490145A
:102F6000882309F3EAEDF1E0853709F07CC0F80128
:102F7000118644E0E42ED12CC12CC8010E9490148B
:102F8000882389F281344CF48053803148F0F80171
:102F9000E45BFF4F82E090E0CBCF8F7D8753F5CF8E
:102FA00034E0CC0CDD1C3A95E1F7C82AF801118613
:102FB000EA94E110E2CFB601CE0101960E944B16D1
:102FC000882309F4A6CF8B819C81AD81BE811F82AD
:102FD00080389105A105B10578F488876E01F9E084
:102FE000CF0ED11CF60162916F01662309F491CFD7
:102FF000C8010E945817F6CF282F2F732068288702
:1030000026E0B695A795979587952A95D1F78032B2
:10301000910538F4806C89876E018AE0C80ED11C56
:10302000E1CF282F2F73206829879C0186E03695F1
:1030300027958A95E1F72031310538F4206E2A87EB
:103040006E01EBE0CE0ED11CCDCF2F7320682A8706
:10305000892F82958F70806F8B876E01FCE0CF0E79
:10306000D11CC0CF32969081992309F490CF891357
:10307000F9CF8181882309F48ACFF8011186682F5E
:10308000C8010E94581745CF60E0C8010E94581738
:10309000F80180819181892B29F4E45BFF4F83E063
:1030A00090E046CF81E047CFFC0180819181892B60
:1030B00021F460E070E0CB0108956DE573E190E0EC
:1030C00080E00895CF93DF93DC01EB01EC81FD817B
:1030D0008A819B810896E817F90730F4F0E0E0E078
:1030E000CF01DF91CF9108953897FD83EC8330971E
:1030F000A9F31296CD91DC911397209791F0CF010F
:103100008C1B9D0B23E0959587952A95E1F78D8380
:103110001396FC93EE9312971582148217821682EF
:10312000DFCF1196FC93EE93F3CFFC01248126FFB1
:1031300010C0808191816150710968F0FC01258186
:10314000222339F0F8E02F0290011124820F931FFF
:10315000F2CF90E080E00895FC012581222339F030
:10316000F8E02F0290011124820F931F089590E040
:1031700080E00895DC01ED91FD918081ED91FD915C
:103180009081ED91FD916C9163708E2309F06460E4
:103190009F2309F06860E7EDF8E1E60FF11D659502
:1031A00065956D936D917D918D919D91099423C04D
:1031B0001AC012C016C010C01EC009C014C013C06F
:1031C00006C019C009C00DC007C00DC014C06250B0
:1031D0007040804090400BC06150704080409040F3
:1031E00006C06E5F01C06F5F7F4F8F4F9F4F9E93F2
:1031F0008E937E936E930895809125059091260578
:103200000C94BA1880912705909128050C94BA184F
:103210008091290590912A050C94BA1880912B056C
:1032200090912C050C94BA188F929F92AF92BF92F6
:10323000CF92DF92EF92FF920F931F93CF93DF9382
:1032400000D000D0CDB7DEB7FC018581813091F090
:1032500080E00F900F900F900F90DF91CF911F9112
:103260000F91FF90EF90DF90CF90BF90AF909F9025
:103270008F900895848181FFEBCF83899489A589FC
:10328000B689892B8A2B8B2B09F45FC07F0140E024
:1032900050E0BA01CF010E94C00B8823C9F2F701A8
:1032A000C38CD48C8788908CA18CB28C82E090E007
:1032B000A0E0B0E0F60180839183A283B3839E01F6
:1032C0002F5F3F4FB501A401C6010E94800A8823E9
:1032D00009F4BECF00E010E09801B501A401C601D9
:1032E0000E94DE09882309F4B3CF89809A80AB80DD
:1032F000BC80F6018789803119F188EF9FEFAFEF2D
:10330000BFE088169906AA06BB06C8F2F701178A1D
:10331000108E118E128E138A148A158A168A848151
:103320008068848361E0C7010E94540D882309F4FA
:103330008FCF40E050E0BA01C7010E94C00B89CF97
:1033400088EF9FEFA0E0B0E0DCCF81E082CFCF92AA
:10335000DF92EF92FF921F93CF93DF93EC0180E215
:10336000689FF0011124E95AFD4F9385917161F036
:10337000842F827449F080E0DF91CF911F91FF90FC
:10338000EF90DF90CF900895142F6A8B8091000109
:1033900090910101A0910201B09103018E879F8756
:1033A000A88BB98BC488D588F12CE12C7601DD245B
:1033B000CC24CF8AD88EE98EFA8E828D938DB0E0A0
:1033C000A0E0AC01BD014C295D296E297F294F8BFE
:1033D000588F698F7A8F83858871B1F4848D958D2C
:1033E000A68DB78D8B8B9C8BAD8BBE8B81E08D8337
:1033F0001F701C831E821F82188619861A861B86E0
:103400001C861D8681E0B8CF803109F0B4CF9E01C3
:103410002D5E3F4F8B8D9C8D0E94010B882309F4FC
:10342000AACF84E0E4CF0F931F93CF93DF93EC01F7
:103430008B01CB010E943935080F191F009711F439
:1034400010E000E09A8389839C838B831E830D8325
:1034500018870F838D8580788D87DF91CF911F919D
:103460000F910895CF93DF93EC01FB0101900020B1
:10347000E9F73197AF01461B570B0E9476132A815B
:103480003B81820F931F9B838A83DF91CF910895A5
:103490002F923F924F925F926F927F928F929F9264
:1034A000AF92BF92CF92DF92EF92FF920F931F9352
:1034B000CF93DF93CDB7DEB76A970FB6F894DEBF30
:1034C0000FBECDBF8C014B01DC0114968C9114977B
:1034D0008F77863009F46BC2C8F4823000F18430F3
:1034E00008F04BC2F8014281538160817181C401AF
:1034F0000E947613D40112962D913C911397820F5E
:10350000931F13969C938E931297EBC18C3051F1BD
:1035100048F4883009F446C28A3009F434C26BEEAC
:1035200071E052C2803209F403C28034C1F76BE506
:10353000C4010E946113F801008111810115110578
:1035400009F4F1C1B401C8010E94481AC8010E94DF
:10355000AC188C01892B09F4E6C16CE2C4010E940D
:103560006113ECCFF8014080518062807380A30129
:103570009201C301B2010E940A338111D0CF20E031
:1035800030E0A901C301B2010E940A33882379F017
:10359000A3019201C301B2010E9449349B01AC0115
:1035A000C301B2010E940A33882309F4B8CF20E096
:1035B00030E0A901C301B2010E940A3387FF08C0AD
:1035C0006DE2C4010E94611377FA709477F87094E9
:1035D00020E836E948E15BE4C301B2010E94E4342B
:1035E00087FD79C044EAE42E41E0F42E54E7C52E6D
:1035F00051E0D52E6CE8A62E61E0B62E00E210E078
:10360000312C212CD7015E914E913E912E917D015E
:10361000C301B2010E94E43487FD0DC0F601248984
:10362000358946895789C301B2010E9470332B0145
:103630003C01200E311E15950795F4E0CF1AD108F4
:10364000AE14BF04F9F68FEF8B8B20E030E0A901B8
:10365000C301B2010E94E43418160CF043C02CEAF6
:1036600035EC47E257E3C301B2010E940A33181652
:10367000CCF1AB89B4E0AB0250011124D12CC12CA8
:10368000EB89EF3F79F17501EC0CFD1CF701E65B6E
:10369000FE4FA301920160817181828193810E941A
:1036A000E43418167CF4F701E457FE4F2081318191
:1036B00042815381C301B2010E9470332B013C014E
:1036C000201A310A15950795FB89F150FB8B84E090
:1036D000C81AD108D5CF00E210E095E09B8B312CC1
:1036E000212CB3CFC301B2010E94B5346B8B7C8B0C
:1036F0008D8B9E8B6B017C0116E080E492E4AFE041
:10370000B0E08F8B988FA98FBA8F012F11509AE05C
:10371000C916D104E104F104C8F06F89788D898D50
:103720009A8D2AE030E040E050E00E94FD342F8B7B
:10373000388F498F5A8FC701B6012AE030E040E048
:1037400050E00E94FD3469017A01DFCF6B897C89EA
:103750008D899E890E940F339B01AC01C301B20188
:103760000E9448346B017C016F89788D898D9A8D18
:103770000E940F339B01AC01C701B6010E94703358
:103780002B013C010E94B5346B017C010E940F3378
:103790009B01AC01C301B2010E9448349B01AC0102
:1037A0000E9449340E94B534C60ED71EE81EF91E89
:1037B0008F89988DA98DBA8DC816D906EA06FB06A1
:1037C00000F18B899C89AD89BE890196A11DB11D2F
:1037D0008B8B9C8BAD8BBE8B2114310439F10A97F6
:1037E000A105B10518F19FEF291A390AC12CD12C76
:1037F000760181E090E0A0E0B0E08B8B9C8BAD8BFC
:10380000BE8B9AE0492E512C612C712CC701B60158
:10381000A30192010E94FD34672B682B692B51F4A0
:10382000101644F469017A010150F0CFC12CD12C5B
:103830007601E7CF4B895C896D897E89C4010E943E
:10384000B913002309F43FC05E0191E1A90EB11C38
:10385000102FBA8AA98A8AE0482E512C612C712C2B
:10386000115068F0C701B601A30192010E94FD3416
:10387000605DD5016E935D0169017A01F1CF802F02
:1038800090E0BC0160957095E989FA89E81BF90B15
:1038900031978EE2808344275527461B570BE1E181
:1038A000F0E0EC0FFD1F6E0F7F1FC4010E94761326
:1038B000D40112962D913C911397820F931F13966A
:1038C0009C938E93129737FE25C060EF71E0C40180
:1038D0000E94321A6627772762197309C4010E9471
:1038E00080136A960FB6F894DEBF0FBECDBFDF918E
:1038F000CF911F910F91FF90EF90DF90CF90BF90ED
:10390000AF909F908F907F906F905F904F903F907F
:103910002F9008952114310421F365E6C4010E941B
:103920006113B101DBCF6DE5C4010E946113D9CFF2
:103930006BE7C4010E946113D8010D911C91011520
:103940001105C9F0F80166817781C4010E940C1449
:103950006AE3C4010E946113B401C8010E94481ABD
:10396000C8010E94AC188C01892B29F06CE2C401BB
:103970000E946113E4CF6DE7D7CF6D917C91C401B4
:103980000E940C14AECFF801C080D180E280F38099
:103990006DE2C4010E946113B701A601C4010E9437
:1039A000B9139FCF4D915D916D917C91F7CFF80147
:1039B00080819181A281B38163EF71E0892B8A2B91
:1039C0008B2B11F468EF71E0C4010E94321A89CF89
:1039D000CF93DF9300D000D0CDB7DEB77A83698371
:1039E0001C821B82BE016F5F7F4F09960E94481A9E
:1039F0008B819C810F900F900F900F90DF91CF9152
:103A000008953F924F925F926F927F928F929F9212
:103A1000AF92BF92CF92DF92EF92FF920F931F93DC
:103A2000CF93DF93CDB7DEB72B970FB6F894DEBFF9
:103A30000FBECDBF7C01FE013196CE010C966F0109
:103A400030E231938E179F07E1F7DA0130E087E02B
:103A50009D91B92E992309F43CC09E32F1F48A302D
:103A6000C9F480E02B960FB6F894DEBF0FBECDBF31
:103A7000DF91CF911F910F91FF90EF90DF90CF904A
:103A8000BF90AF909F908F907F906F905F904F907E
:103A90003F90089538E08AE0DBCFECE2F1E044911A
:103AA000442321F031969413FACFDBCF8317C8F269
:103AB0004FED490F4E35A8F64FE9490F4A3118F43A
:103AC00040EEB42EB90EF601E30FF11DB0823F5F58
:103AD000BFCF8981803229F2322E8B01DB015B96C8
:103AE0008D919C915C97F701948F838F16961D9210
:103AF0001D921D921C921997FB0112861386148643
:103B00001586F80182859385A485B58543895489F6
:103B10006589768984179507A607B70708F04DC011
:103B200025E0B695A795979587952A95D1F7F82F13
:103B3000FF70AF2ED80115968C91823008F491CF8A
:103B4000C8010E94611097FD8CCFF8018285938592
:103B5000A485B5854F96A11DB11D82879387A48743
:103B6000B587F0E2AF9EB0011124695A7D4F61150F
:103B7000710509F476CFDB018C91882341F0853EF5
:103B800009F058C0BB2029F0BB24B394BACFB110C0
:103B90000EC0F701A28A8091000190910101A091CD
:103BA0000201B091030186879787A08BB18BDB015F
:103BB0008C918111E9CFBB24B394832D8271823122
:103BC00009F04FCFBB2009F443C0C7010E94C509CB
:103BD000009709F446CF20E2FC0111922A95E9F7FB
:103BE0002BE0F601DC0101900D922A95E1F721E22C
:103BF00038E2DC0151963C932E93509740E058E018
:103C00001F965C934E931E9753963C932E93529718
:103C100059963C932E93589757965C934E9356978C
:103C200081E00E945009882309F41BCF432DF7013E
:103C300062890AC04BE050E0C6010E945E36892BC3
:103C400009F05FCF432D6A2DC7010E94A7190ACF43
:103C5000F8018581823009F404CFC8010E94540C18
:103C6000882309F4FECED8015B96ED91FC915C9718
:103C700016968D909D90AD90BC901997B2E08B1ADE
:103C80009108A108B108858504C0880C991CAA1C5C
:103C9000BB1C8A95D2F786859785A089B189880E45
:103CA000991EAA1EBB1E848124013501480E511C99
:103CB000611C711C481459046A047B0409F1E1E099
:103CC0004E1A51086108710881E00E94500988234A
:103CD00009F4C7CEE7E5F2E0119287E594E08E178C
:103CE0009F07D1F7409200015092010160920201BA
:103CF0007092030180912E02816080932E02DACFB0
:103D0000D8015B96ED91FC91258580E092E0A0E0E2
:103D1000B0E004C0880F991FAA1FBB1F2A95D2F7D5
:103D2000F8014389548965897689840F951FA61FF8
:103D3000B71F838B948BA58BB68BD70152961C92A1
:103D400087E592E048CFCF93DF93EC01898D9A8D80
:103D5000009741F00E94EC0D898D9A8D0E94D53517
:103D60001A8E198EDF91CF910895FC018181928185
:103D7000009711F00C94D5350895EF92FF920F93B0
:103D80001F93CF93DF93EC017B018A011B821A8280
:103D900088EE93E0A0E0B0E08C839D83AE83BF8388
:103DA00086E691E0998388838DE190E00E94393521
:103DB0009A8F898F009779F02DE1F701DC0101904E
:103DC0000D922A95E1F74CE050E0B801CE010C9637
:103DD0000E947F36188EDF91CF911F910F91FF9037
:103DE000EF9008952F923F924F925F926F927F9241
:103DF0008F929F92AF92BF92CF92DF92EF92FF92FB
:103E00000F931F93CF93DF93CDB7DEB7C756D1097A
:103E10000FB6F894DEBF0FBECDBF6C015B01A69656
:103E20004FAFA69719A218A28AEB91E09F8F8E8FB1
:103E30001BA21C821B829A8389831E824E018EE103
:103E4000880E911CC4010E946C0B75018E010F5FDE
:103E50001F4F240118016FE270E0C7010E946B360A
:103E6000009709F45DC0F70120812F3271F4FFEF54
:103E7000EF1AFF0A902F812F8201492E582E942D80
:103E8000852D2801092F182FE6CF8E198D3008F0C7
:103E90008CE0682E712CA301B701CE01885A9F4F88
:103EA0000E947F36E8E5F0E0EC0FFD1FE60DF71D00
:103EB0001082C8010E94EC0DF8018581882301F170
:103EC0001EAE1DAE8AEB91E09CAF8BAF21961FAE6C
:103ED0002197A896EEADFFADA897AE0EBF1EF501D7
:103EE000808181112AC0BE01655C7F4FC1010E94A3
:103EF000A50F4EEF51E0B101C6010E94BD1E3BC0AF
:103F000021E0AE01485A5F4FB201C8010E94011D75
:103F10008823B1F2E60CF71CC2010E94EC0DAFCF72
:103F2000C7018A199B09A8969FAF8EAFA897B201C7
:103F3000CE01CB960E94A50FCCCF19A218A28AEB76
:103F400091E09F8F8E8F1BA221968FAD21978111BB
:103F50002DC0F6011382128288EE93E0A0E0B0E05B
:103F600084839583A683B78386E691E091838083DB
:103F7000128E118E1486C601C959DF4F0FB6F89400
:103F8000DEBF0FBECDBFDF91CF911F910F91FF908C
:103F9000EF90DF90CF90BF90AF909F908F907F90E9
:103FA0006F905F904F903F902F900895A6962FAD01
:103FB000A697A501BE01655C7F4FC4010E94011D4B
:103FC000882339F2CE01CB960E94EC0DA6968FADD8
:103FD000A6978670863039F449A95AA96BA97CA99D
:103FE000C4010E94C00BB401C1010E94A50FA5012C
:103FF00082CF0F931F93CF93DF938B01EC01892B1B
:10400000A1F06E817F816017710779F001151105AC
:1040100041F06115710529F0C8010E947636892B9F
:1040200021F0CE010E94AC18E9CFCE01DF91CF91F3
:104030001F910F9108956F927F928F929F92AF92EE
:10404000BF92CF92DF92EF92FF920F931F93CF9385
:10405000DF9300D000D01F92CDB7DEB78C017B017B
:10406000C42E0E94E914D82E811102C0D12C8CC11B
:10407000C8010E949014873209F447C124F58232A6
:1040800009F443C1C8010E949014982E5801FCE025
:10409000AF0EB11CC12C7A2C8B2C892D0E943914A7
:1040A000882309F486C18FE3C81609F482C1D801B8
:1040B00019961C92C394F50191925F01C8010E9468
:1040C0009014982EEACF8B3509F461C08B37D1F666
:1040D000F701848180788062848311821082138248
:1040E0001282CC2009F465C0D80119961C92C8012F
:1040F0000E94E914882309F4B9CF6DE7C8010E9432
:10410000D814811141C1CA94D8011A96ED91FC913D
:104110001B978281938111969C938E9384819581C4
:1041200022813381821B930B15969C938E93149757
:1041300013961C921E921297C8010E949014873207
:1041400009F47DC0823209F47AC0C8010E9490143B
:10415000B82E0E943914882309F46BC0F801118627
:104160006B2DC8010E945817C8010E949014B82EE8
:104170000E9439148111F2CF60E0C8010E945817E3
:10418000D8018D919C91892B09F05FC032C0D70175
:1041900014968C9114978078806414968C9314975D
:1041A00011961C921E9213961C921E921297C11089
:1041B00008C0F801E45BFF4F85E090E091838083C5
:1041C00055CFF8011186C8010E94E914882309F42B
:1041D0004DCF6DE5C8010E94D8148111D5C0CA9495
:1041E000D8011A966D917C91C7010E9462180097C0
:1041F00031F4F801E45BFF4F83E090E0DFCF4C2D1A
:10420000BC01C8010E941B20882309F42FCFC801DC
:104210000E94E914882309F429CF6DE5C8010E94A2
:10422000D8148111B1C06CE2C8010E94D814811168
:10423000D7CFF801E45BFF4F82E090E0BFCFC80129
:104240000E947117882309F411CFC8010E94E91454
:10425000882309F40BCF6AE3C8010E94D81488238D
:1042600041F3F80160817181D7018D919C910E9489
:10427000F91FBC01892B49F5F80162847384D301CD
:1042800012968D909C90B401C3010E946D155C0143
:10429000892B59F4F80182819381880D991DD301EE
:1042A00013969C938E9312975401F801628573853F
:1042B000C7010E946218FC01892B09F49ACF8481FE
:1042C00080688483B782A682BF014C2DC8010E94FA
:1042D0001B20882309F4CACEC8010E94E914882350
:1042E00009F4C4CE6DE7C8010E94D81481114CC0F6
:1042F0006CE2C8010E94D814882309F49ACFC8013F
:104300000E94E914811100CFB1CED8011A96ED9127
:10431000FC911B978281938111969C938E9384814B
:10432000958122813381821B930B15969C938E93EA
:10433000149713961C921E921297C8010E9471172F
:10434000D82E882309F492CEF80182849384D40174
:104350001296AD90BC90B501C4010E946D159C01F0
:10436000892B59F4F801828193818A0D9B1DD40118
:1043700013969C938E9312979501F70194819078F0
:1043800095609483318320838D2D0F900F900F9033
:104390000F900F90DF91CF911F910F91FF90EF90B1
:1043A000DF90CF90BF90AF909F908F907F906F9055
:1043B0000895F801EC0DF11D1486D8011C968C911E
:1043C0008437B1F4F701848180788660848381E04A
:1043D00090E0A0E0B0E080839183A283B383F4E017
:1043E000CF1691F2F801E45BFF4F81E090E0E6CE5A
:1043F000863679F4D70114968C911497807886606C
:1044000014968C93F7011082118212821382F5E0C8
:10441000E7CF8E3621F484E0C812E4CFB5CF1D82F9
:10442000BE016F5F7F4F872D982D0E94A3018D8164
:104430008A3081F08C3001F1883009F0FACE498160
:104440005A816B817C81D70114968C911497807866
:1044500088600AC049815A816B817C81D70114969A
:104460008C91149780788A6014968C93F70140831E
:1044700051836283738388CF49815A816B817C81A8
:10448000D70114968C91149780788C6014968C9335
:10449000F701408351836283738376CF7F928F923B
:1044A0009F92AF92BF92CF92DF92EF92FF920F93C3
:1044B0001F93CF93DF9300D000D01F92CDB7DEB70C
:1044C0008C017B01C42E0E947214D82E811102C06F
:1044D000D12C44C1C8010E945114873209F421C172
:1044E00024F5823209F41DC1C8010E945114982E8E
:1044F0005801BAE0AB0EB11CC12C7A2C8B2C892D43
:104500000E943914882309F43DC1EFE3CE1609F463
:1045100039C1D80117961C92C394F50191925F019D
:10452000C8010E945114982EEACF8B3509F453C06C
:104530008B37D1F6F7018481807880628483118281
:10454000108213821282CC2009F457C0D80117962A
:104550001C92C8010E947214882309F4B9CF6DE738
:10456000C8010E9461148111F9C0CA94F8018081C8
:10457000918193838283C8010E945114873209F488
:1045800082C0823209F47FC0C8010E945114B82E43
:104590000E943914882309F470C0D80117961C9220
:1045A0001797ED91FC911197CF0101968D939C93F4
:1045B000B082C8010E945114B82E0E943914811192
:1045C000ECCFD801ED91FC911197CF0101968D931D
:1045D0009C9310825EC0D70114968C9114978078BA
:1045E000806414968C93149711961C921E921396C5
:1045F0001C921E921297C11008C0F801E65BFF4F93
:1046000085E090E09183808363CFF8011782C80131
:104610000E947214882309F45BCF6DE5C8010E94E3
:10462000611481119BC0CA94D80118966D917C9138
:10463000C7010E946218009731F4F801E65BFF4F52
:1046400083E090E0DFCF4C2DBC01C8010E944E22D8
:10465000882309F43DCFC8010E947214882309F40D
:1046600037CF6DE5C8010E946114811177C06CE2FB
:10467000C8010E9461148111D7CFF801E65BFF4F9A
:1046800082E090E0BFCFC8010E947416882309F42D
:104690001FCFC8010E947214882309F419CF6AE35E
:1046A000C8010E946114882341F3F801A280B380FD
:1046B000B501D7018D919C910E94F91FBC01892BF6
:1046C00081F4F80160857185C7010E946218FC01C0
:1046D000892B09F4B2CF84818F778483B782A68235
:1046E000BF014C2DC8010E944E22882309F4F0CE50
:1046F000C8010E947214882309F4EACE6DE7C8014C
:104700000E94611481112AC06CE2C8010E946114E8
:10471000882309F4B2CFC8010E947214811126CFF8
:10472000D7CED8018D919C91119713969C938E931F
:104730001297C8010E947416D82E882309F4C8CE97
:10474000F80122813381D70114968C9114978078D7
:10475000846014968C9314972D933C938D2D0F9019
:104760000F900F900F900F90DF91CF911F910F91AD
:10477000FF90EF90DF90CF90BF90AF909F908F9081
:104780007F900895F801EC0DF11D1286D8011A965C
:104790008C918437B1F4F7018481807886608483BA
:1047A00081E090E0A0E0B0E080839183A283B383B6
:1047B000F4E0CF1699F2F801E65BFF4F81E090E05C
:1047C00021CF863679F4D70114968C91149780788E
:1047D000866014968C93F7011082118212821382E4
:1047E000F5E0E7CF8E3621F484E0C812E4CFB6CFEF
:1047F0001D82BE016F5F7F4F872D982D0E94A30100
:104800008D818A3081F08C3001F1883009F035CF0C
:1048100049815A816B817C81D70114968C911497C0
:10482000807888600AC049815A816B817C81D70178
:1048300014968C91149780788A6014968C93F70163
:10484000408351836283738389CF49815A816B810D
:104850007C81D70114968C91149780788C60149683
:104860008C93F701408351836283738377CFFC017C
:10487000248125FF04C0808191810C94F91F90E070
:1048800080E008958F929F92AF92BF92CF92DF9275
:10489000EF92FF92CF93FC01C62F808191816281BC
:1048A000738108960E943724FC01892B41F0948182
:1048B0009F779830A1F130F4963009F445C090E02C
:1048C00080E023C09A3009F44FC09C30C1F7C0800B
:1048D000D180E280F3806C2F70E090E080E00E9455
:1048E0000F334B015C01AC019B01C701B6010E9473
:1048F0000A3387FD39C0A5019401C701B6010E94A2
:10490000E4341816F4F081E090E0CF91FF90EF903E
:10491000DF90CF90BF90AF909F908F90089540818F
:104920005181628173818C2F90E0B0E0A0E0481744
:1049300059076A077B07C0F084179507A607B707D2
:1049400010F782E090E0E1CF41E050E060E070E0FD
:1049500080819181A281B381892B8A2B8B2B19F7BE
:1049600040E050E0BA01DFCF84E090E0CECFEF929C
:10497000FF920F931F93CF93DF93EC018C81982FBD
:104980009F7739F4807880628C83198218821B8229
:104990001A828C8185FF1EC061157105D9F07A01DC
:1049A0008B01888199810E94F91F009761F4B701FA
:1049B000CE010E946218009731F0FC0124812F770C
:1049C000248317830683DF91CF911F910F91FF906E
:1049D000EF90089590E080E0F6CF7F928F929F92C3
:1049E000AF92BF92CF92DF92EF92FF920F931F93FD
:1049F000CF93DF9300D000D0CDB7DEB76C016091CC
:104A0000390570913A050E94131A10913F01760101
:104A10008FEFE81AF80A5601A9E0AA0EB11CA70107
:104A200060E072E0C5010E94B724FC01892B61F0AF
:104A30009481907898609483812F90E0B0E0A0E01A
:104A400080839183A283B38310913A01A7016BE025
:104A500072E0C5010E94B724FC01892B61F09481AA
:104A6000907898609483812F90E0B0E0A0E08083FC
:104A70009183A283B383A70164E172E0C5010E9420
:104A8000B7248C01009749F0FC0184818078806410
:104A90008483118210821382128286ED882E85E033
:104AA000982E95E1792E01151105A1F0B701C801E5
:104AB0000E946218FC01892B69F0D4014C9150E0EE
:104AC00070E060E094819078986094834083518393
:104AD000628373837A94BBE08B0E911C7110E3CFD9
:104AE000FA82E9828BE092E09C838B836091D5050A
:104AF000CE0101960E944224019759F06BE072E0CA
:104B0000C5010E9437240E9407158093D5050E9495
:104B10009C25C6010F900F900F900F90DF91CF91C1
:104B20001F910F91FF90EF90DF90CF90BF90AF90CB
:104B30009F908F907F9008959F92AF92BF92CF9257
:104B4000DF92EF92FF920F931F93CF93DF93CDB736
:104B5000DEB7C456D1090FB6F894DEBF0FBECDBF85
:104B6000C090D305D090D4051EAE1DAE8AEB91E067
:104B70009CAF8BAF21961FAE219719A218A29F8FD1
:104B80008E8F1BA2A12C912C7E018BE3E80EF11CD1
:104B900003ED14E08A2D992DF601E80FF91F20810D
:104BA0002F3209F40196D601A80FB91FFE01E85A69
:104BB000FF4F30E020E0AF016D916F3249F0662386
:104BC00039F001962F5F3F4F61932C303105A1F7EB
:104BD000240F351FF9011082F601E80FF91F20811B
:104BE0002F3209F40196A82E992E8C0D9D1DFC01E3
:104BF000808181112AC01C821B828AEB91E09A83FA
:104C000089831E8222E0B801CE0101960E94011D17
:104C1000882399F0CE0101960E941419882369F027
:104C2000CE0101960E94C509009739F025EEFC01DE
:104C300020831E8281E00E945009F4E0033D1F079B
:104C4000B9F0C8010E94EC0D13C0F70185818111F4
:104C500050C021E0B801C7010E94011DB82E84E0B8
:104C6000033D1807D9F1C8010E94EC0DB1103BC0FB
:104C70006091D3057091D40547E1CE0101960E9461
:104C8000F21EEA8DFB8D3097B1F08581882399F073
:104C9000CE014E960E94ED24BE016F5F7F4FCE0184
:104CA0004E960E94E81CCE014E960E94B51ECE0183
:104CB00001960E94A31ECC59DF4F0FB6F894DEBFB9
:104CC0000FBECDBFDF91CF911F910F91FF90EF905D
:104CD000DF90CF90BF90AF909F900895BB2041F29E
:104CE0008E01025E1F4F902F812F8701E92EF82E33
:104CF00051CF84E0033D180709F4BACFA2CF1F9229
:104D00000F920FB60F9211248F939F938091E10021
:104D10009091E100937F9093E10083FF0FC0109288
:104D2000E90091E09093EB001092EC0092E39093F5
:104D3000ED001092540298E09093F00082FF22C0A0
:104D400093E09093E9009091F200992319F09AE38F
:104D50009093E80090914D02992341F090914D027B
:104D6000915090934D02911101C05D989091530222
:104D7000992341F0909153029150909353029111D5
:104D800001C0289884FF18C08091E2008E7E816067
:104D90008093E2008091E1008F7E8093E10080911A
:104DA0004E028E7E806180934E029F918F910F9074
:104DB0000FBE0F901F90189580FFF7CF8091E200F3
:104DC0008E7E80618093E2008091E1008E7E8093F0
:104DD000E10080914E028E7E8160E5CF1F920F929E
:104DE0000FB60F921124CF92DF92EF92FF920F93A2
:104DF0001F932F933F934F935F936F937F938F9363
:104E00009F93AF93BF93EF93FF93CF93DF93CDB770
:104E1000DEB76C97DEBFCDBF1092E9008091E8004D
:104E200083FF25C068E0CE0145960E94700382EFA3
:104E30008093E8008D8987FF39C09091E80090FF4A
:104E4000FCCF982F907609F034C19E894F89588DF8
:104E50002F89F88C911131C0803861F580914F0213
:104E60008093F1001092F1008EEF8093E8006C9631
:104E70000FB6F894DEBF0FBECDBFDF91CF91FF918B
:104E8000EF91BF91AF919F918F917F916F915F91C2
:104E90004F913F912F911F910F91FF90EF90DF90D5
:104EA000CF900F900FBE0F901F9018959EEF90938C
:104EB000E800C7CF1092F100D5CF913059F481119D
:104EC000D3CF4130510581F680914F028D7F809381
:104ED0004F02CACF933049F48111C6CF41305105FA
:104EE00019F680914F028260F2CF953041F48091A3
:104EF000E80080FFFCCF20682093E300B5CF963018
:104F000009F0A9C00B8D1C8D22E01092E9001092CF
:104F10004B0210924A02F2122EC0109249021092D5
:104F200048020E94BE031F8299E09983FA8291E0B1
:104F30009E8390EA98879AEF998720914A02309150
:104F40004B02275F3F4F3C832B838D831092E900F8
:104F500010924B0210924A021093490200934802A9
:104F600049E050E0BE016F5F7F4F80E00E9439034F
:104F70000E94BE0379CF10934902009348020E9419
:104F8000AA03DC0112960D911C910115110509F47B
:104F900051C1D801ED91FC910480F581E02DBE0155
:104FA0006B5E7F4FC8010995009709F03EC1F8017B
:104FB00000851185EACFF3E0FF120EC08F898823A8
:104FC00009F440C0823061F440E86DE08DEC91E07E
:104FD0000E942D2A811148CF81E28093EB0047CFB8
:104FE000813029F440E86BE081EC91E0F1CF83302F
:104FF00099F70E94AA03DC011296ED90FC908E01B5
:105000000F5F1F4F6801E114F10479F0D701ED91B2
:10501000FC910680F781E02DB801C7010995080FC2
:10502000111DF701E084F184EECFD8011C92F60146
:1050300001900020E9F73197BF016C197D0940E02C
:10504000C601C6CF6BEA71E0FB01449150E080E8F5
:105050000E94390309CF973009F4BECF983021F46C
:1050600081E08093F10000CF993009F0FDCE83708C
:1050700009F0B2CFE6E1F1E081E031E096E3219181
:10508000222371F08093E9003093EB00DF01119748
:105090002C912093EC009093ED008F5F873079F78F
:1050A0008EE78093EA001092EA008F898093540281
:1050B000DBCE8B8D9C8D1092E90010924B021092EA
:1050C0004A029093490280934802898D811192C0CF
:1050D0008E899D89913A49F4813209F07DCF47E06C
:1050E00050E068E071E080E0B3CF913209F074CF16
:1050F000833269F48F89988DB0E0A0E08093040139
:1051000090930501A0930601B0930701ADCE8032C4
:1051100069F48091E80082FFFCCF67E088E091E0CD
:105120000E9470038BEF8093E8009ECE823209F0DC
:105130009BCE8F8980930F01EEEFFFE785919491CD
:105140008B3F9C4D51F1E0E0F8E080910801909197
:105150000901A0910A01B0910B01803B9440A10587
:10516000B105F1F480910F0180FD1AC0EE3F8AE095
:10517000F80789F587E797E791838083809160003E
:1051800080934C0288E19BE00FB6F894A895809339
:1051900060000FBE9093600067CEEEEFFAE0D5CFCF
:1051A000808191818737974709F05ECEA8958091DD
:1051B000600088618093600080914C028093600061
:1051C000EE3F2AE0F20789F08091FE0A9091FF0AF3
:1051D0009183808349CE808191818737980751F2EE
:1051E0009093FF0A8093FE0AC5CF1092FF0A109297
:1051F000FE0A3ACE0E94AA03DC0112960D911C9180
:105200000115110509F4E8CED801ED91FC9101904A
:10521000F081E02DBE016B5E7F4FC80109958111C1
:1052200023CEF80100851185EBCF181619060CF472
:105230001BCED2CEF1E0FF12BECE6FEA71E004CFFA
:105240001F920F920FB60F9211242F933F938F93BB
:105250009F93AF93BF938091340290913502A091B8
:105260003602B09137023091330223E0230F2D37FD
:1052700058F50196A11DB11D20933302809334028D
:1052800090933502A0933602B09337028091380292
:1052900090913902A0913A02B0913B020196A11D72
:1052A000B11D8093380290933902A0933A02B093D3
:1052B0003B02BF91AF919F918F913F912F910F90A2
:1052C0000FBE0F901F90189526E8230F0296A11D80
:1052D000B11DD2CF1F920F920FB60F9211242F93B0
:1052E0003F934F935F936F937F938F939F93AF936E
:1052F000BF93EF93FF93E0912401F091250109956D
:10530000FF91EF91BF91AF919F918F917F916F919D
:105310005F914F913F912F910F900FBE0F901F9073
:1053200018951F920F920FB60F9211242F933F934F
:105330004F935F936F937F938F939F93AF93BF939D
:10534000EF93FF93E0912201F09123010995FF91E2
:10535000EF91BF91AF919F918F917F916F915F91ED
:105360004F913F912F910F900FBE0F901F90189566
:105370001F920F920FB60F9211242F933F934F93CA
:105380005F936F937F938F939F93AF93BF93EF93AD
:10539000FF93E0912001F09121010995FF91EF9198
:1053A000BF91AF919F918F917F916F915F914F913D
:1053B0003F912F910F900FBE0F901F9018951F9245
:1053C0000F920FB60F9211242F933F934F935F9339
:1053D0006F937F938F939F93AF93BF93EF93FF93BD
:1053E000E0911E01F0911F010995FF91EF91BF918E
:1053F000AF919F918F917F916F915F914F913F916D
:105400002F910F900FBE0F901F9018951F920F9223
:105410000FB60F9211242F933F934F935F936F9387
:105420007F938F939F93AF93BF93EF93FF93E091FD
:105430001C01F0911D010995FF91EF91BF91AF9172
:105440009F918F917F916F915F914F913F912F919C
:105450000F900FBE0F901F901895EF92FF920F9331
:105460001F93CF93DF93F82E192FE62E042F81E0A0
:10547000860F880F0E940B0383E00E940B03CF2D41
:10548000D12FEC0EFD2EF11CCE15DF05B9F007FF74
:1054900013C0FE0184910E940B03182F80E00E942C
:1054A0000B03812321968111EFCFDF91CF911F91C3
:1054B0000F91FF90EF9008958881EDCF81E0F5CFB7
:1054C0008F929F92AF92BF92CF92DF92EF92FF9214
:1054D000CF9329EA34E03093560220935502882373
:1054E00009F46DC040E060E070E0CB010E947B09F0
:1054F00081110BC080E0CF91FF90EF90DF90CF90B3
:10550000BF90AF909F908F900895809115048F77F2
:1055100089F78091210490912204A0912304B091F5
:10552000240484369105A105B10520F3C0901D0423
:10553000D0901E04E0901F04F0902004C114D10408
:10554000E104F104B9F240E0C701B6010E947B0911
:10555000882381F2809162029091630281159240CA
:1055600049F6A0916702AA2329F260916502709121
:1055700066026115710509F4BDCF209164022223F2
:1055800009F4B8CFA093C7042093B90490E080E059
:1055900030E0E1E0F0E0C82FAF01082E02C0440F78
:1055A000551F0A94E2F72417350769F041E0480FC8
:1055B00001968930910579F74093C2049BCFC12CA5
:1055C000D12C7601C0CF8093C20420916D0230911E
:1055D0006E0250E040E02115310541F420917B023C
:1055E00030917C0240917D0250917E022093BA045A
:1055F0003093BB044093BC045093BD044601570153
:10560000860E971EA11CB11C8092C8049092C904FA
:10561000A092CA04B092CB04E0916802F0916902B2
:10562000F093CE04E093CD04B0E00E942E34DC0170
:10563000CB01880D991DAA1DBB1D8093CF049093AB
:10564000D004A093D104B093D20425E0EE0FFF1F45
:105650002A95E1F7E150FE4FEF2FFF27E6958E0FD9
:105660009F1FA11DB11D8093C3049093C404A093F8
:10567000C504B093C60480906A0290906B02B12C6E
:10568000A12C8114910441F48090770290907802CB
:10569000A0907902B0907A02C81AD90AEA0AFB0AE5
:1056A000C80CD91CEA1CFB1C04C0F694E794D794E0
:1056B000C794CA95D2F7C092BE04D092BF04E092BC
:1056C000C004F092C10485EFC8168FE0D806E1044B
:1056D000F10428F48CE08093CC0481E00CCF80E1CD
:1056E00025EFC2162FEFD206E104F104A0F380915A
:1056F000830290918402A0918502B09186028093EA
:10570000CF049093D004A093D104B093D20480E24C
:10571000E2CFCF93DF9310925A041092590488EE8F
:1057200093E0A0E0B0E080935B0490935C04A093CE
:105730005D04B0935E0488EA91E0909358048093EE
:1057400057048FEF9FEF909364048093630480E588
:105750008093A7041092A8041092AE041092AF0494
:105760001092B2041092B40482E090E0A0E0B0E0A5
:105770008093B5049093B604A093B704B093B80493
:105780001092CC041092D6041092D5048AEB91E0CA
:105790009093D4048093D3041092D80410921C05E3
:1057A00010921B0582ED91E090931A0580931905E4
:1057B00080911105811113C010920C0510920B05F8
:1057C00089EE91E090930E0580930D058FE290E0B5
:1057D0009093100580930F0581E0809311058091CF
:1057E000030581112AC0C1E0C093F604C093F704F9
:1057F0008CEF94E09093F9048093F8041092FB04EA
:105800001092FA0486EC91E09093F3048093F204F2
:105810001092FE041092FD04109200051092FF04F5
:10582000C0930105C093020581EC8093FC040E94A3
:10583000AA030E945D01C0930305E091FD04F0916D
:10584000FE04309709F0D4C18BE095E09093FE04FC
:105850008093FD048091FF049091000520910F0535
:1058600030911005820F931F909300058093FF04E1
:1058700080EF8093D60562E16093D7058CE390E0DA
:10588000A0E0B0E08093D8059093D905A093DA0505
:10589000B093DB051092E00521EF2093E10553E181
:1058A0005093E2058093E3059093E405A093E5050A
:1058B000B093E6051092EB0522EF2093EC0544E14E
:1058C0004093ED058093EE059093EF05A093F005CE
:1058D000B093F1051092F60523EF2093F70535E11B
:1058E0003093F8058093F9059093FA05A093FB0592
:1058F000B093FC051092010624EF2093020626E1E6
:10590000209303068093040690930506A093060651
:10591000B093070610920C0610920D0660930E06C7
:1059200080930F0690931006A0931106B093120671
:1059300010921706109218065093190680931A06B3
:1059400090931B06A0931C06B0931D06109222068E
:1059500010922306409324068093250690932606F2
:10596000A0932706B093280610922D0610922E06BB
:1059700030932F068093300690933106A093320621
:10598000B0933306109238061092390620933A06E7
:1059900080933B0690933C06A0933D06B0933E0651
:1059A0001092430610924406609345068093460683
:1059B00090934706A0934806B093490610924E066E
:1059C00010924F06509350068093510690935206C2
:1059D000A0935306B09354061092590610925A069B
:1059E00040935B0680935C0690935D06A0935E06F1
:1059F000B0935F06109264061092650630936606B7
:105A00008093670690936806A0936906B0936A0630
:105A100010926F06109270062093710680937206A2
:105A200090937306A0937406B093750610927A064D
:105A300027ED20937B0627E120937C0680937D064B
:105A400090937E06A0937F06B09380061092850601
:105A500038ED3093860620938706809388069093CE
:105A60008906A0938A06B0938B0610929006109236
:105A70009106209392068093930690939406A093A8
:105A80009506B093960610929B0610929C06209362
:105A90009D0680939E0690939F06A093A006B093C8
:105AA000A1061092A6061092A7062093A80680933E
:105AB000A9069093AA06A093AB06B093AC061092E9
:105AC000B1061092B2062093B3068093B406909369
:105AD000B506A093B606B093B7061092BC0688EE42
