:100000000C943F010C9421270C94FA260C94D326CF
:100010000C94AC260C9467010C9467010C94852613
:100020000C9467010C9467010C949A230C94092496
:100030000C9467010C9467010C9467010C946701A0
:100040000C9467010C9467010C9467010C94670190
:100050000C9467010C9467010C9467010C943B2687
:100060000C9467010C9467010C9467010C94670170
:100070000C9467010C9467010C9467010C94670160
:100080000C9467010C9467010C9467010C94670150
:100090000C9467010C9467010C9467010C94670140
:1000A0000C9467010C9467010C9467010000000038
:1000B000000000002A2B28000000000000000000C3
:1000C0000000000000000000000000002C9EB4A012
:1000D000A1A2A434A6A7A5AE362D3738271E1F200F
:1000E000212223242526B333B62EB7B89F848586D4
:1000F0008788898A8B8C8D8E8F9091929394959618
:100100009798999A9B9C9D2F3130A3AD3504050695
:100110000708090A0B0C0D0E0F10111213141516F7
:100120001718191A1B1C1DAFB1B0B5007C3C3E5E00
:100130002B3D3F2F5B5D3B2C2A225C000000000022
:10014000250028002B002E003100000000020009CD
:100150000F0000030401000C00000000000000007C
:10016000000000000000000000080B000202020076
:10017000000904000001020200000524001001052E
:10018000240101010424020605240600010705815B
:100190000310004009040100020A000000070502E4
:1001A0000240000007058302400000040309041216
:1001B000010002EF020140412337800001010203E8
:1001C0000141726475696E6F204C4C43004172644A
:1001D00075696E6F204D6963726F00000000002426
:1001E0000027002A002D0030004661696C656420FC
:1001F000746F20777269746520746F2066696C650E
:100200000005010906A1018502050719E029E71586
:1002100000250175019508810295017508810395F6
:10022000067508150025730507190029738100C09C
:1002300004080201104080401020408040800802E5
:100240000401804020100201108010204040200056
:100250000000002300260029002C002F00040404C5
:10026000040403040502020202040302020202065D
:10027000060606060604040202020404A428112449
:100280001FBECFEFDAE0DEBFCDBF25E0A6E3B2E0D0
:1002900001C01D92A73FB207E1F712E0A0E0B1E074
:1002A000E0EBF7E602C005900D92A633B107D9F74F
:1002B00011E0CFE3D1E004C02197FE010E94673234
:1002C000CE33D107C9F70E94BA2A0C94D6330C94C6
:1002D0000000CF93DF93FC01818190910005482FAE
:1002E000490F5527551F483051059CF5A281B38110
:1002F000109709F52CEF34E033832283208120937B
:10030000FE048093FF0480910105820F8083209179
:100310000205A22FB09103058A2F821B8917E8F4EA
:1003200081813D91C82FD0E0CB5EDE4F38838F5F57
:100330008183F2CFD90118962D913C9119972115FF
:100340003105C1F72CEF34E019963C932E931897A2
:10035000D5CF80E0DF91CF91089581E0FBCF4F9220
:100360005F926F927F928F929F92AF92BF92DF9235
:10037000EF92FF920F931F93CF93DF93EC018B01CA
:1003800088818B32C1F18D32B9F52196EE24E39448
:10039000888190ED980F9A3010F08E32E1F560E090
:1003A00070E0CB01FE012191A0ED8A2E820E39E092
:1003B000381520F16A3929E97207820729E1920785
:1003C000D0F5AAE0B0E09B01AC010E946F31912C06
:1003D000B12CA12C24013501409450946094709468
:1003E000461657066806790630F1680D791D8A1D94
:1003F0009B1DEF01D7CF2196E12CCACF21111BC045
:10040000F80160837183828393838AE0E11001C0E5
:1004100088E0F8018483DF91CF911F910F91FF90C5
:10042000EF90DF90BF90AF909F908F907F906F90F4
:100430005F904F900895F12CEAE08E2E912CA12C24
:10044000B12C61157105F0E88F07910540F0A50109
:1004500094010E944532CA01B901F394F2CFFE0122
:10046000299130ED320F3A3010F4F394F8CF2E3258
:10047000F1F4EF012196FE012196208150EDD52E59
:10048000D20E29E02D1598F06C3C3CEC73073CE053
:100490008307910580F7AAE0B0E09B01AC010E94C0
:1004A0006F316D0D711D811D911DFA94E4CF208176
:1004B0002F7DD0E0C0E0253409F04FC021812D32DE
:1004C000A9F53296BB24B394DF01D0E0C0E02F2D14
:1004D0000F2C000C330B4AE0A42EFD01DD9040ED03
:1004E0004D0D4A30A8F5AC9EA001AD9E500D1124D3
:1004F000CD2DDD0CDD0BE097C40FD51FAE01420FF3
:10050000531F473251054CF3BB20B9F080E090E017
:10051000A0E0B0E8E11003C080E090E0DC01F80169
:1005200080839183A283B3838CE074CF2B3219F044
:100530003196B12CC9CF3296FCCF80E090E0A0E894
:10054000BFEFE110ECCF80E090E0A0E8BFE7E7CF9D
:10055000BB2019F0D195C195D109208121115BCF24
:10056000CF0DD11DF7FCDA950E9450301C161D06E8
:10057000E4F4F12CC0FF0CC024E0F29EF001112441
:10058000EA56FE4F20813181428153810E94B13071
:10059000D595C795F394209769F7E1109058F80125
:1005A0006083718382839383BFCFD195C195D10935
:1005B000F12C209791F3C0FF0CC024E0F29EF001D3
:1005C0001124E258FE4F20813181428153810E94E3
:1005D000B130D595C795F394ECCFFC0180915E02C4
:1005E000882311F13FB7F89482E08093E9002091CD
:1005F000F200822F90E01816190614F481E090E0C2
:10060000882339F0289A44E640935D024091F10036
:100610004083222339F02091F200211103C02BE600
:100620002093E8003FBF08958FEF9FEF089508954E
:100630004091540250915502209152023091530240
:1006400042175307B4F49091E8009570E1F390914C
:10065000E80092FD19C08093F100809154029091BE
:10066000550201968F739927892B19F48EEF809389
:10067000E8008091540290915502019690935502A2
:100680008093540281E0089580E00895DF92EF9214
:10069000FF920F931F93CF93DF93D82E8A01EB0124
:1006A0007B01E40EF51ECE15DF0559F0D7FE12C012
:1006B000FE0184910E94180321968111F4CF0FEF5F
:1006C0001FEFC801DF91CF911F910F91FF90EF9025
:1006D000DF9008958881EECF2FB7F89487708093CC
:1006E000E9009091E800892F807295FF04C09091F5
:1006F000F20080E4891B2FBF0895615030F02091F3
:10070000F100FC0120830196F8CF289A84E68093BB
:100710005D020895AF92BF92CF92DF92EF92FF9267
:100720000F931F93CF93DF936C017B018B01040F19
:10073000151FEB015E01AE18BF08C017D10759F0B5
:100740006991D601ED91FC910190F081E02DC601F7
:100750000995892B79F7C501DF91CF911F910F91F1
:10076000FF90EF90DF90CF90BF90AF900895809171
:100770004A0281110DC082E08093460284E080939A
:100780004702109249021092480281E080934A0287
:1007900086E492E008950F931F93CF93DF931F9207
:1007A000CDB7DEB782E0898342E450E069E671E0CC
:1007B00080E80E9446030E94B703DC0112960D9167
:1007C0001C910115110589F0D801ED91FC91028071
:1007D000F381E02DBE016F5F7F4FC801099597FD42
:1007E00004C0F80100851185ECCF89810F90DF915D
:1007F000CF911F910F910895CF93DF931F92CDB7A3
:10080000DEB76983DC01ED91FC910280F381E02D7C
:1008100041E050E0BE016F5F7F4F09950F90DF917F
:10082000CF91089583E08093E9008091F2008823BE
:1008300019F08AE38093E800089583E00E946C0336
:1008400090E00895CF93DF931F92CDB7DEB7FC0100
:100850008485958597FD08C02FEF3FEF3587248766
:100860000F90DF91CF910895CE0101960E94ED0285
:10087000019719F4898190E0F3CF8FEF9FEFF0CFCC
:100880000F931F93CF93DF931F92CDB7DEB78C01E9
:10089000FC018485958597FF0BC0CE0101960E94CF
:1008A000ED02019771F4898190E0F80195878487C2
:1008B000F801848595850F90DF91CF911F910F915D
:1008C00008958FEF9FEFF1CFFC018485958597FD0B
:1008D0000BC09FB7F89482E08093E9008091F2000A
:1008E0009FBF90E0019608959FB7F89482E08093AF
:1008F000E9008091F2009FBF90E0089581508F3011
:1009000008F047C0E82FF0E0E857FB4F0C9467323F
:10091000A504A90497049D04A104C904C904C90439
:10092000AC04B204B604BA04C004C904C40480917F
:1009300080008F77809380000895809180008F7D64
:10094000F9CF80918000877FF5CF84B58F7784BD04
:10095000089584B58F7DFBCF809190008F77809331
:1009600090000895809190008F7DF9CF8091900044
:10097000877FF5CF8091C0008F778093C000089566
:100980008091C0008F7DF9CF8091C200877F8093D6
:10099000C2000895CF93DF93282F30E0F901E65B82
:1009A000FE4F8491F901E05DFD4FD491F901E35AC6
:1009B000FD4FC491CC23A1F081110E947E04EC2F45
:1009C000F0E0EE0FFF1FE15BFD4FA591B491EC91BC
:1009D000ED2381E090E009F480E0DF91CF9108956C
:1009E00080E090E0FACF1F93CF93DF93282F30E081
:1009F000F901E65BFE4F8491F901E05DFD4FD49172
:100A0000F901E35AFD4FC491CC23A9F0162F8111AF
:100A10000E947E04EC2FF0E0EE0FFF1FE45CFE4F1F
:100A2000A591B4918FB7F894EC91111108C0D095AD
:100A3000DE23DC938FBFDF91CF911F910895DE2BD2
:100A4000F8CFCF93DF9390E0FC01E05DFD4F249160
:100A5000835A9D4FFC0184918823C9F090E0880F50
:100A6000991FFC01E552FE4FA591B491FC01E45C95
:100A7000FE4FC591D49161110DC09FB7F8948C9130
:100A8000209582238C938881282328839FBFDF9120
:100A9000CF910895623051F49FB7F8943C91822F22
:100AA000809583238C93E8812E2BEFCF8FB7F8941A
:100AB000EC912E2B2C938FBFEACF1F93CF93DF9314
:100AC000182FEB0161E00E942105209739F460E0C6
:100AD000812FDF91CF911F910C94F304CF3FD1056B
:100AE00011F461E0F5CFE12FF0E0E65BFE4FE49119
:100AF000E150EF3008F07FC0F0E0EF57FA4F0C9470
:100B00006732900598059D05A705B105FB05FB0516
:100B1000FB05BB05C505CF05D905E605FB05EE05BB
:100B200084B5806884BDC7BDDF91CF911F910895C2
:100B300084B5806284BDC8BDF7CF80918000806895
:100B400080938000D0938900C0938800EDCF80917E
:100B50008000806280938000D0938B00C0938A00D5
:100B6000E3CF80918000886080938000D0938D00D7
:100B7000C0938C00D9CF80919000806880939000C2
:100B8000D0939900C0939800CFCF8091900080625D
:100B900080939000D0939B00C0939A00C5CF809122
:100BA0009000886080939000D0939D00C0939C003B
:100BB000BBCF8091C00080688093C0008091C0004E
:100BC0008F7B8093C000C093CF00AECF8091C000D8
:100BD00080628093C000C093D000A6CF8091C200F5
:100BE00088608093C2008091C2008B7F8093C20096
:100BF000C093D20099CFC038D1050CF072CF67CF27
:100C00000F931F93CF93DF938C01C6E2D1E08881CD
:100C10002296B8010E945D0581E0C033D807B9F77C
:100C2000DF91CF911F910F9108953FB7F894809174
:100C3000420290914302A0914402B091450226B530
:100C4000A89B05C02F3F19F00196A11DB11D3FBF04
:100C5000BA2FA92F982F8827BC01CD01620F711DD3
:100C6000811D911D42E0660F771F881F991F4A95CD
:100C7000D1F708958F929F92AF92BF92CF92DF9259
:100C8000EF92FF924B015C010E9415066B017C0103
:100C90000E9415066C197D098E099F09683E7340F4
:100CA00081059105A8F321E0821A9108A108B108F5
:100CB00088EEC80E83E0D81EE11CF11C811491045B
:100CC000A104B10429F7FF90EF90DF90CF90BF907F
:100CD000AF909F908F9008957F928F929F92AF9246
:100CE000BF92CF92DF92EF92FF920F931F93CF9319
:100CF000DF93C82E8B017A0180915E02811110C0B2
:100D00008FEF9FEFDF91CF911F910F91FF90EF90A9
:100D1000DF90CF90BF90AF909F908F907F9008957D
:100D20008091580280FF05C08091E000826080932E
:100D3000E000CE2DDF2DD12C8AEFB82E8C2D8770C0
:100D4000982E8C2D8072882E8C2D8074782E9AE3AC
:100D5000A92E209719F4DD2009F452C08C2D0E9491
:100D60006C0381110AC0BA94BB2051F261E070E0BB
:100D700080E090E00E943A06ECCF8C171D0611F03F
:100D80000CF08C2F9FB7F8949092E9002091E80026
:100D900025FD02C09FBFDDCF282F30E0C21BD30B43
:100DA000882029F08150A0F01092F100FBCFF801CB
:100DB000C7FC0AC0815050F041914093F100FACF36
:100DC00044914093F10031968150D0F7020F131FE8
:100DD000DD2021F0A092E800D12CDCCF8091E8004A
:100DE00085FD07C0A092E800DD24D394209791F2FE
:100DF000F3CF209779F6772069F2A092E800CACF66
:100E00005D9A84E680935702C7017CCFEF92FF92F0
:100E10001F93CF93DF931F92CDB7DEB77C018091F4
:100E20000D0581112AC011E01093000510930105F2
:100E300086E095E0909303058093020510920505E6
:100E40001092040580ED91E09093FD048093FC04E2
:100E5000109208051092070510920A0510920905D4
:100E600010930B0510930C0581EC809306050E94EE
:100E7000B7030E94690110930D0582E0898341E068
:100E800050E0BE016F5F7F4F8091FF040E946C06AF
:100E900097FD08C08091FF0448E050E0B7018064EE
:100EA0000E946C060F90DF91CF911F91FF90EF9001
:100EB0000895CF93DF93EC0180910F01882331F0E7
:100EC00083E00E946C061816190634F081E090E069
:100ED0009B838A8380E090E0DF91CF91089542E088
:100EE00050E064EE71E081E694E00C9459072FB76E
:100EF000F89460913E0270913F028091400290917F
:100F000041022FBF089508958FB7F894809137025A
:100F10008FBF089561E0FC0184810E94F3048091F9
:100F2000360281111092360208958EBD00000DB474
:100F300007FEFDCF8EB508958FEF0C9495070F93A4
:100F40001F93CF93DF93EC010E9477078B010E94E0
:100F50009C078F3F69F00E947707601B710B6C172D
:100F60007D07A8F380E0DF91CF911F910F91089545
:100F700081E0F9CF8CBD9DBD0895CF93DF93EC0147
:100F800080913602811109C081E080933602809100
:100F9000B1049091B2040E94BA0760E08C81DF91A5
:100FA000CF910C94F3048F929F92AF92BF92FF92D5
:100FB0000F931F93CF93DF93EC01F62E49015A0153
:100FC0008E81882389F08F8198859C012F5F3F4F08
:100FD00038872F838230924018F40E949C07F3CF09
:100FE000CE010E948A071E82CE010E94BD078CE2BC
:100FF00091E00E949F078F2D80640E94950708E171
:1010000010E0D501C401002E04C0B695A7959795B0
:1010100087950A94D2F70E94950708501109083F56
:101020008FEF180771F785E9FF2021F028E087E8A6
:10103000F2128FEF0E94950710E00E949C078A87AA
:1010400087FF04C01F3F11F01F5FF7CFDF91CF91E3
:101050001F910F91FF90BF90AF909F908F90089538
:10106000AF92BF92CF92DF92EF92FF920F931F93B6
:10107000CF93DF93EC016901C801820F931F813088
:10108000924050F58E81882379F088819981AA81D8
:10109000BB8184179507A607B70731F48F81988520
:1010A000C816D90608F042C0488359836A837B83F7
:1010B0008B85833039F089E0440F551F661F771FF9
:1010C0008A95D1F79A01AB0161E1CE010E94D30765
:1010D000882389F083E08D83CE010E948A0780E017
:1010E000DF91CF911F910F91FF90EF90DF90CF9004
:1010F000BF90AF9008950E9477075B010E949C0704
:101100008A878F3F69F40E9477076A197B096D32DD
:101110007140A0F38FE08D83CE010E948A07DCCF5F
:101120008E3F89F418861F8281E08E838F81988597
:101130008C159D0550F40E949C078F81988501961F
:1011400098878F83F3CF8DE0E6CF6701E00EF11E25
:101150000E949C07F60181936F01EE15FF05C1F710
:101160008F819885080F191F18870F838985882319
:1011700019F001151240A0F08E81882389F08F812B
:1011800098859C012F5F3F4F38872F838230924094
:1011900018F40E949C07F3CFCE010E948A071E829A
:1011A00081E09ECFCF92DF92EF92FF920F93CF9389
:1011B000DF93EC01690182E141155105610571057B
:1011C00099F08B85833039F089E0440F551F661FF5
:1011D000771F8A95D1F79A01AB0168E1CE010E9491
:1011E000D307882319F084E08D832DC08EEF0E94F1
:1011F000950776018EEFD81AF70181917F010E9441
:101200009507EC14FD04C1F78FEF0E9495078FEF4F
:101210000E9495070E949C078A878F71853071F420
:10122000011116C0CE010E948A0781E0DF91CF91A3
:101230000F91FF90EF90DF90CF90089581E18D8323
:10124000CE010E948A07CE010E948A0780E0EECF7D
:1012500088E592E00E949F07811102C085E1C4CF1A
:1012600020E030E0A9016DE0CE010E94D307882381
:1012700011F084E1B9CF0E949C078111FACFD2CF3F
:101280000F934091390250913A0260913B02709164
:101290003C02411551056105710599F0082F21E6C1
:1012A00032E080915F02909160020E94D208882310
:1012B00049F01092390210923A0210923B021092B9
:1012C0003C0281E00F9108950F93CF93C82F809136
:1012D0003802811105C0C1E08C2FCF910F91089584
:1012E0004091000150910101609102017091030150
:1012F0000C2F21E632E080915F02909160020E9403
:10130000D208811102C0C0E0E7CFCC2321F381E0F5
:101310000E9440098823B9F310923802DDCF8F92E2
:101320009F92AF92BF92EF92FF920F931F93CF9332
:101330004B015C01C42F8091000190910101A091AB
:101340000201B091030188159905AA05BB0551F169
:1013500081E00E94640981110BC080E0CF911F9150
:101360000F91FF90EF90BF90AF909F908F90089556
:1013700081E6E82E82E0F82E00E012E030E020E086
:10138000B501A40180915F02909160020E94300833
:10139000882319F38092000190920101A09202012A
:1013A000B0920301409138024C2B4093380281E007
:1013B000D5CFCF93DF93EC016E857F85888999899E
:1013C00041E00E948F09882351F08A8920E2829FA0
:1013D000C00111248F599D4FDF91CF91089590E066
:1013E00080E0FACF4F925F926F927F928F929F929E
:1013F000AF92BF92CF92DF92EF92FF920F931F9323
:10140000CF93DF93EC01423051056105710590F4F3
:1014100080E0DF91CF911F910F91FF90EF90DF90CF
:10142000CF90BF90AF909F908F907F906F905F9084
:101430004F90089589859A85AB85BC850196A11D3D
:10144000B11D84179507A607B70710F3CB88DC8872
:10145000ED88FE888F89803109F042C0BB27A72F15
:10146000962F852F480159012A013B01C80ED91E2C
:10147000EA1EFB1E8091000190910101A0910201E2
:10148000B0910301C816D906EA06FB0699F58F89C3
:101490008031C1F5B301A201552766277727440F94
:1014A000551F4F595D4FFA01918280828091380219
:1014B0008160809338028A89823080F08D819E819C
:1014C000AF81B8858C0D9D1DAE1DBF1D8093390267
:1014D00090933A02A0933B02B0933C0281E099CFF3
:1014E000DB01CA01E7E0B695A79597958795EA9540
:1014F000D1F7B8CF40E0C701B6010E948F09811132
:10150000C6CF86CFB301A2014F775527662777272D
:10151000440F551F440F551F4F595D4FFA018082EC
:101520009182A282B382C2CF8F929F92AF92BF92DA
:10153000CF92DF92EF92FF920F931F93CF93DF939F
:10154000FC0181859285A385B4850196A11DB11DFD
:1015500084179507A607B70770F480E0DF91CF9155
:101560001F910F91FF90EF90DF90CF90BF90AF90C1
:101570009F908F90089583889488A588B6888789DE
:10158000803189F5BB27A72F962F852FE9016A01A6
:101590007B018F01BC01CD01680D791D8A1D9B1D4A
:1015A0008090000190900101A0900201B090030191
:1015B00086169706A806B90601F5F80187898031D5
:1015C00011F5DD24EE24FF24F601EE0FFF1FEF5985
:1015D000FD4F80819181B0E0A0E088839983AA8348
:1015E000BB8381E0BBCFDB01CA01C7E0B695A795FD
:1015F00097958795CA95D1F7C9CF40E00E948F098A
:101600008111DBCFAACFE894C7F8DD24EE24FF24B4
:10161000F601EE0FFF1FEE0FFF1FEF59FD4F808108
:101620009181A281B381BF70D8CF4F925F926F92A8
:101630007F92AF92BF92CF92DF92EF92FF920F9381
:101640001F93CF93DF9300D000D0CDB7DEB78C01CE
:1016500049835A836B837C835901C12CD12C760139
:10166000412C82E0582E612C712C49815A816B816A
:101670007C819E012F5F3F4FC8010E94940A8823FE
:1016800039F1F8018585A301920104C0220F331FAF
:10169000441F551F8A95D2F7DA01C901C80ED91E19
:1016A000EA1EFB1E49815A816B817C8187898031CA
:1016B00011F188EF9FEFAFEFBFE0481759076A07B6
:1016C0007B0798F2F501C082D182E282F38281E049
:1016D0000F900F900F900F90DF91CF911F910F916E
:1016E000FF90EF90DF90CF90BF90AF907F906F9082
:1016F0005F904F90089588EF9FEFA0E0B0E0DDCFBE
:10170000CF93DF93FC012581222321F080E0DF913C
:10171000CF910895EC018091D604803159F582E093
:101720008583178A108E118E128E8091D704909126
:10173000D804B0E0A0E025E0880F991FAA1FBB1FC6
:101740002A95D1F7838B948BA58BB68B8FEB94E086
:101750009C8F8B8F81E08C831E821F821886198656
:101760001A861B861C861D861E861F86188A198A65
:101770001A8ACDCF803251F683E085834091D90417
:101780005091DA046091DB047091DC04478B508F38
:10179000618F728F9F012D5E3F4F8FEB94E00E940F
:1017A000150B8111D3CFB2CF8F929F92AF92BF9280
:1017B000CF92DF92EF92FF920F931F93CF93DF931D
:1017C000EC018D8181110EC080E0DF91CF911F91DE
:1017D0000F91FF90EF90DF90CF90BF90AF909F90D0
:1017E0008F9008950B891C892D893E890417150750
:1017F0002607370748F34A015B01823031F48A86B5
:101800009B86AC86BD8681E0E0CF81149104A10463
:10181000B10449F41E821F82188619861A861B8617
:101820001C861D86F0CF0A851B852C853D85EB8D9A
:10183000FC8D858590E00996B901A80141505109B8
:1018400061097109082E04C07695679557954795EB
:101850000A94D2F775016401E1E0CE1AD108E108DB
:10186000F10804C0F694E794D794C7948A95D2F708
:10187000C416D506E606F70620F0012B022B032B33
:1018800011F58F89988DA98DBA8D8E839F83A88736
:10189000B9878E010A5F1F4FC114D104E104F1041E
:1018A00009F4ADCF4E815F816885798598018B8D74
:1018B0009C8D0E94940A91E0C91AD108E108F108B0
:1018C0008111EACF81CFC41AD50AE60AF70AE1CF1F
:1018D0003F924F925F926F927F928F929F92AF92C0
:1018E000BF92CF92DF92EF92FF920F931F93CF930D
:1018F000DF93CDB7DEB72C970FB6F894DEBF0FBEDF
:10190000CDBF5C01DC015B968D909C905C97169638
:101910004D905D906D907C90199741145104610435
:10192000710409F468C0BFEF4B1A5B0A6B0A7B0AAB
:10193000312CF40181859285A385B4859C01AD018C
:101940002F5F3F4F4F4F5F4F29873A874B875C8709
:10195000730162011D821E821F821886F401818537
:101960009285A385B4852D813E814F8158852817A6
:1019700039074A075B0708F056C089859A85AB8509
:10198000BC858C159D05AE05BF0550F482E0C82EC0
:10199000D12CE12CF12C92E0492E512C612C712C90
:1019A0009E012F5F3F4FB701A601C4010E94940A18
:1019B0008823C9F189819A81AB81BC81892B8A2BCB
:1019C0008B2B09F1260137019FEF491A590A690A41
:1019D000790A2D813E814F8158852F5F3F4F4F4FB0
:1019E0005F4F2D833E834F8358873FEFC31AD30A3F
:1019F000E30AF30AB3CFF401408051806280738020
:101A00003324339496CFC414D504E604F70409F7BD
:101A10000FEF1FEF2FEF3FE0B701A601C4010E94B7
:101A2000F209811119C080E02C960FB6F894DEBF40
:101A30000FBECDBFDF91CF911F910F91FF90EF901F
:101A4000DF90CF90BF90AF909F908F907F906F90DE
:101A50005F904F903F900895D50116964D915D91FE
:101A60006D917C911997411551056105710539F00A
:101A700097018601C4010E94F2098823A1F2D501D1
:101A80001696CD92DD92ED92FC921997332051F08B
:101A9000D701C6010196A11DB11DF4018083918378
:101AA000A283B383F5018789908DA18DB28D892B97
:101AB0008A2B8B2B39F48481C78AD08EE18EF28EEB
:101AC00080688483F50184818062848381E0ACCF67
:101AD0001F93CF93DF93FC012581222371F1162FF1
:101AE000EC01848187FF1EC0CF010E94D909FC014F
:101AF000892B19F18D81823040F48B899C89AD89C5
:101B0000BE89848F958FA68FB78F8F89988D938F7D
:101B1000828F8F89988DA98DBA8DB58BA48B8C817E
:101B20008F778C83111103C08C818F7E8C83812FE2
:101B3000DF91CF911F910C94640980E0DF91CF91E8
:101B40001F910895FF920F931F93CF93DF93EC01A2
:101B50008D81813041F090E080E0DF91CF911F9145
:101B60000F91FF9008958C8181FFF5CF82FD1BC0FE
:101B700000915F0210916002C8010E94BD070E949F
:101B80009C07F82EC8010E948A078FEFF812E3CF56
:101B90008C8185FF1BC060E0CE010E94680D8C81A6
:101BA0008F7D8C83D8CF4B895C896D897E898A85AE
:101BB0009B85AC85BD8584179507A607B707C1F23D
:101BC000CE010E94D40B8111D3CFC5CF40913902F1
:101BD00050913A0260913B0270913C02452B462B9A
:101BE000472B21F080E00E944009B5CF80618C83B3
:101BF0002A853B85317080E092E0821B930BADCF4C
:101C0000CF93DF93EC0161E00E94680D882311F00F
:101C10001D8281E0DF91CF9108952F923F924F92E4
:101C20005F926F927F928F929F92AF92BF92CF926C
:101C3000DF92EF92FF920F931F93CF93DF9300D029
:101C400000D01F92CDB7DEB77C015B01342E5D83DF
:101C5000DC0115968C911597813009F0CEC0149651
:101C60002C9021FECAC022FCB4C0C32CDD8022947B
:101C70007FE027222094B22DB1702B2ED7011A9627
:101C80004D915D916D917C911D97C114D10409F422
:101C900028C15B968D919C915C97FC0174807A942D
:101CA0008A019B0169E036952795179507956A95F6
:101CB000D1F770228A011170711020C00115110531
:101CC000E9F416964D915D916D917C9119974115AE
:101CD00051056105710509F099C057968D919D9147
:101CE0000D90BC91A02D0097A105B10509F0B0C0E1
:101CF000C7010E94680C882309F47FC080E092E04D
:101D0000801B910B46018C159D0508F44C01D701F1
:101D10005B964D915C915C9716968D919D910D907F
:101D2000BC91A02D0297A109B109FA01258504C033
:101D3000880F991FAA1FBB1F2A95D2F74685578582
:101D400060897189840F951FA61FB71F9C01AD0183
:101D5000270D311D411D511D29013A01811432E029
:101D6000930609F07BC08091000190910101A09140
:101D70000201B091030184159505A605B70559F434
:101D80008FEF9FEFDC018093000190930101A093FE
:101D90000201B0930301022D9501B301A2018091CC
:101DA0005F02909160020E94D208882331F19EEF79
:101DB000B91AC818D908F70182859385A485B58515
:101DC000880D991DA11DB11D82879387A487B587B2
:101DD00055CFF70143895489658976898285938532
:101DE000A485B585481759076A077B0709F43DCFD5
:101DF000C7010E94D40B811138CF81E090E0D70158
:101E000013969C938E93129780E007C09E012F5FDC
:101E10003F4F0E94940A811102C090E079C08981ED
:101E20009A81AB81BC81F701238D348DF90127891B
:101E300048EF5FEF60E070E0203121F048EF5FEFA6
:101E40006FEF7FE084179507A607B70708F050CF1C
:101E5000F70186839783A087B18750CF01151105BD
:101E600099F5D7011A964D915D916D917C911D97D1
:101E700053968D919D910D90BC91A02D48175907B7
:101E80006A077B0708F181E00E946409882309F44E
:101E9000B4CF409200015092010160920201709211
:101EA000030180913802816080933802C8018F5904
:101EB0009D4FD5019C01280D391DFC012E173F07B0
:101EC00059F04D914193FACF41E0C301B2010E9414
:101ED0008F098111EBCF91CF281B390BA20EB31EB6
:101EE00068CFF70183899489A589B68984179507F6
:101EF000A607B70738F48481438B548B658B768BA8
:101F000080688483F701848183FD1AC0832D9D81BD
:101F10000F900F900F900F900F90DF91CF911F9126
:101F20000F91FF90EF90DF90CF90BF90AF909F9078
:101F30008F907F906F905F904F903F902F9008957B
:101F400061E0C7010E94680D882309F456CFDECFF7
:101F5000CF93DF931F92CDB7DEB7698341E050E0A6
:101F6000BE016F5F7F4F0E940D0E0F90DF91CF91EA
:101F70000895FC01DB0112968D919C911397938338
:101F8000828384EC91E09183808314968C911497E2
:101F9000848315968C911597858316964D915D9146
:101FA0006D917C91199746835783608771871A9644
:101FB0004D915D916D917C911D9742875387648708
:101FC00075871E964D915D916D917C9151974687D5
:101FD0005787608B718B52968C915297828B539658
:101FE0004D915D916D917C915697438B548B658B90
:101FF000768B57964D915D916D917C915A97478B59
:10200000508F618F728F5B968D919C91948F838F8F
:102010000895FC01818D928D009719F061E00C9478
:10202000680D0895DC015996ED91FC913097B9F057
:1020300083899489A589B689428553856485758588
:10204000841B950BA60BB70B811520E89207A10501
:10205000B10538F08FEF9FE7A0E0B0E0089590E081
:1020600080E00895DC0159968D919C91009739F09C
:10207000DC01ED91FC910480F581E02D099490E064
:1020800080E00895CF93DF93EC01E98DFA8D3097CE
:1020900049F481E090E09B838A8390E080E0DF91C7
:1020A000CF91089513821282898D9A8D0E940D0E10
:1020B000E98DFA8D22813381232B59F7F0CFCF930D
:1020C000DF931F92CDB7DEB76983DC01ED91FC9100
:1020D0000280F381E02D41E050E0BE016F5F7F4F51
:1020E00009950F90DF91CF9108952F923F924F92D3
:1020F0005F926F927F928F929F92AF92BF92CF9298
:10210000DF92EF92FF920F931F93CF93DF9300D054
:102110001F92CDB7DEB7FC018581811118C08FEF0A
:102120009FEF0F900F900F90DF91CF911F910F9124
:10213000FF90EF90DF90CF90BF90AF909F908F90E7
:102140007F906F905F904F903F902F900895848183
:1021500080FFE5CF43895489658976898285938597
:10216000A485B585312C212C481759076A077B07B0
:1021700019F022242394312C6F012101CE01019604
:102180003C01DF011696BB83AA834114510409F474
:10219000C5C0F60142855385648575854A01F1E025
:1021A0009F22D6015B968D919C915C978A019B0141
:1021B000E9E03695279517950795EA95D1F7159695
:1021C000EC91E230E9F5FC01628D738D848D958D83
:1021D000600F711F821F931FA12C22E0B22EA8183E
:1021E000B9084A145B0408F45201F601248126FD63
:1021F00004C0A114F2E0BF0671F400910001109137
:1022000001012091020130910301061717072807E9
:10221000390709F05EC040E00E948F09882309F465
:102220007ECFC4018F599D4FD3019C012A0D3B1DC8
:10223000FC012E173F0709F46CC041914D93F9CF73
:10224000DC011496BC90BA94B0228114910479F404
:10225000B1100DC0452B462B472B69F5F601878938
:10226000908DA18DB28D86839783A087B187D6018B
:102270005B96ED91FC915C9716966D917D918D9199
:102280009C9119976250710981099109258504C0B3
:10229000660F771F881F991F2A95D2F70685178525
:1022A00020893189600F711F821F931F6B0D711D73
:1022B000811D911D91CFD60116964D915D916D9125
:1022C0007C9119972A813B810E94940A8111CFCF7A
:1022D00026CF730185019401AB01BC0180915F029F
:1022E000909160020E943008882309F418CF6A0C8C
:1022F0007B1CF60182859385A485B5858A0D9B1D7F
:10230000A11DB11D82879387A487B5874A185B08F2
:102310003CCF281B390B620E731EEBCF2A94232867
:1023200009F0FDCE898190E0FCCEFC01818D928D7B
:10233000009711F00C9475108FEF9FEF08950F9395
:102340001F93CF93DF93EC01898D9A8D10E000E00D
:10235000009799F00E9475108C010F3F100769F0EB
:10236000898D9A8DFC014285538564857585415020
:102370005109610971090E94D40BC801DF91CF9105
:102380001F910F910895DC01FB0112962C91129779
:10239000848195812817190641F491818081813AC1
:1023A00031F49D7F81E0913009F080E00895813221
:1023B000E1F79B3029F482811F968C9381E0089588
:1023C0009A3099F7828150968C93F8CFDC01FB010B
:1023D00088E4808389E4818384E482831D969C91D0
:1023E0001D979F709F5B93831D968D919C9124E018
:1023F000969587952A95E1F78F708F5B848385E0AA
:102400000895EF92FF920F931F93CF93DF93FB01F9
:102410002081213871F52381223259F5DC01129691
:102420004C91248135814217130619F5EC010B8577
:102430001C85F12CE12C0115110589F0F80144816E
:1024400055816281738180E80E9446038F3F98071F
:1024500049F0E80EF91ED8010D911C91ECCF81E0F6
:102460008F87C701DF91CF911F910F91FF90EF9060
:10247000089590E080E0F6CFCF93DF93CDB7DEB73D
:1024800069970FB6F894DEBF0FBECDBFFC01DB012C
:102490008C918F5F8C939E012D5F3F4F8DE0D90112
:1024A0001D928A95E9F729E0298384E08A8391E0E7
:1024B0009D8383E08E832A8721E22B879C879D87DB
:1024C0009F8722E2288B27E02B8B25E02C8B8E8B9D
:1024D00020E430E0388F2F8B998F82818B83958514
:1024E0008685998B8A8B838180688D8B49E150E04A
:1024F000BE016F5F7F4F80E00E94460369960FB672
:10250000F894DEBF0FBECDBFDF91CF910895CF927B
:10251000DF92EF92FF920F931F93CF93DF936C01A3
:10252000EB017B01E40EF51E10E000E0CE15DF05A7
:1025300081F069916D30D1F3D601ED91FC9101905C
:10254000F081E02DC6010995892B19F00F5F1F4F0F
:10255000EDCFC801DF91CF911F910F91FF90EF90C8
:10256000DF90CF900895DC016838A0F06858FD0135
:1025700086E0662321F09681961301C01682815071
:1025800031968111F6CFCD0104960E94060781E0B5
:1025900090E00895E62FF0E067FF12C0E058F109DF
:1025A00081E090E001C0880FEA95EAF780951496E3
:1025B0009C911497892314968C93149760E0D7CF3D
:1025C000E455FF4F6491662359F067FFD0CF14960E
:1025D0008C9114978D7F14968C9314976F77C7CF37
:1025E00090E080E00895DC01683888F1685816961C
:1025F0008C911697861721F117968C91179786174D
:10260000F9F018968C9118978617D1F019968C913D
:1026100019978617A9F01A968C911A97861781F048
:102620001B968C911B97861759F0FD01369690E00A
:1026300080E02191211139C08A0F9B1FFC01668324
:10264000CD0104960E94060781E090E00895E62FF0
:10265000F0E067FF11C0E058F10921E030E001C06F
:10266000220FEA95EAF714968C911497822B149610
:102670008C93149760E0BBCFE455FF4F64916111D8
:1026800009C081E090E013969C938E93129790E09E
:1026900080E0089567FFABCF14968C911497826009
:1026A00014968C9314976F77A2CF0196863091057C
:1026B00009F0BFCFE6CFEF92FF921F93CF93DF9346
:1026C000EC01162F0E94F3127C01612FCE010E94B3
:1026D000B312C7019927DF91CF911F91FF90EF901F
:1026E000089590E080E00895CF93DF93EC01888116
:1026F0009981DC01ED91FC910190F081E02D09952B
:102700002A813B81820F931F9B838A83DF91CF9124
:102710000895DC018D919C91DC01ED91FC9102808A
:10272000F381E02D0994EF92FF920F931F93CF93C3
:10273000DF93CDB7DEB766970FB6F894DEBF0FBE56
:10274000CDBF8C01CB01FE0177969F014AE0E42EBC
:10275000F12CB7010E943132805D8293CB0100974A
:10276000C1F7A9014E1B5F0BBF01C8010E9489136D
:10277000F80122813381820F931F938382836696AF
:102780000FB6F894DEBF0FBECDBFDF91CF911F9182
:102790000F91FF90EF9008958F929F92AF92BF920A
:1027A000CF92DF92EF92FF920F931F93CF93DF931D
:1027B000CDB7DEB766970FB6F894DEBF0FBECDBFBC
:1027C0007C018E01095E1F4F68018AE0882E912CE2
:1027D000A12CB12CCB01BA01A50194010E94453274
:1027E000942F852F605DF80162938F01A901692FF5
:1027F000782F411551056105710561F7A6014E1B42
:102800005F0BBF01C7010E948913F7012281338149
:10281000820F931F9383828366960FB6F894DEBF70
:102820000FBECDBFDF91CF911F910F91FF90EF9021
:10283000DF90CF90BF90AF909F908F900895EF92D0
:10284000FF920F931F93CF93DF93EC017B0162E222
:102850000E9474138701F80161918F01662391F042
:10286000E7EEF1E0F280FF2049F0329681816813B3
:10287000F9CF6CE5CE010E9474136F2DCE010E943A
:102880007413E9CF62E2CE01DF91CF911F910F91D6
:10289000FF90EF900C94741380339CF08A3324F0F3
:1028A0008F3524F08B3724F481E0089581344CF087
:1028B0008B35D4F393ED980F81E09230B0F380E044
:1028C00008958B32B9F7F0CFCF92DF92EF92FF925B
:1028D000CF93DF9300D000D01F92CDB7DEB7DC01DD
:1028E00014969C9114979F77963079F0FD0197305C
:1028F00028F4943080F570E060E020C09A3089F0D0
:102900009C3009F45FC09830B1F78D919D910D9086
:10291000BC91A02DBC0181159048A105B10570F0B6
:10292000EACF80819181A281B38166277727681BD6
:10293000790B81309048A105B105E8F6CB010F90E5
:102940000F900F900F900F90DF91CF91FF90EF902D
:10295000DF90CF900895808191811D82BE016F5FCD
:102960007F4F0E94AF018D818A3049F08C3061F039
:10297000883009F689819A81AB81BC81CBCF89816E
:102980009A81AB81BC81D1CFC980DA80EB80FC8099
:1029900020E030E040E057ECC701B6010E942C3245
:1029A00087FDA9CF20E03EEF4FEF56E4C701B60107
:1029B0000E944B3018160CF49ECFC701B6010E943E
:1029C000F631BCCFC080D180E280F380E1CFCF92DE
:1029D000DF92EF92FF920F931F93CF93DF93EC015F
:1029E0008985811130C00E811F810E947707D8012F
:1029F00018966D937D938D939C931B97D801ED91C1
:102A0000FC910284F385E02DC801099597FF25C04C
:102A10000E947707F801C084D184E284F3846C19A2
:102A20007D098E099F09C480D580E680F7806C15EA
:102A30007D058E059F0510F38FEF9FEF97FD80E0DA
:102A4000888781E089878885DF91CF911F910F91D9
:102A5000FF90EF90DF90CF9008959927EFCF1F93CD
:102A6000CF93DF93EC01162F0E94E714811306C069
:102A7000198681E0DF91CF911F91089580E0FACF10
:102A8000CF93DF93EC01CE010E94E7148B3034F436
:102A9000893044F4882341F081E00DC08D3011F07D
:102AA0008032D1F71986EFCFC45BDF4F81E090E031
:102AB0009983888380E0DF91CF910895CF93DF934E
:102AC000DC01ED91FC91119712962D913C91E2174A
:102AD000F307B8F4C62FD72FDF018991AD014F5FFF
:102AE0005F4F9C91891307C0DA018111F6CFCF01A6
:102AF000DF91CF910895FD018191DF018111FBCF1D
:102B0000E6CFF0E0E0E0F3CFAF92BF92DF92EF923A
:102B1000FF920F931F93CF93DF93EC0189810E9463
:102B2000CA047C018881882399F1DD24D394E114BF
:102B3000F10409F0D12C8A85D81651F10E9477074B
:102B40000E811F8128853985601B710B820B930BC9
:102B50000A811B812C813D81061717072807390739
:102B6000B8F400913A0110913B0187E10E94CA0438
:102B70005C01E114F104E9F4892BD9F489818231F3
:102B800089F401151105A9F010923B0110923A0148
:102B9000DF91CF911F910F91FF90EF90DF90BF9049
:102BA000AF900895833159F581E090E0013011052F
:102BB000C9F50E9477076E837F8388879987AB2842
:102BC00039F3688183E295E0E114F10409F045C02E
:102BD0000E94F312DA86EF28D9F601301105C1F60A
:102BE0008981843109F44BC0D8F5823109F442C09F
:102BF000833171F61092330110923201C9CF8431C2
:102C000051F402301105A9F282E090E090933B016B
:102C100080933A01BDCF8531B1F483E090E0033079
:102C2000110539F290933B0180933A018FEF90E0C8
:102C3000DF91CF911F910F91FF90EF90DF90BF90A8
:102C4000AF900C940006863109F0B3CF0430110523
:102C500009F4AFCF84E090E0E5CF0E94B312BACF81
:102C6000853191F0863109F093CF1092390110929D
:102C700038018ECF109231011092300189CF10921D
:102C800035011092340184CF109237011092360131
:102C90007FCFFC0180819181009799F0228133815F
:102CA000448155812417350718F011821082089548
:102CB000A9014F5F5F4F53834283820F931FFC0133
:102CC000608308959F92AF92BF92CF92DF92EF926E
:102CD000FF920F931F93CF93DF9300D000D01F92EA
:102CE000CDB7DEB78C010E94E714D82EF80111860B
:102CF000F12CE12C70EFC72EC8010E94E714F801F7
:102D00001186D81609F4C1C0811119C0F801E45B1D
:102D1000FF4F81E090E09183808380E00F900F90DF
:102D20000F900F900F90DF91CF911F910F91FF9017
:102D3000EF90DF90CF90BF90AF909F9008958C352B
:102D400009F09EC0C8010E94E7148823F9F2E7EE5B
:102D5000F1E0853709F088C0F801118664E0962E0D
:102D6000B12CA12CC8010E94E714882379F2813488
:102D70004CF48053803148F0F801E45BFF4F82E06F
:102D800090E0C9CF8F7D8753F5CF54E0AA0CBB1CD0
:102D90005A95E1F7A82AF80111869A949110E2CF8A
:102DA000C501985D8115944020F4750123E0F2225D
:102DB000A3CFC5019C5D8115944008F5F3E0BF22C7
:102DC000C701982F8827990F990F8A299B29B0E06E
:102DD000A0E01196198280389105A105B10598F4FB
:102DE0008A835E0123E0A20EB11CF50162915F01AE
:102DF000662309F481CFC8010E944916F6CFC501A8
:102E0000B0E0A0E0E7CF282F2F7320682A8336E0B8
:102E1000B695A795979587953A95D1F78032910504
:102E200038F4806C8B835E0184E0A80EB11CDDCF8A
:102E3000282F2F7320682B8326E0969587952A9557
:102E4000E1F78031910538F4806E8C835E01E5E016
:102E5000AE0EB11CCACF80688C83CD825E01F6E0D5
:102E6000AF0EB11CC2CF32969081992309F484CF62
:102E70008913F9CF8181882309F47ECFF801118667
:102E8000682FC8010E94491637CF60E0C8010E9430
:102E90004916F80180819181892B29F4E45BFF4F69
:102EA00083E090E038CF81E039CFCF93DF93DC012E
:102EB000EB01EC81FD818A819B810896E817F90777
:102EC00030F4F0E0E0E0CF01DF91CF910895389742
:102ED000FD83EC833097A9F31296CD91DC91139783
:102EE000209791F0CF018C1B9D0B23E09595879542
:102EF0002A95E1F78D831396FC93EE931297158232
:102F0000148217821682DFCF1196FC93EE93F3CFD3
:102F1000FC012581222339F0F8E02F0290011124D1
:102F2000820F931F089590E080E00895DC01ED91F9
:102F3000FD918081ED91FD919081ED91FD916C91DC
:102F400063708E2309F064609F2309F06860E3EBEF
:102F5000F7E1E60FF11D659565956D936D917D9196
:102F60008D919D91099423C01AC012C016C010C043
:102F70001EC009C014C013C006C019C009C00DC0CE
:102F800007C00DC014C062507040804090400BC01C
:102F9000615070408040904006C06E5F01C06F5F1E
:102FA0007F4F8F4F9F4F9E938E937E936E93089586
:102FB00080912F05909130050C94961780913105E2
:102FC000909132050C9496178091330590913405B9
:102FD0000C94961780913505909136050C949617B0
:102FE0008F929F92AF92BF92CF92DF92EF92FF9219
:102FF0000F931F93CF93DF9300D000D0CDB7DEB7F0
:10300000FC018581813091F080E00F900F900F904E
:103010000F90DF91CF911F910F91FF90EF90DF9074
:10302000CF90BF90AF909F908F900895848181FF43
:10303000EBCF83899489A589B689892B8A2B8B2B21
:1030400009F45FC07F0140E050E0BA01CF010E9467
:10305000D40B8823C9F2F701C38CD48C8788908C59
:10306000A18CB28C82E090E0A0E0B0E0F601808319
:103070009183A283B3839E012F5F3F4FB501A401CB
:10308000C6010E94940A882309F4BECF00E010E034
:103090009801B501A401C6010E94F209882309F430
:1030A000B3CF89809A80AB80BC80F601878980315C
:1030B00019F188EF9FEFAFEFBFE088169906AA06D7
:1030C000BB06C8F2F701178A108E118E128E138A72
:1030D000148A158A168A84818068848361E0C70116
:1030E0000E94680D882309F48FCF40E050E0BA01B8
:1030F000C7010E94D40B89CF88EF9FEFA0E0B0E01A
:10310000DCCF81E082CFCF92DF92EF92FF921F93CC
:10311000CF93DF93EC0180E2689FF0011124EF5917
:10312000FD4F9385917161F0842F827449F080E0A6
:10313000DF91CF911F91FF90EF90DF90CF90089596
:10314000142F6A8B8091000190910101A0910201DE
:10315000B09103018E879F87A88BB98BC488D588CF
:10316000F12CE12C7601DD24CC24CF8AD88EE98E97
:10317000FA8E828D938DB0E0A0E0AC01BD014C29A8
:103180005D296E297F294F8B588F698F7A8F8385B0
:103190008871B1F4848D958DA68DB78D8B8B9C8BAA
:1031A000AD8BBE8B81E08D831F701C831E821F82BE
:1031B000188619861A861B861C861D8681E0B8CF64
:1031C000803109F0B4CF9E012D5E3F4F8B8D9C8DD9
:1031D0000E94150B882309F4AACF84E0E4CF0F9353
:1031E0001F93CF93DF93EC018B01CB010E948132BF
:1031F000080F191F009711F410E000E09A838983EB
:103200009C838B831E830D8318870F838D85807825
:103210008D87DF91CF911F910F910895CF93DF9309
:10322000EC01FB0101900020E9F73197AF01461B4B
:10323000570B0E9489132A813B81820F931F9B8326
:103240008A83DF91CF9108952F923F924F925F92A0
:103250006F927F928F929F92AF92BF92CF92DF92A6
:10326000EF92FF920F931F93CF93DF93CDB7DEB70B
:103270006A970FB6F894DEBF0FBECDBF8C014B012D
:10328000DC0114968C9114978F77863009F46BC209
:10329000C8F4823000F1843008F04BC2F80142815A
:1032A000538160817181C4010E948913D4011296F7
:1032B0002D913C911397820F931F13969C938E939D
:1032C0001297EBC18C3051F148F4883009F446C2B2
:1032D0008A3009F434C268EF71E052C2803209F4D6
:1032E00003C28034C1F76BE5C4010E947413F80176
:1032F000008111810115110509F4F1C1B401C80162
:103300000E942419C8010E9488178C01892B09F496
:10331000E6C16CE2C4010E947413ECCFF801408056
:10332000518062807380A3019201C301B2010E94A7
:103330004B308111D0CF20E030E0A901C301B201B0
:103340000E944B30882379F0A3019201C301B2019E
:103350000E948A319B01AC01C301B2010E944B3033
:10336000882309F4B8CF20E030E0A901C301B201FD
:103370000E944B3087FF08C06DE2C4010E947413A5
:1033800077FA709477F8709420E836E948E15BE4C6
:10339000C301B2010E942C3287FD79C04EEAE42EAF
:1033A00041E0F42E5EE7C52E51E0D52E66E9A62E4B
:1033B00061E0B62E00E210E0312C212CD7015E91A5
:1033C0004E913E912E917D01C301B2010E942C329B
:1033D00087FD0DC0F6012489358946895789C301C7
:1033E000B2010E94B1302B013C01200E311E159517
:1033F0000795F4E0CF1AD108AE14BF04F9F68FEFA9
:103400008B8B20E030E0A901C301B2010E942C3275
:1034100018160CF043C02CEA35EC47E257E3C30121
:10342000B2010E944B301816CCF1AB89B4E0AB026C
:1034300050011124D12CC12CEB89EF3F79F175019A
:10344000EC0CFD1CF701EC5AFE4FA30192016081C8
:103450007181828193810E942C3218167CF4F701CD
:10346000EA56FE4F2081318142815381C301B2016E
:103470000E94B1302B013C01201A310A15950795A5
:10348000FB89F150FB8B84E0C81AD108D5CF00E24C
:1034900010E095E09B8B312C212CB3CFC301B201FE
:1034A0000E94FD316B8B7C8B8D8B9E8B6B017C0125
:1034B00016E080E492E4AFE0B0E08F8B988FA98FA4
:1034C000BA8F012F11509AE0C916D104E104F1041A
:1034D000C8F06F89788D898D9A8D2AE030E040E0C0
:1034E00050E00E9445322F8B388F498F5A8FC70189
:1034F000B6012AE030E040E050E00E944532690128
:103500007A01DFCF6B897C898D899E890E9450303A
:103510009B01AC01C301B2010E9489316B017C01A6
:103520006F89788D898D9A8D0E9450309B01AC01F6
:10353000C701B6010E94B1302B013C010E94FD3150
:103540006B017C010E9450309B01AC01C301B201B0
:103550000E9489319B01AC010E948A310E94FD3199
:10356000C60ED71EE81EF91E8F89988DA98DBA8DBB
:10357000C816D906EA06FB0600F18B899C89AD893D
:10358000BE890196A11DB11D8B8B9C8BAD8BBE8B13
:103590002114310439F10A97A105B10518F19FEF03
:1035A000291A390AC12CD12C760181E090E0A0E0E3
:1035B000B0E08B8B9C8BAD8BBE8B9AE0492E512C4F
:1035C000612C712CC701B601A30192010E94453202
:1035D000672B682B692B51F4101644F469017A01AA
:1035E0000150F0CFC12CD12C7601E7CF4B895C89FB
:1035F0006D897E89C4010E94CC13002309F43FC069
:103600005E0191E1A90EB11C102FBA8AA98A8AE045
:10361000482E512C612C712C115068F0C701B60155
:10362000A30192010E944532605DD5016E935D0158
:1036300069017A01F1CF802F90E0BC01609570950F
:10364000E989FA89E81BF90B31978EE280834427D8
:103650005527461B570BE1E1F0E0EC0FFD1F6E0F05
:103660007F1FC4010E948913D40112962D913C91B1
:103670001397820F931F13969C938E93129737FE86
:1036800025C06DEF71E0C4010E940E1966277727EF
:1036900062197309C4010E9493136A960FB6F894D5
:1036A000DEBF0FBECDBFDF91CF911F910F91FF9075
:1036B000EF90DF90CF90BF90AF909F908F907F90D2
:1036C0006F905F904F903F902F9008952114310498
:1036D00021F365E6C4010E947413B101DBCF6DE5EF
:1036E000C4010E947413D9CF6BE7C4010E94741304
:1036F000D8010D911C9101151105C9F0F8016681E1
:103700007781C4010E941F146AE3C4010E947413EC
:10371000B401C8010E942419C8010E9488178C01B5
:10372000892B29F06CE2C4010E947413E4CF6DE789
:10373000D7CF6D917C91C4010E941F14AECFF801C8
:10374000C080D180E280F3806DE2C4010E947413D6
:10375000B701A601C4010E94CC139FCF4D915D918A
:103760006D917C91F7CFF80180819181A281B38125
:1037700060E072E0892B8A2B8B2B11F465E072E0FC
:10378000C4010E940E1989CFCF93DF9300D000D0DF
:10379000CDB7DEB77A8369831C821B82BE016F5F5F
:1037A0007F4F09960E9424198B819C810F900F9066
:1037B0000F900F90DF91CF9108953F924F925F92BB
:1037C0006F927F928F929F92AF92BF92CF92DF9231
:1037D000EF92FF920F931F93CF93DF93CDB7DEB796
:1037E0002B970FB6F894DEBF0FBECDBF7C01FE0154
:1037F0003196CE010C966F0130E231938E179F0700
:10380000E1F7DA0130E087E09D91B92E992309F4C0
:103810003CC09E32F1F48A30C9F480E02B960FB69A
:10382000F894DEBF0FBECDBFDF91CF911F910F91F6
:10383000FF90EF90DF90CF90BF90AF909F908F90D0
:103840007F906F905F904F903F90089538E08AE0AE
:10385000DBCFECE2F1E04491442321F03196941364
:10386000FACFDBCF8317C8F24FED490F4E35A8F6DC
:103870004FE9490F4A3118F440EEB42EB90EF60163
:10388000E30FF11DB0823F5FBFCF8981803229F203
:10389000322E8B01DB015B968D919C915C97F70139
:1038A000948F838F16961D921D921D921C921997CC
:1038B000FB011286138614861586F801828593858E
:1038C000A485B585438954896589768984179507C8
:1038D000A607B70708F04DC025E0B695A7959795C0
:1038E00087952A95D1F7F82FFF70AF2ED80115963E
:1038F0008C91823008F491CFC8010E94751097FD19
:103900008CCFF80182859385A485B5854F96A11D3E
:10391000B11D82879387A487B587F0E2AF9EB0017F
:1039200011246F597D4F6115710509F476CFDB01C4
:103930008C91882341F0853E09F058C0BB2029F0C6
:10394000BB24B394BACFB1100EC0F701A28A809104
:10395000000190910101A0910201B09103018687BD
:103960009787A08BB18BDB018C918111E9CFBB24B0
:10397000B394832D8271823109F04FCFBB2009F4BB
:1039800043C0C7010E94D909009709F446CF20E23D
:10399000FC0111922A95E9F72BE0F601DC01019078
:1039A0000D922A95E1F721E238E2DC0151963C9331
:1039B0002E93509740E058E01F965C934E931E97CD
:1039C00053963C932E93529759963C932E93589727
:1039D00057965C934E93569781E00E946409882322
:1039E00009F41BCF432DF70162890AC04BE050E078
:1039F000C6010E94A633892B09F05FCF432D6A2DA3
:103A0000C7010E9483180ACFF8018581823009F42A
:103A100004CFC8010E94680C882309F4FECED801A7
:103A20005B96ED91FC915C9716968D909D90AD9074
:103A3000BC901997B2E08B1A9108A108B10885854E
:103A400004C0880C991CAA1CBB1C8A95D2F78685D9
:103A50009785A089B189880E991EAA1EBB1E8481F4
:103A600024013501480E511C611C711C4814590475
:103A70006A047B0409F1E1E04E1A510861087108FB
:103A800081E00E946409882309F4C7CEE1E6F2E0F0
:103A9000119281E694E08E179F07D1F740920001C2
:103AA00050920101609202017092030180913802EC
:103AB000816080933802DACFD8015B96ED91FC915A
:103AC000258580E092E0A0E0B0E004C0880F991F57
:103AD000AA1FBB1F2A95D2F7F8014389548965892B
:103AE0007689840F951FA61FB71F838B948BA58B98
:103AF000B68BD70152961C9281E692E048CFCF93C5
:103B0000DF93EC01898D9A8D009741F00E94000EA1
:103B1000898D9A8D0E941D331A8E198EDF91CF9157
:103B20000895FC0181819281009711F00C941D335E
:103B30000895EF92FF920F931F93CF93DF93EC01C1
:103B40007B018A011B821A8288EE93E0A0E0B0E03C
:103B50008C839D83AE83BF8380E791E099838883C4
:103B60008DE190E00E9481329A8F898F009779F0E1
:103B70002DE1F701DC0101900D922A95E1F74CE06F
:103B800050E0B801CE010C960E94C733188EDF9129
:103B9000CF911F910F91FF90EF9008952F923F9238
:103BA0004F925F926F927F928F929F92AF92BF924D
:103BB000CF92DF92EF92FF920F931F93CF93DF93F9
:103BC000CDB7DEB7C756D1090FB6F894DEBF0FBE2A
:103BD000CDBF6C015B01A6964FAFA69719A218A2A4
:103BE00084EC91E09F8F8E8F1BA21C821B829A8394
:103BF00089831E824E018EE1880E911CC4010E94B1
:103C0000800B75018E010F5F1F4F240118016FE2B9
:103C100070E0C7010E94B333009709F45DC0F7015B
:103C200020812F3271F4FFEFEF1AFF0A902F812FBE
:103C30008201492E582E942D852D2801092F182FE9
:103C4000E6CF8E198D3008F08CE0682E712CA30120
:103C5000B701CE01885A9F4F0E94C733E8E5F0E0D4
:103C6000EC0FFD1FE60DF71D1082C8010E94000E2B
:103C7000F8018581882301F11EAE1DAE84EC91E030
:103C80009CAF8BAF21961FAE2197A896EEADFFADEE
:103C9000A897AE0EBF1EF501808181112AC0BE011A
:103CA000655C7F4FC1010E94B90F4BE052E0B1014A
:103CB000C6010E94991D3BC021E0AE01485A5F4FEA
:103CC000B201C8010E94DD1B8823B1F2E60CF71C8B
:103CD000C2010E94000EAFCFC7018A199B09A896A6
:103CE0009FAF8EAFA897B201CE01CB960E94B90FBD
:103CF000CCCF19A218A284EC91E09F8F8E8F1BA2CB
:103D000021968FAD219781112DC0F6011382128269
:103D100088EE93E0A0E0B0E084839583A683B78328
:103D200080E791E091838083128E118E1486C60104
:103D3000C959DF4F0FB6F894DEBF0FBECDBFDF917C
:103D4000CF911F910F91FF90EF90DF90CF90BF9098
:103D5000AF909F908F907F906F905F904F903F902B
:103D60002F900895A6962FADA697A501BE01655C7C
:103D70007F4FC4010E94DD1B882339F2CE01CB9610
:103D80000E94000EA6968FADA6978670863039F4F5
:103D900049A95AA96BA97CA9C4010E94D40BB401FA
:103DA000C1010E94B90FA50182CF0F931F93CF933A
:103DB000DF938B01EC01892BA1F06E817F8160176D
:103DC000710779F00115110541F06115710529F0B0
:103DD000C8010E94BE33892B21F0CE010E948817B2
:103DE000E9CFCE01DF91CF911F910F9108956F928E
:103DF0007F928F929F92AF92BF92CF92DF92EF927B
:103E0000FF920F931F93CF93DF9300D000D01F92A8
:103E1000CDB7DEB78C017B01C42E0E944015D82E91
:103E2000811102C0D12C8CC1C8010E94E7148732D5
:103E300009F447C124F5823209F443C1C8010E9444
:103E4000E714982E5801FCE0AF0EB11CC12C7A2C5F
:103E50008B2C892D0E944C14882309F486C18FE392
:103E6000C81609F482C1D80119961C92C394F501B1
:103E700091925F01C8010E94E714982EEACF8B351A
:103E800009F461C08B37D1F6F701848180788062B4
:103E900084831182108213821282CC2009F465C0BF
:103EA000D80119961C92C8010E944015882309F474
:103EB000B9CF6DE7C8010E942F15811141C1CA9485
:103EC000D8011A96ED91FC911B97828193811196EE
:103ED0009C938E938481958122813381821B930BE5
:103EE00015969C938E93149713961C921E9212977C
:103EF000C8010E94E714873209F47DC0823209F4B8
:103F00007AC0C8010E94E714B82E0E944C1488237E
:103F100009F46BC0F80111866B2DC8010E94491687
:103F2000C8010E94E714B82E0E944C148111F2CFF0
:103F300060E0C8010E944916D8018D919C91892B9F
:103F400009F05FC032C0D70114968C911497807825
:103F5000806414968C93149711961C921E9213965B
:103F60001C921E921297C11008C0F801E45BFF4F2B
:103F700085E090E09183808355CFF8011186C801D8
:103F80000E944015882309F44DCF6DE5C8010E94B9
:103F90002F158111D5C0CA94D8011A966D917C91C4
:103FA000C7010E945517009731F4F801E45BFF4FF9
:103FB00083E090E0DFCF4C2DBC01C8010E94F71ECA
:103FC000882309F42FCFC8010E944015882309F4E3
:103FD00029CF6DE5C8010E942F158111B1C06CE297
:103FE000C8010E942F158111D7CFF801E45BFF4F64
:103FF00082E090E0BFCFC8010E946216882309F4D6
:1040000011CFC8010E944015882309F40BCF6AE341
:10401000C8010E942F15882341F3F8016081718146
:10402000D7018D919C910E94D51EBC01892B49F529
:10403000F80162847384D30112968D909C90B40130
:10404000C3010E945E155C01892B59F4F80182813D
:104050009381880D991DD30113969C938E9312978B
:104060005401F80162857385C7010E945517FC0150
:10407000892B09F49ACF848180688483B782A682D1
:10408000BF014C2DC8010E94F71E882309F4CACE37
:10409000C8010E944015882309F4C4CE6DE7C80109
:1040A0000E942F1581114CC06CE2C8010E942F158F
:1040B000882309F49ACFC8010E944015811100CFCE
:1040C000B1CED8011A96ED91FC911B978281938114
:1040D00011969C938E938481958122813381821BDA
:1040E000930B15969C938E93149713961C921E9285
:1040F0001297C8010E946216D82E882309F492CE26
:10410000F80182849384D4011296AD90BC90B501DD
:10411000C4010E945E159C01892B59F4F80182812B
:1041200093818A0D9B1DD40113969C938E931297B5
:104130009501F70194819078956094833183208371
:104140008D2D0F900F900F900F900F90DF91CF91CA
:104150001F910F91FF90EF90DF90CF90BF90AF90A5
:104160009F908F907F906F900895F801EC0DF11D56
:104170001486D8011C968C918437B1F4F7018481A0
:1041800080788660848381E090E0A0E0B0E0808366
:104190009183A283B383F4E0CF1691F2F801E45B3C
:1041A000FF4F81E090E0E6CE863679F4D701149691
:1041B0008C9114978078866014968C93F701108206
:1041C000118212821382F5E0E7CF8E3621F484E06B
:1041D000C812E4CFB5CF1D82BE016F5F7F4F872D20
:1041E000982D0E94AF018D818A3081F08C3001F1D1
:1041F000883009F0FACE49815A816B817C81D701E0
:1042000014968C911497807888600AC049815A81ED
:104210006B817C81D70114968C91149780788A6089
:1042200014968C93F701408351836283738388CF04
:1042300049815A816B817C81D70114968C911497A6
:1042400080788C6014968C93F7014083518362834D
:10425000738376CFFC01248125FF04C08081918186
:104260000C94D51E90E080E00895EF92FF920F939A
:104270001F93CF93DF93EC018C81982F9F7739F4B4
:10428000807880628C83198218821B821A828C81CA
:1042900085FF1EC061157105D9F07A018B018881F7
:1042A00099810E94D51E009761F4B701CE010E944A
:1042B0005517009731F0FC0124812F772483178351
:1042C0000683DF91CF911F910F91FF90EF9008959A
:1042D00090E080E0F6CF4F925F926F927F928F9244
:1042E0009F92AF92BF92CF92DF92EF92FF920F9385
:1042F0001F93CF93DF937C0168E870E00E94EF1872
:10430000C0904401D0904501E70121968701075FE5
:104310001F4FAE016DE072E0C8010E943521FC0123
:10432000892B79F0A6010D2C000C660B770B94817C
:104330009078D7FC86C098609483408351836283D1
:104340007383C0903A01D0903B01AE0168E172E006
:10435000C8010E943521FC01892B79F0A6010D2CA2
:10436000000C660B770B94819078D7FC74C0986032
:1043700094834083518362837383AE0161E272E070
:10438000C8010E9435216C01009781F0DC01149670
:104390008C9114978078806414968C93149711965E
:1043A0001C921E9213961C921E92129789E5882EDB
:1043B00085E0982E93EFA92E95E0B92EC114D10473
:1043C000A1F0BE01C6010E945517FC01892B69F0BE
:1043D000D4014C9150E070E060E094819078986056
:1043E00094834083518362837383BBE08B0E911C63
:1043F000A814B90419F7C0915705D091580568E180
:1044000072E0C8010E942A21FC01892B49F09481A5
:104410009F77983009F46FC040F5963009F47FC05B
:1044200068E172E0C8010E942A21009709F487C060
:104430000E94641490935805809357050E94A2220D
:1044400035C09A60948370956095509541955F4F03
:104450006F4F7F4F72CF9A6094837095609550959F
:1044600041955F4F6F4F7F4F84CF9A3089F19C30D9
:10447000B9F680809180A280B380BE01DD0F880BE9
:10448000990B0E9452302B013C01AC019B01C501EC
:10449000B4010E944B3087FDC3CFA3019201C50137
:1044A000B4010E942C3218160CF4BACFC701DF9168
:1044B000CF911F910F91FF90EF90DF90CF90BF9021
:1044C000AF909F908F907F906F905F904F900895E6
:1044D00080819181A281B3811C161D060CF4A0CFAE
:1044E000D195C195D109C817D9070CF499CF8C176C
:1044F0009D07E4F695CF4081518162817381CE01A1
:10450000DD0FAA0BBB0B481759076A077B0708F496
:1045100087CF84179507A607B70740F681CF41E0FC
:1045200050E060E070E080819181A281B381892BAD
:104530008A2B8B2B21F740E050E0BA01E0CF90E0CE
:1045400080E078CF9F92AF92BF92CF92DF92EF92AE
:10455000FF920F931F93CF93DF93CDB7DEB7C4566F
:10456000D1090FB6F894DEBF0FBECDBFC090550580
:10457000D09056051EAE1DAE84EC91E09CAF8BAF83
:1045800021961FAE219719A218A29F8F8E8F1BA272
:10459000A12C912C7E018BE3E80EF11C0DED14E0B3
:1045A0008A2D992DF601E80FF91F20812F3209F489
:1045B0000196D601A80FB91FFE01E85AFF4F30E05F
:1045C00020E0AF016D916F3249F0662339F001961A
:1045D0002F5F3F4F61932C303105A1F7240F351F1A
:1045E000F9011082F601E80FF91F20812F3209F43A
:1045F0000196A82E992E8C0D9D1DFC0180818111A4
:104600002AC01C821B8284EC91E09A8389831E82DB
:1046100022E0B801CE0101960E94DD1B882399F0AB
:10462000CE0101960E94F017882369F0CE01019611
:104630000E94D909009739F025EEFC0120831E82E3
:1046400081E00E946409F4E00D3D1F07C1F0C8013C
:104650000E94000E14C0F7018581811165C021E020
:10466000B801C7010E94DD1BB82E84E00D3D18077C
:1046700009F44EC0C8010E94000EB1104FC06091F5
:1046800055057091560547E1CE0101960E94CE1D59
:10469000EA8DFB8D309749F18581882331F1CE0178
:1046A0004E960E946B21BE016F5F7F4FCE014E96EA
:1046B0000E94C41B8C01CE014E960E94911D012BBD
:1046C00081F409EE11E0F8016491662341F081E67E
:1046D00094E00E94FC030F5F1F4F892BA1F70E94FB
:1046E0006F07CE0101960E947F1DCC59DF4F0FB698
:1046F000F894DEBF0FBECDBFDF91CF911F910F9118
:10470000FF90EF90DF90CF90BF90AF909F90089573
:10471000BB2009F4B4CF8E01025E1F4F902F812F72
:104720008701E92EF82E3CCF84E00D3D180709F4EF
:10473000A6CF8DCF1F920F920FB60F9211248F9399
:104740009F938091E1009091E100937F9093E1002D
:1047500083FF0FC01092E90091E09093EB0010925C
:10476000EC0092E39093ED0010925E0298E090933B
:10477000F00082FF22C093E09093E9009091F20054
:10478000992319F09AE39093E800909157029923A6
:1047900041F090915702915090935702911101C0AE
:1047A0005D9890915D02992341F090915D02915046
:1047B00090935D02911101C0289884FF18C08091E8
:1047C000E2008E7E81608093E2008091E1008F7E26
:1047D0008093E100809158028E7E80618093580220
:1047E0009F918F910F900FBE0F901F90189580FF93
:1047F000F7CF8091E2008E7E80618093E20080910D
:10480000E1008E7E8093E100809158028E7E81606F
:10481000E5CF1F920F920FB60F921124CF92DF9225
:10482000EF92FF920F931F932F933F934F935F93BA
:104830006F937F938F939F93AF93BF93EF93FF9368
:10484000CF93DF93CDB7DEB76C97DEBFCDBF1092AD
:10485000E9008091E80083FF25C068E0CE0145961D
:104860000E947D0382EF8093E8008D8987FF39C025
:104870009091E80090FFFCCF982F907609F034C11A
:104880009E894F89588D2F89F88C911131C08038BD
:1048900061F5809159028093F1001092F1008EEF42
:1048A0008093E8006C960FB6F894DEBF0FBECDBFC4
:1048B000DF91CF91FF91EF91BF91AF919F918F9138
:1048C0007F916F915F914F913F912F911F910F9128
:1048D000FF90EF90DF90CF900F900FBE0F901F9042
:1048E00018959EEF9093E800C7CF1092F100D5CFB6
:1048F000913059F48111D3CF4130510581F6809127
:1049000059028D7F80935902CACF933049F48111A7
:10491000C6CF4130510519F6809159028260F2CF1D
:10492000953041F48091E80080FFFCCF206820930F
:10493000E300B5CF963009F0A9C00B8D1C8D22E0A5
:104940001092E9001092550210925402F2122EC0F9
:1049500010925302109252020E94CB031F8299E0E0
:104960009983FA8291E09E8390EA98879AEF9987DB
:104970002091540230915502275F3F4F3C832B8397
:104980008D831092E90010925502109254021093F8
:1049900053020093520249E050E0BE016F5F7F4F27
:1049A00080E00E9446030E94CB0379CF109353020C
:1049B000009352020E94B703DC0112960D911C91E4
:1049C0000115110509F451C1D801ED91FC91048044
:1049D000F581E02DBE016B5E7F4FC8010995009700
:1049E00009F03EC1F80100851185EACFF3E0FF121E
:1049F0000EC08F89882309F440C0823061F440E8FA
:104A00006DE08DEC91E00E944827811148CF81E252
:104A10008093EB0047CF813029F440E86BE081ECD4
:104A200091E0F1CF833099F70E94B703DC01129631
:104A3000ED90FC908E010F5F1F4F6801E114F104AF
:104A400079F0D701ED91FC910680F781E02DB80156
:104A5000C7010995080F111DF701E084F184EECF1D
:104A6000D8011C92F60101900020E9F73197BF01AF
:104A70006C197D0940E0C601C6CF6BEA71E0FB010D
:104A8000449150E080E80E94460309CF973009F432
:104A9000BECF983021F481E08093F10000CF9930AF
:104AA00009F0FDCE837009F0B2CFE6E1F1E081E0DC
:104AB00031E096E32191222371F08093E900309355
:104AC000EB00DF0111972C912093EC009093ED0007
:104AD0008F5F873079F78EE78093EA001092EA00C3
:104AE0008F8980935E02DBCE8B8D9C8D1092E900C6
:104AF00010925502109254029093530280935202E6
:104B0000898D811192C08E899D89913A49F48132B3
:104B100009F07DCF47E050E068E071E080E0B3CF7E
:104B2000913209F074CF833269F48F89988DB0E0A7
:104B3000A0E08093040190930501A0930601B09337
:104B40000701ADCE803269F48091E80082FFFCCF8E
:104B500067E088E091E00E947D038BEF8093E8009E
:104B60009ECE823209F09BCE8F8980930F01EEEFAB
:104B7000FFE7859194918B3F9C4D51F1E0E0F8E087
:104B80008091080190910901A0910A01B0910B0157
:104B9000803B9440A105B105F1F480910F0180FDA7
:104BA0001AC0EE3F8AE0F80789F587E797E7918317
:104BB0008083809160008093560288E19BE00FB66D
:104BC000F894A895809360000FBE9093600067CE24
:104BD000EEEFFAE0D5CF808191818737974709F0D2
:104BE0005ECEA8958091600088618093600080917E
:104BF000560280936000EE3F2AE0F20789F0809130
:104C0000FE0A9091FF0A9183808349CE8081918131
:104C10008737980751F29093FF0A8093FE0AC5CF19
:104C20001092FF0A1092FE0A3ACE0E94B703DC01EE
:104C300012960D911C910115110509F4E8CED801C9
:104C4000ED91FC910190F081E02DBE016B5E7F4FF4
:104C5000C8010995811123CEF80100851185EBCF9C
:104C6000181619060CF41BCED2CEF1E0FF12BECE00
:104C70006FEA71E004CF1F920F920FB60F921124CA
:104C80002F933F938F939F93AF93BF9380913E0257
:104C900090913F02A0914002B091410230913D02BB
:104CA00023E0230F2D3758F50196A11DB11D209348
:104CB0003D0280933E0290933F02A0934002B09346
:104CC00041028091420290914302A0914402B0912E
:104CD00045020196A11DB11D8093420290934302AB
:104CE000A0934402B0934502BF91AF919F918F91E1
:104CF0003F912F910F900FBE0F901F90189526E8AF
:104D0000230F0296A11DB11DD2CF1F920F920FB695
:104D10000F9211242F933F934F935F936F937F9341
:104D20008F939F93AF93BF93EF93FF93E0912401F1
:104D3000F09125010995FF91EF91BF91AF919F915E
:104D40008F917F916F915F914F913F912F910F9034
:104D50000FBE0F901F9018951F920F920FB60F92D3
:104D600011242F933F934F935F936F937F938F9370
:104D70009F93AF93BF93EF93FF93E0912201F09144
:104D800023010995FF91EF91BF91AF919F918F9171
:104D90007F916F915F914F913F912F910F900FBE37
:104DA0000F901F9018951F920F920FB60F9211241B
:104DB0002F933F934F935F936F937F938F939F9323
:104DC000AF93BF93EF93FF93E0912001F091210106
:104DD0000995FF91EF91BF91AF919F918F917F9135
:104DE0006F915F914F913F912F910F900FBE0F9058
:104DF0001F9018951F920F920FB60F9211242F93A8
:104E00003F934F935F936F937F938F939F93AF9352
:104E1000BF93EF93FF93E0911E01F0911F0109955D
:104E2000FF91EF91BF91AF919F918F917F916F9182
:104E30005F914F913F912F910F900FBE0F901F9058
:104E400018951F920F920FB60F9211242F933F9334
:104E50004F935F936F937F938F939F93AF93BF9382
:104E6000EF93FF93E0911C01F0911D010995FF91D3
:104E7000EF91BF91AF919F918F917F916F915F91D2
:104E80004F913F912F910F900FBE0F901F9018954B
:104E9000EF92FF920F931F93CF93DF93F82E192F6A
:104EA000E62E042F81E0860F880F0E94180383E00E
:104EB0000E941803CF2DD12FEC0EFD2EF11CCE1524
:104EC000DF05B9F007FF13C0FE0184910E941803AB
:104ED000182F80E00E941803812321968111EFCFC3
:104EE000DF91CF911F910F91FF90EF9008958881EE
:104EF000EDCF81E0F5CF8F929F92AF92BF92CF928C
:104F0000DF92EF92FF92CF9323EB34E03093600275
:104F100020935F02882309F46DC040E060E070E0F8
:104F2000CB010E948F0981110BC080E0CF91FF90CF
:104F3000EF90DF90CF90BF90AF909F908F900895AB
:104F400080911F048F7789F780912B0490912C0416
:104F5000A0912D04B0912E0484369105A105B105D0
:104F600020F3C0902704D0902804E0902904F0900A
:104F70002A04C114D104E104F104B9F240E0C701EC
:104F8000B6010E948F09882381F280916C02909172
:104F90006D028115924049F6A0917102AA2329F26F
:104FA00060916F02709170026115710509F4BDCFB7
:104FB00020916E02222309F4B8CFA093D10420934C
:104FC000C30490E080E030E0E1E0F0E0C82FAF0102
:104FD000082E02C0440F551F0A94E2F72417350724
:104FE00069F041E0480F01968930910579F74093C7
:104FF000CC049BCFC12CD12C7601C0CF8093CC04A4
:10500000209177023091780250E040E0211531057F
:1050100041F420918502309186024091870250919F
:1050200088022093C4043093C5044093C60450936F
:10503000C70446015701860E971EA11CB11C809221
:10504000D2049092D304A092D404B092D504E091FB
:105050007202F0917302F093D804E093D704B0E0A9
:105060000E946F31DC01CB01880D991DAA1DBB1D6B
:105070008093D9049093DA04A093DB04B093DC040A
:1050800025E0EE0FFF1F2A95E1F7E150FE4FEF2FCD
:10509000FF27E6958E0F9F1FA11DB11D8093CD04A4
:1050A0009093CE04A093CF04B093D0048090740268
:1050B00090907502B12CA12C8114910441F4809040
:1050C000810290908202A0908302B0908402C81A5C
:1050D000D90AEA0AFB0AC80CD91CEA1CFB1C04C04A
:1050E000F694E794D794C794CA95D2F7C092C804AF
:1050F000D092C904E092CA04F092CB0485EFC8169E
:105100008FE0D806E104F10428F48CE08093D60403
:1051100081E00CCF80E125EFC2162FEFD206E1042B
:10512000F104A0F380918D0290918E02A0918F02E4
:10513000B09190028093D9049093DA04A093DB0499
:10514000B093DC0480E2E2CFCF93DF93109264044B
:105150001092630488EE93E0A0E0B0E080936504D1
:1051600090936604A0936704B093680482EB91E087
:1051700090936204809361048FEF9FEF90936E048D
:1051800080936D0480E58093B1041092B204109274
:10519000B8041092B9041092BC041092BE0482E0CC
:1051A00090E0A0E0B0E08093BF049093C004A0938F
:1051B000C104B093C2041092D6041092E00410927D
:1051C000DF0484EC91E09093DE048093DD04109280
:1051D000E20410922605109225058CED91E0909343
:1051E00024058093230580911B05811113C0109223
:1051F00016051092150581E092E0909318058093B2
:1052000017058FE290E090931A058093190581E0CD
:1052100080931B0580910D0581112AC0C1E0C093C8
:105220000005C093010586E095E090930305809307
:105230000205109205051092040580ED91E090930F
:10524000FD048093FC04109208051092070510924B
:105250000A0510920905C0930B05C0930C0581EC5B
:10526000809306050E94B7030E946901C0930D0553
:10527000E0910705F0910805309709F072C185E1CA
:1052800095E090930805809307058091090590911A
:105290000A052091190530911A05820F931F9093EA
:1052A0000A058093090580EF8093590562E16093B8
:1052B0005A058CE390E0A0E0B0E080935B0590930A
:1052C0005C05A0935D05B0935E051092630521EF28
:1052D0002093640553E15093650580936605909390
:1052E0006705A0936805B093690510926E0522EFDB
:1052F00020936F0544E1409370058093710590936E
:105300007205A0937305B09374051092790523EF8D
:1053100020937A0535E130937B0580937C0590934B
:105320007D05A0937E05B0937F051092840524EF40
:105330002093850526E12093860580938705909329
:105340008805A0938905B0938A0510928F05109265
:105350009005609391058093920590939305A09397
:105360009405B093950510929A0510929B05509361
:105370009C0580939D0590939E05A0939F05B093F7
:10538000A0051092A5051092A6054093A70580934D
:10539000A8059093A905A093AA05B093AB05109218
:1053A000B0051092B1053093B2058093B305909388
:1053B000B405A093B505B093B6051092BB05109245
:1053C000BC052093BD058093BE059093BF05A093B7
:1053D000C005B093C1051092C60527ED2093C705FF
:1053E00027E12093C8058093C9059093CA05A0932F
:1053F000CB05B093CC051092D10538ED3093D20592
:105400002093D3058093D4059093D505A093D6051A
:10541000B093D7051092DC051092DD052093DE05D0
:105420008093DF059093E005A093E105B093E2053A
:105430001092E7051092E8052093E9058093EA05AC
:105440009093EB05A093EC05B093ED051092F20557
:1054500010925205109254051092530589E292E081
:10546000909356058093550580913A0190913B01A8
:10547000909358058093570562E082E00E942105D1
:1054800062E083E00E942105EFE5F2E0E491F0E0C4
:10549000EE0FFF1FE15BFD4FA591B491B09338056E
:1054A000A0933705E2E3F2E0449140933B05E0E648
:1054B000F2E0E491F0E0EE0FFF1FE15BFD4FC591DC
:1054C000D491D0933A05C0933905E3E3F2E0E49137
:1054D000E0933C0510923E0510923F051092400566
:1054E000109241052BE33FE1C9010197F1F79C912F
:1054F000842F892391E009F490E08881E82309F062
:10550000926027E335E090933D0530933205209378
:1055100031058EED97E190931F0180931E018091DC
:105520006900837F846080936900E99A81E08093B9
:1055300042053093300520932F0588ED97E1909335
:105540001D0180931C01809169008C7F8160809394
:105550006900E89A82E080934205DF91CF91089537
:10556000FC01808191810097D9F785E195E09183D5
:1055700080838BCECF93DF93CDB7DEB7C757D109EA
:105580000FB6F894DEBF0FBECDBF789484B58260AD
:1055900084BD84B5816084BD85B5826085BD85B5D7
:1055A000816085BD80916E00816080936E00109255
:1055B00081008091810082608093810080918100D0
:1055C0008160809381008091800081608093800061
:1055D0008091910082608093910080919100816020
:1055E00080939100809190008160809390008091E1
:1055F000C10084608093C1008091C100826080936B
:10560000C1008091C10081608093C1008091C3007E
:1056100081608093C3008091C00082608093C0004D
:105620008091C20081608093C20080917A00846082
:1056300080937A0080917A00826080937A008091D2
:105640007A00816080937A0080917A0080688093EC
:105650007A0010925E0210925902109258028091C4
:10566000D70081608093D70080EA8093D80089B505
:10567000806189BD89B5826089BD09B400FEFDCF16
:1056800061E070E080E090E00E943A068091D800EE
:105690008F7C80618093D8008091E000807F809330
:1056A000E0008091E1008E7E8093E1008DE08093A8
:1056B000E200559A209A5D98289862E081E00E9465
:1056C000210581E00E94CA04892B09F4FFCF8FEFE6
:1056D0009FEF90936E0480936D0406E211E0F80151
:1056E00080810E5F1F4F60E00E942105F1E00033D2
:1056F0001F07A9F762E087E10E942105B9E5CB2EDB
:10570000B5E0DB2E13EFE12E15E0F12E860162E00D
:10571000F80181810E942105055F1F4FE016F10607
:10572000B1F78091E204882321F08DED94E00E948E
:10573000000E1092BE041092BC041092B904109294
:10574000B80484E08093B7040E9477078B0161E07E
:105750008091B7040E94210561E08091B7040E9406
:10576000F304FFB6F89480915A02811127C0EEE647
:10577000F2E08491E1E4F2E09491E82FF0E0EE0FA2
:10578000FF1FE552FE4FA591B491EC91E92321F45E
:1057900061E081E10E94F30461E081E10E94210562
:1057A0008CB580618CBD8CB580648CBD61E08FE070
:1057B0000E94210561E080E10E94210580915A024A
:1057C0008F5F80935A02FFBE82E58093B1041092EE
:1057D000B2048091B1049091B2040E94BA07EAE049
:1057E000FE2E8FEF0E949507FA94F110FACF83EB0B
:1057F00094E00E94BD0720E030E0A90160E083EB67
:1058000094E00E94D307F82E8093BD04F1E08F1737
:1058100009F44DC00E947707601B710B613D774012
:1058200050F381E08093B80483EB94E00E948A07F0
:1058300038EEE32E33E0F32E4AE0242E312C01E043
:105840001BE020E0C22E20E0D22E90900F016AE0F3
:1058500070E080E090E00E943A06992009F4EEC1E1
:1058600081E694E00E9464042091520518161906FE
:105870000CF0CFC12111CDC181E694E00E94220439
:1058800090915C02992309F4BEC190915B02E92FCB
:10589000F0E0ED5BFA4F8E3309F4ADC180839F5F7A
:1058A0009F3008F4A5C1EEE0E0935B02D9CF2AEA6D
:1058B00031E040E050E068E083EB94E00E94D307E1
:1058C00082FF2AC0F092BE048091BE04812C912CEC
:1058D000A12C60E4B62E823019F0812C912C540159
:1058E00020E030E0A90167E383EB94E00E94D30756
:1058F000A501940169E283EB94E00E94D3078093B1
:10590000BD048823D1F00E947707601B710B613DB5
:10591000774030F388E086CF74E0F72E0E949C0732
:105920008093BD04FA94F110F9CF8A3A11F082E025
:1059300079CF82E08093BE04C7CF8091BE048230CD
:10594000D1F420E030E0A9016AE383EB94E00E9407
:10595000D307882311F086E065CF0E949C07807CE6
:10596000803C19F483E08093BE040E949C070E944F
:105970009C070E949C0783EB94E00E948A0780E5C5
:105980008093B1041092B20481E00E947B278823A7
:1059900009F4BDC08DED94E00E94800B882309F4CA
:1059A00047CF8E01015B1F4F6091550570915605E1
:1059B00041E0C8010E94CE1D60EB70E0CE01865927
:1059C0009F4F0E94EF18AD968EAD9FADAD97AF96ED
:1059D0009FAF8EAFAF97E3968EAD9FADE397E19605
:1059E0009FAF8EAFE197E8968FADE8978078E89605
:1059F0008FAFE8971A8219821C821B821E821D8239
:105A000018870F831A868AE690E08C0F9D1F0196F7
:105A10009C878B872F961FAE1EAE2F976AE670E08D
:105A20006C0F7D1F675F7F4F4AE08A5691090E9485
:105A3000F71E2F968EAD9FAD2F97892B99F48985F0
:105A4000882381F0E8968FADE897982F9F779C3058
:105A500019F08D77883031F482E090E02F969FAF77
:105A60008EAF2F972F968EAD9FAD2F97892B09F074
:105A700087C06DE072E08AE690E08C0F9D1F09966A
:105A80000E942A21009709F049C090E080E090939D
:105A900045018093440168E172E08AE690E08C0F52
:105AA0009D1F09960E942A210097D9F10E94641433
:105AB00090933B0180933A01F12CE12C5AE6A52EFC
:105AC000B12CAC0EBD1EE9E0AE0EB11C61E272E07D
:105AD000C5010E942A21FC01892B79F19481692F4B
