:100000000C942B010C94560F0C942F0F0C94080F8A
:100010000C94E10E0C9453010C9453010C94BA0E01
:100020000C9453010C9453010C94CF0B0C943E0C84
:100030000C9453010C9453010C9453010C945301F0
:100040000C9453010C9453010C9453010C945301E0
:100050000C9453010C9453010C9453010C94700EA6
:100060000C9453010C9453010C9453010C945301C0
:100070000C9453010C9453010C9453010C945301B0
:100080000C9453010C9453010C9453010C945301A0
:100090000C9453010C9453010C9453010C94530190
:1000A0000C9453010C9453010C9453010000000074
:1000B000000000002A2B28000000000000000000C3
:1000C0000000000000000000000000002C9EB4A012
:1000D000A1A2A434A6A7A5AE362D3738271E1F200F
:1000E000212223242526B333B62EB7B89F848586D4
:1000F0008788898A8B8C8D8E8F9091929394959618
:100100009798999A9B9C9D2F3130A3AD3504050695
:100110000708090A0B0C0D0E0F10111213141516F7
:100120001718191A1B1C1DAFB1B0B5000000000054
:10013000240027002A002D003000000000002500C8
:1001400028002B002E0031000000000200090F00E3
:1001500000030401000C000000000000000000008B
:1001600000000000000000080B000202020000096D
:100170000400000102020000052400100105240112
:10018000010104240206052406000107058103106D
:10019000004009040100020A0000000705020240B5
:1001A0000000070583024000000403090412010057
:1001B00002EF0201404123378000010102030141A7
:1001C000726475696E6F204C4C43004172647569AE
:1001D0006E6F204D6963726F0005010906A10185EC
:1001E00002050719E029E715002501750195088129
:1001F000029501750881039506750815002573059C
:1002000007190029738100C00408020110408040D2
:10021000102040804080080204018040201002012C
:1002200010801020404020000000002300260029FC
:10023000002C002F0004040404040304050202023D
:10024000020403020202020606060606060404026F
:10025000020204047F0F11241FBECFEFDAE0DEBFDD
:10026000CDBF22E0A2E7B1E001C01D92A03DB207E0
:10027000E1F711E0A0E0B1E0E8E9F0E302C00590A9
:100280000D92A237B107D9F711E0CBE2D1E004C05B
:100290002197FE010E943E16CA32D107C9F70E947B
:1002A00066110C944A180C940000CF93DF93FC0164
:1002B00081819091ED01482F490F5527551F4830F6
:1002C00051059CF5A281B381109709F529EE31E023
:1002D0003383228320812093EB018093EC01809172
:1002E000EE01820F80832091EF01A22FB091F001E7
:1002F0008A2F821B8917E8F481813D91C82FD0E0B5
:10030000C05EDE4F38838F5F8183F2CFD9011896AC
:100310002D913C91199721153105C1F729EE31E056
:1003200019963C932E931897D5CF80E0DF91CF910B
:10033000089581E0FBCFFC0180919401882311F1A5
:100340003FB7F89482E08093E9002091F200822F79
:1003500090E01816190614F481E090E0882339F033
:10036000289A44E6409393014091F1004083222370
:1003700039F02091F200211103C02BE62093E80010
:100380003FBF08958FEF9FEF0895409185015091F1
:100390008601209183013091840142175307B4F400
:1003A0009091E8009570E1F39091E80092FD19C0FA
:1003B0008093F100809185019091860101968F7361
:1003C0009927892B19F48EEF8093E800809185019D
:1003D000909186010196909386018093850181E03A
:1003E000089580E00895EF92FF920F931F93CF93AB
:1003F000DF93F82E192FE62E042F81E0860F880F49
:100400000E94C50183E00E94C501CF2DD12FEC0EC3
:10041000FD2EF11CCE15DF05B9F007FF13C0FE015C
:1004200084910E94C501182F80E00E94C50181239C
:1004300021968111EFCFDF91CF911F910F91FF9006
:10044000EF9008958881EDCF81E0F5CFDF92EF92B4
:10045000FF920F931F93CF93DF93D82E8A01EB0166
:100460007B01E40EF51ECE15DF0559F0D7FE12C054
:10047000FE0184910E94C50121968111F4CF0FEFF6
:100480001FEFC801DF91CF911F910F91FF90EF9067
:10049000DF9008958881EECF2FB7F894877080930E
:1004A000E9009091E800892F807295FF04C0909137
:1004B000F20080E4891B2FBF0895615030F0209135
:1004C000F100FC0120830196F8CF289A84E68093FE
:1004D0009301089580917B0181110DC082E080938A
:1004E000770184E08093780110927A01109279016B
:1004F00081E080937B0187E791E008950F931F933C
:10050000CF93DF931F92CDB7DEB782E0898342E4B9
:1005100050E067E671E080E80E9426020E946A02CD
:10052000DC0112960D911C910115110589F0D8017D
:10053000ED91FC910280F381E02DBE016F5F7F4F52
:10054000C801099597FD04C0F80100851185ECCF1D
:1005500089810F90DF91CF911F910F910895CF93D3
:10056000DF931F92CDB7DEB76983DC01ED91FC917B
:100570000280F381E02D41E050E0BE016F5F7F4FCC
:1005800009950F90DF91CF91089583E08093E90062
:100590008091F200882319F08AE38093E80008959F
:1005A00083E00E944C0290E00895CF93DF931F9266
:1005B000CDB7DEB7FC018485958597FD08C02FEF88
:1005C0003FEF358724870F90DF91CF910895CE01BB
:1005D00001960E949B01019719F4898190E0F3CF65
:1005E0008FEF9FEFF0CF0F931F93CF93DF931F9267
:1005F000CDB7DEB78C01FC018485958597FF0BC0D4
:10060000CE0101960E949B01019771F4898190E0CF
:10061000F80195878487F801848595850F90DF918F
:10062000CF911F910F9108958FEF9FEFF1CF2FB7CB
:10063000F8948091950190919601A0919701B091C5
:1006400098012FBF8093A1019093A201A093A301D1
:10065000B093A40189E991E00E94F30297FF26C0BC
:100660002FB7F8948091950190919601A0919701F0
:10067000B09198012FBF4091A1015091A2016091CA
:10068000A3017091A401841B950BA60BB70B40919D
:100690009D0150919E0160919F017091A00184176E
:1006A0009507A607B707B0F28FEF9FEF0895FC01FB
:1006B0008485958597FD0BC09FB7F89482E0809361
:1006C000E9008091F2009FBF90E0019608959FB7E6
:1006D000F89482E08093E9008091F2009FBF90E05F
:1006E000089581508F3008F047C0E82FF0E0E558BA
:1006F000FC4F0C943E1698039C038A0390039403CA
:10070000BC03BC03BC039F03A503A903AD03B30350
:10071000BC03B703809180008F7780938000089599
:10072000809180008F7DF9CF80918000877FF5CF09
:1007300084B58F7784BD089584B58F7DFBCF80917C
:1007400090008F77809390000895809190008F7D26
:10075000F9CF80919000877FF5CF8091C0008F778F
:100760008093C00008958091C0008F7DF9CF809163
:10077000C200877F8093C2000895CF93DF93282F14
:1007800030E0F901E85BFE4F8491F901E85FFD4F2D
:10079000D491F901EB5CFD4FC491CC23A1F0811100
:1007A0000E947103EC2FF0E0EE0FFF1FE95DFD4F9B
:1007B000A591B491EC91ED2381E090E009F480E003
:1007C000DF91CF91089580E090E0FACF1F93CF930F
:1007D000DF93282F30E0F901E85BFE4F8491F901A7
:1007E000E85FFD4FD491F901EB5CFD4FC491CC2340
:1007F000A9F0162F81110E947103EC2FF0E0EE0F8B
:10080000FF1FE65CFE4FA591B4918FB7F894EC9171
:10081000111108C0D095DE23DC938FBFDF91CF91FB
:100820001F910895DE2BF8CFCF93DF9390E0FC016A
:10083000E85FFD4F24918B5C9D4FFC0184918823E0
:10084000C9F090E0880F991FFC01E45DFE4FA5916F
:10085000B491FC01E65CFE4FC591D49161110DC0CD
:100860009FB7F8948C91209582238C9388812823BC
:1008700028839FBFDF91CF910895623051F49FB7D5
:10088000F8943C91822F809583238C93E8812E2BC2
:10089000EFCF8FB7F894EC912E2B2C938FBFEACF2C
:1008A0001F93CF93DF93182FEB0161E00E94140494
:1008B000209739F460E0812FDF91CF911F910C9444
:1008C000E603CF3FD10511F461E0F5CFE12FF0E071
:1008D000E85BFE4FE491E150EF3008F07FC0F0E0BC
:1008E000EC58FB4F0C943E1683048B0490049A043E
:1008F000A404EE04EE04EE04AE04B804C204CC0476
:10090000D904EE04E10484B5806884BDC7BDDF91DD
:10091000CF911F91089584B5806284BDC8BDF7CF83
:1009200080918000806880938000D0938900C0937C
:100930008800EDCF80918000806280938000D0930A
:100940008B00C0938A00E3CF809180008860809301
:100950008000D0938D00C0938C00D9CF80919000FF
:10096000806880939000D0939900C0939800CFCF77
:1009700080919000806280939000D0939B00C09300
:100980009A00C5CF80919000886080939000D093AA
:100990009D00C0939C00BBCF8091C0008068809375
:1009A000C0008091C0008F7B8093C000C093CF00B7
:1009B000AECF8091C00080628093C000C093D00011
:1009C000A6CF8091C20088608093C2008091C2004F
:1009D0008B7F8093C200C093D20099CFC038D105DD
:1009E0000CF072CF67CF3FB7F8948091730190916C
:1009F0007401A0917501B091760126B5A89B05C040
:100A00002F3F19F00196A11DB11D3FBFBA2FA92F8D
:100A1000982F8827BC01CD01620F711D811D911D8A
:100A200042E0660F771F881F991F4A95D1F70895F6
:100A30008F929F92AF92BF92CF92DF92EF92FF92EE
:100A40004B015C010E94F3046B017C010E94F304E2
:100A50006C197D098E099F09683E734081059105D7
:100A6000A8F321E0821A9108A108B10888EEC80E07
:100A700083E0D81EE11CF11C81149104A104B1048F
:100A800029F7FF90EF90DF90CF90BF90AF909F90AD
:100A90008F9008957F928F929F92AF92BF92CF9244
:100AA000DF92EF92FF920F931F93CF93DF93C82EA5
:100AB0008B017A0180919401811110C08FEF9FEF1B
:100AC000DF91CF911F910F91FF90EF90DF90CF902A
:100AD000BF90AF909F908F907F90089580918901F3
:100AE00080FF05C08091E00082608093E000CE2D01
:100AF000DF2DD12C8AEFB82E8C2D8770982E8C2D5F
:100B00008072882E8C2D8074782E9AE3A92E2097DF
:100B100019F4DD2009F452C08C2D0E944C02811181
:100B20000AC0BA94BB2051F261E070E080E090E02E
:100B30000E941805ECCF8C171D0611F00CF08C2FBD
:100B40009FB7F8949092E9002091E80025FD02C03B
:100B50009FBFDDCF282F30E0C21BD30B882029F0A8
:100B60008150A0F01092F100FBCFF801C7FC0AC041
:100B7000815050F041914093F100FACF449140935D
:100B8000F10031968150D0F7020F131FDD2021F0C4
:100B9000A092E800D12CDCCF8091E80085FD07C051
:100BA000A092E800DD24D394209791F2F3CF209710
:100BB00079F6772069F2A092E800CACF5D9A84E6C0
:100BC00080938801C7017CCFEF92FF921F93CF9350
:100BD000DF931F92CDB7DEB77C018091FA018111BE
:100BE0002AC011E01093ED011093EE0183EF91E024
:100BF0009093F0018093EF011092F2011092F101B5
:100C000089E591E09093EA018093E9011092F50162
:100C10001092F4011092F7011092F6011093F8016E
:100C20001093F90181EC8093F3010E946A020E9403
:100C300055011093FA0182E0898341E050E0BE0142
:100C40006F5F7F4F8091EC010E944A0597FD08C0BD
:100C50008091EC0148E050E0B70180640E944A05B1
:100C60000F90DF91CF911F91FF90EF900895CF9358
:100C7000DF93EC0180910B01882331F083E00E9427
:100C80004A051816190634F081E090E09B838A83A8
:100C900080E090E0DF91CF9108950895DC01FB01A1
:100CA00012962C911297848195812817190641F488
:100CB00091818081813A31F49D7F81E0913009F00A
:100CC00080E008958132E1F79B3029F482811F96FC
:100CD0008C9381E008959A3099F7828150968C9395
:100CE000F8CFDC01FB0188E4808389E4818384E41C
:100CF00082831D969C911D979F709F5B93831D9689
:100D00008D919C9124E0969587952A95E1F78F70B7
:100D10008F5B848385E00895EF92FF920F931F937A
:100D2000CF93DF93FB012081213871F5238122329B
:100D300059F5DC0112964C91248135814217130636
:100D400019F5EC010B851C85F12CE12C0115110521
:100D500089F0F801448155816281738180E80E94A5
:100D600026028F3F980749F0E80EF91ED8010D9131
:100D70001C91ECCF81E08F87C701DF91CF911F914C
:100D80000F91FF90EF90089590E080E0F6CFCF9321
:100D9000DF93CDB7DEB769970FB6F894DEBF0FBE0D
:100DA000CDBFFC01DB018C918F5F8C939E012D5F89
:100DB0003F4F8DE0D9011D928A95E9F729E02983FB
:100DC00084E08A8391E09D8383E08E832A8721E2F9
:100DD0002B879C879D879F8722E2288B27E02B8B80
:100DE00025E02C8B8E8B20E430E0388F2F8B998F71
:100DF00082818B8395858685998B8A8B8381806898
:100E00008D8B49E150E0BE016F5F7F4F80E00E9413
:100E1000260269960FB6F894DEBF0FBECDBFDF91F4
:100E2000CF910895CF92DF92EF92FF920F931F938D
:100E3000CF93DF936C01EB017B01E40EF51E10E014
:100E400000E0CE15DF0581F069916D30D1F3D60158
:100E5000ED91FC910190F081E02DC6010995892B5F
:100E600019F00F5F1F4FEDCFC801DF91CF911F9198
:100E70000F91FF90EF90DF90CF900895DC016838DC
:100E8000A0F06858FD0186E0662321F09681961354
:100E900001C01682815031968111F6CFCD010496A2
:100EA0000E94E40581E090E00895E62FF0E067FFFE
:100EB00012C0E058F10981E090E001C0880FEA9586
:100EC000EAF7809514969C911497892314968C9335
:100ED000149760E0D7CFE455FF4F6491662359F033
:100EE00067FFD0CF14968C9114978D7F14968C93B6
:100EF00014976F77C7CF90E080E00895DC016838E1
:100F000088F1685816968C911697861721F11796D6
:100F10008C9117978617F9F018968C911897861769
:100F2000D1F019968C9119978617A9F01A968C9181
:100F30001A97861781F01B968C911B97861759F08C
:100F4000FD01369690E080E02191211139C08A0F91
:100F50009B1FFC016683CD0104960E94E40581E09D
:100F600090E00895E62FF0E067FF11C0E058F10926
:100F700021E030E001C0220FEA95EAF714968C9147
:100F80001497822B14968C93149760E0BBCFE45592
:100F9000FF4F6491611109C081E090E013969C932A
:100FA0008E93129790E080E0089567FFABCF149680
:100FB0008C911497826014968C9314976F77A2CFBC
:100FC00001968630910509F0BFCFE6CFEF92FF92F0
:100FD0001F93CF93DF93EC01162F0E947E077C01B5
:100FE000612FCE010E943E07C7019927DF91CF9163
:100FF0001F91FF90EF900895089590E080E008958C
:10100000CF93DF93EC01BC0189E00E945004BE0144
:101010008AE00E945004BE018BE00E945004BE0191
:1010200085E00E945004BE018DE0DF91CF910C94C9
:101030005004DC01ED91FD918081ED91FD91908155
:10104000ED91FD916C9163708E2309F064609F2394
:1010500009F06860E6E3F8E0E60FF11D6595659537
:101060006D936D917D918D919D91099423C01AC0CE
:1010700012C016C010C01EC009C014C013C006C0E4
:1010800019C009C00DC007C00DC014C06250704027
:10109000804090400BC0615070408040904006C03E
:1010A0006E5F01C06F5F7F4F8F4F9F4F9E938E93F8
:1010B0007E936E93089580911C0290911D020C9472
:1010C000190880911E0290911F020C9419088091BA
:1010D0002002909121020C94190880912202909193
:1010E00023020C9419088F929F92AF92BF920F9394
:1010F0001F93CF93DF93CDB7DEB7A1970FB6F894C8
:10110000DEBF0FBECDBF19A2423008F44AE08E0107
:101110000F5D1F4F842E912CB12CA12CA5019401A1
:101120000E941C16E62FB901CA01EA3044F5E05DC1
:10113000D801EE938D01232B242B252B79F790E0FA
:1011400080E0109769F0FD0101900020E9F73197E8
:10115000AF014A1B5B0BBD0189E991E00E94370694
:10116000A1960FB6F894DEBF0FBECDBFDF91CF9131
:101170001F910F91BF90AF909F908F900895E95C61
:10118000D7CF42E050E06DE671E089E991E00C9440
:101190003706CF93DF93FC014481558160817181D3
:1011A00089E991E00E943706EC010E94C1088C0F8A
:1011B0009D1FDF91CF9108950F931F93CF93DF93DE
:1011C000EC0188819981009759F02A813B8126178B
:1011D000370730F081E0DF91CF911F910F91089593
:1011E0008B016F5F7F4F0E947D17009759F09983A5
:1011F00088831B830A832C813D81232B59F7FC01B3
:101200001082E8CF80E0E7CFCF93DF93EC018881B5
:101210009981009711F00E94F416198218821D829C
:101220001C821B821A82DF91CF910895EF92FF9268
:101230000F931F93CF93DF93EC01FB01E080F180CC
:10124000E114F10411F10481158101151105A9F0D2
:101250008C819D81080F191FB801CE010E94DC0806
:10126000882399F0288139818C819D81B701820F73
:10127000931F0E9443181D830C83CE01DF91CF91F1
:101280001F910F91FF90EF900895CE010E940409E5
:10129000F4CFEF92FF920F931F93CF93DF93EC0164
:1012A0007B018A01BA010E94DC0881110BC0CE01CA
:1012B0000E940409CE01DF91CF911F910F91FF9001
:1012C000EF9008951D830C83B701888199810E9456
:1012D0004318F0CFEF92FF920F931F93CF93DF93BA
:1012E000CDB7DEB762970FB6F894DEBF0FBECDBFA5
:1012F0008C01CB01F80111821082138212821582B7
:1013000014824AE09E012F5F3F4F7901B9010E948C
:101310006C15F70101900020E9F73197AF014E19E4
:101320005F09B701C8010E94490962960FB6F89497
:10133000DEBF0FBECDBFDF91CF911F910F91FF9008
:10134000EF900895FC0180819181009711F00C9439
:10135000F4160895CF92DF92EF92FF920F931F93AE
:10136000CF93DF93CDB7DEB764970FB6F894DEBFA7
:101370000FBECDBF8C01CE010D960E946A09B80147
:10138000CE0107960E946A091A8219821C821B826A
:101390001E821D828AE3F82EFB8A1C8A6E0183E17D
:1013A000C80ED11CF60101900020E9F73197AF017A
:1013B0004C195D09B601CE0101960E944909BE0192
:1013C000695F7F4FCE0101960E9416098C01FB8A4E
:1013D0001C8AFC01E480F580FFEFEF1AFF0AB701D9
:1013E0000E94DC08882381F1F80120813181848109
:1013F0009581B601820F931F0E944318F801F58270
:10140000E482BE01635F7F4FC8010E9416090E94FB
:10141000C908CE0101960E94A209CE0107960E943A
:10142000A209CE010D960E94A20964960FB6F89407
:10143000DEBF0FBECDBFDF91CF911F910F91FF9007
:10144000EF90DF90CF900895C8010E940409D9CF92
:10145000FF920F931F93CF93DF93EC01F62E088139
:101460001981C8010E94A115F81621F06F2DC8013D
:101470000E94A915CE01DF91CF911F910F91FF908E
:101480000895EF92FF920F931F93CF93DF9300D0B5
:10149000CDB7DEB78C01F42E05962BE0E22EE89E48
:1014A000F001E99EF00D1124EA5DFD4F6083019685
:1014B0009A838983CE0101960E94280AE09EF0015A
:1014C000E19EF00D1124EA5DFD4FF0820F5F1F4F8A
:1014D0001A8309836F2DCE0101960E94280A0F906E
:1014E0000F90DF91CF911F910F91FF90EF90089592
:1014F000EF92FF920F931F93CF93DF9300D0CDB75E
:10150000DEB78C01F42E01962BE0E22EE89EF0016E
:10151000E99EF00D1124EA5DFD4F608301969A83E8
:101520008983CE0101960E94280AC8010197E89E8E
:10153000F001E99EF00D1124EA5DFD4FF0821A835F
:1015400009836F2DCE0101960E94280A0F900F90FB
:10155000DF91CF911F910F91FF90EF900895CF935E
:10156000DF93CDB7DEB72C970FB6F894DEBF0FBE72
:10157000CDBF80939101909392012FE030E03A83A8
:101580002983682FCE0101960E94280A609191015B
:1015900070919201CE0107960E946A091A821982FF
:1015A0001C821B821E821D8241E050E060E771E0D8
:1015B000CE0101960E944909BE01695F7F4FCE01AD
:1015C00001960E9416090E94C908CE0101960E9448
:1015D000A209CE0107960E94A2092C960FB6F89494
:1015E000DEBF0FBECDBFDF91CF910895FF920F9365
:1015F0001F93CF93DF93EC0189810E94BD038C017F
:101600008881882309F4A6C0FF24F39401151105ED
:1016100009F0F12C8A85F81609F49CC02FB7F894CC
:101620008091950190919601A0919701B0919801B8
:101630002FBF4E815F8168857985841B950BA60B32
:10164000B70B4A815B816C817D81481759076A0716
:101650007B0708F07FC00115110509F04FC087E135
:101660000E94BD03892B09F049C08981823181F430
:101670008091910190919201892B09F43FC090E0F3
:1016800080E0DF91CF911F910F91FF900C94AF0AF2
:10169000833199F48091910190919201019771F1B8
:1016A00081E090E00E94AF0A8FEF90E0DF91CF9150
:1016B0001F910F91FF900C940008843149F48091A0
:1016C0009101909192010297C9F082E090E0D9CF08
:1016D000853149F48091910190919201039771F0C5
:1016E00083E090E0DFCF863149F4809191019091C1
:1016F0009201049719F084E090E0D4CF87E10E9432
:10170000BD03892B39F12FB7F89480919501909101
:101710009601A0919701B09198012FBF8E839F836E
:10172000A887B987688180E192E001151105C1F4AD
:101730000E947E07FA86012B69F4809191019091B5
:101740009201019739F48981823169F4109219016B
:1017500010921801DF91CF911F910F91FF90089582
:101760000E943E07E7CF833129F4109217011092AF
:101770001601F0CF843129F4109215011092140152
:10178000E9CF853129F41092130110921201E2CFB2
:10179000863101F71092110110921001DBCF1F92D8
:1017A0000F920FB60F9211248F939F938091E100B7
:1017B0009091E100937F9093E10083FF0FC010921E
:1017C000E90091E09093EB001092EC0092E390938B
:1017D000ED001092940198E09093F00082FF22C0F7
:1017E00093E09093E9009091F200992319F09AE325
:1017F0009093E80090918801992341F0909188019D
:10180000915090938801911101C05D98909193013E
:10181000992341F0909193019150909393019111EC
:1018200001C0289884FF18C08091E2008E7E8160FC
:101830008093E2008091E1008F7E8093E1008091AF
:1018400089018E7E8061809389019F918F910F9095
:101850000FBE0F901F90189580FFF7CF8091E20088
:101860008E7E80618093E2008091E1008E7E809385
:10187000E100809189018E7E8160E5CF1F920F92F9
:101880000FB60F921124CF92DF92EF92FF920F9337
:101890001F932F933F934F935F936F937F938F93F8
:1018A0009F93AF93BF93EF93FF93CF93DF93CDB706
:1018B000DEB76C97DEBFCDBF1092E9008091E800E3
:1018C00083FF25C068E0CE0145960E945D0282EF4D
:1018D0008093E8008D8987FF39C09091E80090FFE0
:1018E000FCCF982F907609F034C19E894F89588D8E
:1018F0002F89F88C911131C0803861F580918A016F
:101900008093F1001092F1008EEF8093E8006C96C6
:101910000FB6F894DEBF0FBECDBFDF91CF91FF9120
:10192000EF91BF91AF919F918F917F916F915F9157
:101930004F913F912F911F910F91FF90EF90DF906A
:10194000CF900F900FBE0F901F9018959EEF909321
:10195000E800C7CF1092F100D5CF913059F4811132
:10196000D3CF4130510581F680918A018D7F8093DC
:101970008A01CACF933049F48111C6CF4130510555
:1019800019F680918A018260F2CF953041F48091FE
:10199000E80080FFFCCF20682093E300B5CF9630AD
:1019A00009F0A9C00B8D1C8D22E01092E900109265
:1019B000860110928501F2122EC0109284011092BD
:1019C00083010E947E021F8299E09983FA8291E04E
:1019D0009E8390EA98879AEF9987209185013091AC
:1019E0008601275F3F4F3C832B838D831092E90054
:1019F0001092860110928501109384010093830157
:101A000049E050E0BE016F5F7F4F80E00E942602F8
:101A10000E947E0279CF10938401009383010E947B
:101A20006A02DC0112960D911C910115110509F451
:101A300051C1D801ED91FC910480F581E02DBE01EA
:101A40006B5E7F4FC8010995009709F03EC1F80110
:101A500000851185EACFF3E0FF120EC08F8988233D
:101A600009F440C0823061F440E86DE08BEC91E015
:101A70000E94F301811148CF81E28093EB0047CFB0
:101A8000813029F440E86BE08FEB91E0F1CF8330B7
:101A900099F70E946A02DC011296ED90FC908E018B
:101AA0000F5F1F4F6801E114F10479F0D701ED9148
:101AB000FC910680F781E02DB801C7010995080F58
:101AC000111DF701E084F184EECFD8011C92F601DC
:101AD00001900020E9F73197BF016C197D0940E0C2
:101AE000C601C6CF69EA71E0FB01449150E080E88D
:101AF0000E94260209CF973009F4BECF983021F416
:101B000081E08093F10000CF993009F0FDCE837021
:101B100009F0B2CFE1E2F1E081E031E096E321911A
:101B2000222371F08093E9003093EB00DF011197DD
:101B30002C912093EC009093ED008F5F873079F724
:101B40008EE78093EA001092EA008F8980939401D7
:101B5000DBCE8B8D9C8D1092E90010928601109245
:101B600085019093840180938301898D811192C0B6
:101B70008E899D89913A49F4813209F07DCF47E001
:101B800050E064E071E080E0B3CF913209F074CFAF
:101B9000833269F48F89988DB0E0A0E080930001D2
:101BA00090930101A0930201B0930301ADCE803266
:101BB00069F48091E80082FFFCCF67E084E091E067
:101BC0000E945D028BEF8093E8009ECE823209F086
:101BD0009BCE8F8980930B01EEEFFFE78591949167
:101BE0008B3F9C4D51F1E0E0F8E080910401909131
:101BF0000501A0910601B0910701803B9440A10529
:101C0000B105F1F480910B0180FD1AC0EE3F8AE02E
:101C1000F80789F587E797E79183808380916000D3
:101C20008093870188E19BE00FB6F894A895809394
:101C300060000FBE9093600067CEEEEFFAE0D5CF64
:101C4000808191818737974709F05ECEA895809172
:101C500060008861809360008091870180936000BC
:101C6000EE3F2AE0F20789F08091FE0A9091FF0A88
:101C70009183808349CE808191818737980751F283
:101C80009093FF0A8093FE0AC5CF1092FF0A10922C
:101C9000FE0A3ACE0E946A02DC0112960D911C9156
:101CA0000115110509F4E8CED801ED91FC910190E0
:101CB000F081E02DBE016B5E7F4FC8010995811157
:101CC00023CEF80100851185EBCF181619060CF408
:101CD0001BCED2CEF1E0FF12BECE6DEA71E004CF92
:101CE0001F920F920FB60F9211242F933F938F9351
:101CF0009F93AF93BF938091950190919601A0918E
:101D00009701B09198013091720123E0230F2D3794
:101D100058F50196A11DB11D209372018093950184
:101D200090939601A0939701B093980180917301CD
:101D300090917401A0917501B09176010196A11D59
:101D4000B11D8093730190937401A0937501B093BA
:101D50007601BF91AF919F918F913F912F910F90FD
:101D60000FBE0F901F90189526E8230F0296A11D15
:101D7000B11DD2CF1F920F920FB60F9211242F9345
:101D80003F934F935F936F937F938F939F93AF9303
:101D9000BF93EF93FF93E0912F01F09130010995EC
:101DA000FF91EF91BF91AF919F918F917F916F9133
:101DB0005F914F913F912F910F900FBE0F901F9009
:101DC00018951F920F920FB60F9211242F933F93E5
:101DD0004F935F936F937F938F939F93AF93BF9333
:101DE000EF93FF93E0912D01F0912E010995FF9162
:101DF000EF91BF91AF919F918F917F916F915F9183
:101E00004F913F912F910F900FBE0F901F901895FB
:101E10001F920F920FB60F9211242F933F934F935F
:101E20005F936F937F938F939F93AF93BF93EF9342
:101E3000FF93E0912B01F0912C010995FF91EF9117
:101E4000BF91AF919F918F917F916F915F914F91D2
:101E50003F912F910F900FBE0F901F9018951F92DA
:101E60000F920FB60F9211242F933F934F935F93CE
:101E70006F937F938F939F93AF93BF93EF93FF9352
:101E8000E0912901F0912A010995FF91EF91BF910D
:101E9000AF919F918F917F916F915F914F913F9102
:101EA0002F910F900FBE0F901F9018951F920F92B9
:101EB0000FB60F9211242F933F934F935F936F931D
:101EC0007F938F939F93AF93BF93EF93FF93E09193
:101ED0002701F09128010995FF91EF91BF91AF91F2
:101EE0009F918F917F916F915F914F913F912F9132
:101EF0000F900FBE0F901F9018950C94A115CF93C3
:101F0000DF9310929C0110929B0188EE93E0A0E079
:101F1000B0E080939D0190939E01A0939F01B093A8
:101F2000A00187E491E090939A01809399018FEF4B
:101F30009FEF9093A6018093A50110921302109237
:101F4000120285E691E09093110280931002809135
:101F50000802811113C0109203021092020289ED4F
:101F600091E090930502809304028FE290E09093B9
:101F700007028093060281E0809308028091FA01B3
:101F800081112AC0C1E0C093ED01C093EE0183EF3F
:101F900091E09093F0018093EF011092F201109282
:101FA000F10189E591E09093EA018093E9011092B3
:101FB000F5011092F4011092F7011092F601C0930E
:101FC000F801C093F90181EC8093F3010E946A0249
:101FD0000E945501C093FA01E091F401F091F501DE
:101FE000309709F06AC182E092E09093F501809306
:101FF000F4018091F6019091F70120910602309151
:102000000702820F931F9093F7018093F60162E01D
:1020100082E00E94140462E083E00E941404E7E37B
:10202000F2E0E491F0E0EE0FFF1FE95DFD4FA591B6
:10203000B491B093C102A093C002EAE0F2E04491EF
:102040004093C402E8E3F2E0E491F0E0EE0FFF1FFA
:10205000E95DFD4FC591D491D093C302C093C202F4
:10206000EBE0F2E0E491E093C5021092C702109217
:10207000C8021092C9021092CA022BE33FE1C901C3
:102080000197F1F79C91842F892391E009F490E066
:102090008881E82309F0926020EC32E09093C60238
:1020A00030931F0220931E0281E698E090932A014C
:1020B0008093290180916900837F84608093690007
:1020C000E99A81E08093CB0230931D0220931C0299
:1020D0008BE598E090932801809327018091690017
:1020E0008C7F816080936900E89A22E02093CB0284
:1020F00080EF8093260272E1709327028CE390E0D8
:10210000A0E0B0E08093280290932902A0932A02D5
:10211000B0932B021092300231EF3093310263E121
:10212000609332028093330290933402A09335027D
:10213000B093360210923B0232EF30933C0254E1EE
:1021400050933D0280933E0290933F02A093400241
:10215000B09341021092460233EF3093470245E1BB
:10216000409348028093490290934A02A0934B0205
:10217000B0934C021092510234EF3093520236E188
:10218000309353028093540290935502A0935602C9
:10219000B093570210925C0210925D0270935E023F
:1021A00080935F0290936002A0936102B0936202F9
:1021B00010926702109268026093690280936A022B
:1021C00090936B02A0936C02B0936D021092720216
:1021D000109273025093740280937502909376026A
:1021E000A0937702B093780210927D0210927E0243
:1021F00040937F028093800290938102A093820299
:10220000B0938302109288021092890230938A025E
:1022100080938B0290938C02A0938D02B0938E02D8
:102220001092930237ED309394022093950280939D
:10223000960290939702A0939802B09399021092FD
:102240009E0238ED30939F0233E03093A0028093DA
:10225000A1029093A202A093A302B093A4021092B1
:10226000A9021092AA022093AB028093AC02909331
:10227000AD02A093AE02B093AF021092B4021092DE
:10228000B5023093B6028093B7029093B802A09340
:10229000B902B093BA021092BF022091310130917D
:1022A00032018FEF90E0821B930B90932502809375
:1022B0002402DF91CF910895FC01808191810097E4
:1022C000D9F782E092E09183808393CECF93DF931E
:1022D00000D0CDB7DEB7789484B5826084BD84B574
:1022E000816084BD85B5826085BD85B5816085BD11
:1022F00080916E00816080936E00109281008091C9
:102300008100826080938100809181008160809350
:102310008100809180008160809380008091910095
:102320008260809391008091910081608093910000
:10233000809190008160809390008091C1008460C2
:102340008093C1008091C10082608093C100809120
:10235000C10081608093C1008091C300816080933F
:10236000C3008091C00082608093C0008091C20051
:1023700081608093C20080917A00846080937A00AB
:1023800080917A00826080937A0080917A008160E7
:1023900080937A0080917A00806880937A0010920E
:1023A000940110928A01109289018091D700816076
:1023B0008093D70080EA8093D80089B5806189BD79
:1023C00089B5826089BD09B400FEFDCF61E070E08F
:1023D00080E090E00E9418058091D8008F7C806199
:1023E0008093D8008091E000807F8093E00080910E
:1023F000E1008E7E8093E1008DE08093E200559AAB
:10240000209A5D98289862E081E00E94140481E09F
:102410000E94BD03892B09F4FFCF8FEF9FEF9093AC
:10242000A6018093A50190E080E00E947D0F90E0DE
:10243000009721F090938E0180938D0181E090E0D0
:102440000E947D0F81118093260282E090E00E941D
:102450007D0F81118093310283E090E00E947D0F17
:10246000811180933C0284E090E00E947D0F8111F5
:102470008093470285E090E00E947D0F8111809358
:10248000520286E090E00E947D0F811180935D02F0
:1024900087E090E00E947D0F81118093680288E0C0
:1024A00090E00E947D0F81118093730289E090E09B
:1024B0000E947D0F811180937E028AE090E00E944D
:1024C0007D0F182F8111809389028BE090E00E948C
:1024D0007D0F1111809394028CE090E00E947D0F9B
:1024E000811180939F028DE090E00E947D0F811109
:1024F0008093AA028EE090E00E947D0F811180936C
:10250000B5028FE090E00E947D0F882339F0082EFD
:10251000000C990B909392018093910160E089E007
:102520000E94140460E08AE00E94140460E08BE0E2
:102530000E94140460E085E00E94140460E08DE0D5
:102540000E94140462E087E10E94140406E212E093
:1025500062E0F80181810E941404055F1F4FF2E0E0
:10256000003C1F07A9F798EE492E93E0592E2BE067
:10257000322E10910B016AE070E080E090E00E9442
:102580001805112309F475C089E991E00E945703E9
:10259000892B09F46EC00E941703FC0197FDA0C1AE
:1025A0008D32910541F0C0970A9728F089E991E0B2
:1025B0000E94D502F0CFC12CD12C760110E0E13081
:1025C000F105D9F0ED32F10509F488C1CF01C097CA
:1025D0000A9798F4AAE0B0E0A70196010E94B71507
:1025E0006F01FF0FEE08FF08C60ED71EE81EF91E8A
:1025F00040E3C41AD108E108F10889E991E00E949A
:10260000D5020E941703FC01C0970A97C0F2E1307F
:10261000F105A9F2112341F0F094E094D094C09414
:10262000C11CD11CE11CF11C86010A3011050CF003
:102630005BC1C114D10409F457C1C601019790933D
:102640008C0180938B01389EF001399EF00D11248E
:10265000EA5DFD4F608170E00C5F1F4F309EF0011E
:10266000319EF00D1124EA5DFD4F808190E00E94C3
:10267000AA098091CB02823008F08AC1F89480ECDC
:1026800092E00E941908C090C702D090C802E09062
:10269000C902F090CA02789480900C0190900D01CC
:1026A000A0900E01B0900F018C149D04AE04BF04E5
:1026B00009F460C087E10E94BD03892B09F06AC15B
:1026C0008091910190919201892BD1F58C149D04F8
:1026D000AE04BF04ACF460918D0170918E01CB010A
:1026E00001978A3F910560F46550710970938E01DE
:1026F00060938D011A821982CE0101960E94280AE8
:1027000080910C0190910D01A0910E01B0910F01EB
:10271000C816D906EA06FB069CF460918D017091FB
:102720008E016A3F710560F46B5F7F4F70938E017D
:1027300060938D011A821982CE0101960E94280AA7
:10274000C0920C01D0920D01E0920E01F0920F01A7
:10275000109216021092170210921802109219028B
:1027600010921A0210921B021092140284E192E05D
:102770000E94E4058DE592E00E94F60A86E292E06E
:102780000E94F60A88E692E00E94F60A81E392E04F
:102790000E94F60A83E792E00E94F60A8CE392E038
:1027A0000E94F60A8EE792E00E94F60A87E492E021
:1027B0000E94F60A89E892E00E94F60A82E592E019
:1027C0000E94F60A809191019091920160908D0192
:1027D00070908E018130910509F001C1809018013F
:1027E00090901901B40189E00E945004A090160154
:1027F000B0901701B5018AE00E945004C090140106
:10280000D0901501B6018BE00E945004E0901201B7
:10281000F0901301B70185E00E945004009110016F
:1028200010911101B8018DE00E945004FFEF8F1646
:1028300091043CF44FEF841A940A9092190180920B
:1028400018018FEFA816B1043CF49FEFA91AB90A3A
:10285000B0921701A0921601EFEFCE16D1043CF40E
:10286000FFEFCF1ADF0AD0921501C09214014FEF8B
:10287000E416F1043CF48FEFE81AF80AF092130121
:10288000E09212010F3F110534F40F5F1F4F1093B8
:102890001101009310016301770CEE08FF084AE074
:1028A000C701B601F7FE0DC06DE289E991E00E9413
:1028B000AF0266277727CB016C197D098E099F0926
:1028C0004AE00E9473080E94C1085D98E0E0F0E0D1
:1028D000EF2B09F44ECE0E9400004BCE11E08DCEBE
:1028E000C12CD12C7601A0CE8CE0C81AD10892E080
:1028F000C916D10488F4C801019790938C01809384
:102900008B010197389EF001399EF00D1124EA5D8C
:10291000FD4F608170E0A2CEC801B2010E9408168E
:10292000CB016AE070E00E9408167C0180918B0167
:1029300090918C019C012B5031091E141F04CCF482
:10294000E49CA001E59C500DF49C500D1124041B47
:10295000150BEFE7EE0EF11CA801B701223031058F
:1029600028F40E94780AB801C70181CE0E94410A6A
:10297000FACFA80170E060E02230310530F40E9407
:10298000780AB80190E080E072CE0E94410AF9CF47
:10299000F89479CEC814D904EA04FB047CF460915D
:1029A000B502662321F080E192E00E947E076091EB
:1029B0009F0280E192E00E947E07C2CE8C149D04AB
:1029C000AE04BF040CF0BCCE6091AA02662321F0D5
:1029D00080E192E00E947E0760919402EACF82300B
:1029E0009105F9F400918F0110919001C8010E94A6
:1029F000000880911E0190911F01080F191F10936C
:102A0000900100938F01015011090E3F110508F448
:102A100042CF91958195910990931F0180931E015A
:102A20003ACF8330910509F04EC0009124021091F5
:102A30002502E0901C01F0901D01F701EE0FFF1F31
:102A4000E75CFE4FB80180810E9450048091310103
:102A5000909132010F3F11055CF19195819591099B
:102A60009093320180933101C7010197039758F089
:102A700080911A0190911B019195819591099093F4
:102A80001B0180931A0180911A0190911B01E80E9D
:102A9000F91EF0921D01E0921C018091310190918C
:102AA0003201080F191F1093250200932402F3CE60
:102AB0001016110694F39195819591099093320126
:102AC00080933101EACF049729F48FEF90E00E94C0
:102AD0000008E1CEC301FBCFBB274A3031F4992374
:102AE00022F4BDE2909581959F4F0C947815BB27F9
:102AF000FB015527AA27880F991FAA1FA41710F0BA
:102B0000A41B83955051B9F7A05DAA3308F0A95DC5
:102B1000A193009779F7B111B1931192CB010C9465
:102B20009115DC01FC01672F71917723E1F7329752
:102B300004C07C916D9370836291AE17BF07C8F398
:102B40000895F999FECF92BD81BDF89A992780B575
:102B50000895262FF999FECF1FBA92BD81BD20BDE1
:102B60000FB6F894FA9AF99A0FBE019608950E944A
:102B7000F915A59F900DB49F900DA49F800D911DF8
:102B8000112408952F923F924F925F926F927F92FD
:102B90008F929F92AF92BF92CF92DF92EF92FF926D
:102BA0000F931F93CF93DF93CDB7DEB7CA1BDB0B19
:102BB0000FB6F894DEBF0FBECDBF09942A883988BE
:102BC00048885F846E847D848C849B84AA84B984C5
:102BD000C884DF80EE80FD800C811B81AA81B981D1
:102BE000CE0FD11D0FB6F894DEBF0FBECDBFED01E5
:102BF0000895A29FB001B39FC001A39F700D811DD6
:102C00001124911DB29F700D811D1124911D0895F5
:102C100097FB072E16F4009407D077FD09D00E9489
:102C2000441607FC05D03EF4909581959F4F08957A
:102C3000709561957F4F0895A1E21A2EAA1BBB1BC8
:102C4000FD010DC0AA1FBB1FEE1FFF1FA217B30778
:102C5000E407F50720F0A21BB30BE40BF50B661F8E
:102C6000771F881F991F1A9469F760957095809552
:102C700090959B01AC01BD01CF010895EE0FFF1FA0
:102C80000590F491E02D0994AA1BBB1B51E107C0EC
:102C9000AA1FBB1FA617B70710F0A61BB70B881FEC
:102CA000991F5A95A9F780959095BC01CD0108957B
:102CB0000F931F93CF93DF938230910510F482E03E
:102CC00090E0E091CE02F091CF0230E020E0B0E061
:102CD000A0E0309799F42115310509F44AC0281B6A
:102CE000390B24303105D8F58A819B816115710536
:102CF00089F1FB0193838283FE0111C040815181E0
:102D00000281138148175907E0F04817590799F4D1
:102D1000109761F012960C93129713961C933296AB
:102D2000CF01DF91CF911F910F9108950093CE02B3
:102D30001093CF02F4CF2115310551F042175307FC
:102D400038F0A901DB019A01BD01DF01F801C1CF13
:102D5000EF01F9CF9093CF028093CE02CDCFFE0149
:102D6000E20FF31F81939193225031093983288315
:102D7000D7CF2091CC023091CD02232B41F420916A
:102D80003501309136013093CD022093CC02209151
:102D90003301309134012115310541F42DB73EB78F
:102DA0004091370150913801241B350BE091CC0242
:102DB000F091CD02E217F307A0F42E1B3F0B28176A
:102DC000390778F0AC014E5F5F4F2417350748F0A4
:102DD0004E0F5F1F5093CD024093CC02819391938D
:102DE0009FCFF0E0E0E09CCFCF93DF930097E9F036
:102DF000FC01329713821282A091CE02B091CF02D1
:102E0000ED0130E020E01097A1F420813181820FA4
:102E1000931F2091CC023091CD022817390709F079
:102E200061C0F093CD02E093CC02DF91CF91089581
:102E3000EA01CE17DF07E8F54A815B819E01411563
:102E40005105B1F7E901FB83EA8349915991C40F18
:102E5000D51FEC17FD0761F4808191810296840FE4
:102E6000951FE90199838883828193819B838A835B
:102E7000F0E0E0E012968D919C9113970097B9F5E0
:102E80002D913C911197CD010296820F931F2091B5
:102E9000CC023091CD022817390739F6309751F519
:102EA0001092CF021092CE02B093CD02A093CC022A
:102EB000BCCFD383C28340815181840F951FC81733
:102EC000D90761F44E5F5F4F88819981480F591F80
:102ED000518340838A819B819383828321153105AD
:102EE00009F0B0CFF093CF02E093CE029ECFFD0168
:102EF000DC01C0CF13821282D7CFB0E0A0E0E3E8BC
:102F0000F7E10C94C4158C01009751F4CB010E9499
:102F100058168C01C801CDB7DEB7E0E10C94E0157E
:102F2000FC01E60FF71F9C0122503109E217F3075D
:102F300008F49DC0D901CD91DC911197C617D70730
:102F400098F0C530D10530F3CE0104978617970766
:102F500008F3C61BD70B2297C193D1936D937C9333
:102F6000CF010E94F416D6CF5B01AC1ABD0A4C010A
:102F70008C0E9D1EA091CE02B091CF02512C412CFF
:102F8000F12CE12C109731F58091CC029091CD027B
:102F90008815990509F05CC04616570608F058C018
:102FA0008091330190913401009741F48DB79EB721
:102FB0004091370150913801841B950BE817F907B0
:102FC00008F055C0F093CD02E093CC02F901718373
:102FD0006083A0CF8D919C91119712966C9012975F
:102FE00013967C901397A815B90559F56C0142E02A
:102FF000C40ED11CCA14DB0420F1AC014A195B09D0
:10300000DA011296159780F06282738251834083B1
:10301000D9016D937C93E114F10471F0D7011396FB
:10302000FC93EE93129776CF22968C0F9D1FF90199
:1030300091838083F301EFCFF093CF02E093CE0230
:1030400069CF4816590608F42C017D01D3019ACFA7
:10305000CB010E9458167C01009749F0AE01B801DF
:103060000E943A18C8010E94F416870153CF10E05D
:1030700000E050CFFB01DC0102C001900D924150F5
:103080005040D8F70895FB01DC0101900D9200201B
:08309000E1F70895F894FFCF69
:10309800FFFFFFFF00E100000000000019FCFFFF38
:1030A800FF00FF00FF00FF00FF00FFFF030001001B
:1030B80000C180810000004D064D064D064D064DAD
:1030C8000633000000D002800009000A000B00054A
:1030D800000D0000000000AF023706D002C50257FD
:1030E80003D502F302000000004E06C7068C0671E5
:1030F8000600000000E6071207FD07FC070D0A009E
:023108003F0086
:00000001FF
